{
  "contractName": "Evaluator",
  "abi": [
    {
      "inputs": [
        {
          "internalType": "contract ERC20TD",
          "name": "_TDERC20",
          "type": "address"
        },
        {
          "internalType": "contract ERC20Claimable",
          "name": "_claimableERC20",
          "type": "address"
        }
      ],
      "stateMutability": "nonpayable",
      "type": "constructor"
    },
    {
      "anonymous": false,
      "inputs": [
        {
          "indexed": false,
          "internalType": "address",
          "name": "erc20Address",
          "type": "address"
        },
        {
          "indexed": false,
          "internalType": "address",
          "name": "claimableERC20Address",
          "type": "address"
        }
      ],
      "name": "constructedCorrectly",
      "type": "event"
    },
    {
      "anonymous": false,
      "inputs": [
        {
          "indexed": false,
          "internalType": "string",
          "name": "ticker",
          "type": "string"
        },
        {
          "indexed": false,
          "internalType": "uint256",
          "name": "supply",
          "type": "uint256"
        }
      ],
      "name": "newRandomTickerAndSupply",
      "type": "event"
    },
    {
      "stateMutability": "payable",
      "type": "fallback"
    },
    {
      "inputs": [
        {
          "internalType": "address",
          "name": "",
          "type": "address"
        },
        {
          "internalType": "uint256",
          "name": "",
          "type": "uint256"
        }
      ],
      "name": "exerciceProgression",
      "outputs": [
        {
          "internalType": "bool",
          "name": "",
          "type": "bool"
        }
      ],
      "stateMutability": "view",
      "type": "function"
    },
    {
      "inputs": [
        {
          "internalType": "address",
          "name": "",
          "type": "address"
        }
      ],
      "name": "hasBeenPaired",
      "outputs": [
        {
          "internalType": "bool",
          "name": "",
          "type": "bool"
        }
      ],
      "stateMutability": "view",
      "type": "function"
    },
    {
      "inputs": [],
      "name": "nextValueStoreRank",
      "outputs": [
        {
          "internalType": "uint256",
          "name": "",
          "type": "uint256"
        }
      ],
      "stateMutability": "view",
      "type": "function"
    },
    {
      "inputs": [
        {
          "internalType": "address",
          "name": "",
          "type": "address"
        }
      ],
      "name": "studentExerciceSolution",
      "outputs": [
        {
          "internalType": "contract IExerciceSolution",
          "name": "",
          "type": "address"
        }
      ],
      "stateMutability": "view",
      "type": "function"
    },
    {
      "inputs": [
        {
          "internalType": "address",
          "name": "",
          "type": "address"
        }
      ],
      "name": "teachers",
      "outputs": [
        {
          "internalType": "bool",
          "name": "",
          "type": "bool"
        }
      ],
      "stateMutability": "view",
      "type": "function"
    },
    {
      "stateMutability": "payable",
      "type": "receive"
    },
    {
      "inputs": [],
      "name": "ex1_claimedPoints",
      "outputs": [],
      "stateMutability": "nonpayable",
      "type": "function"
    },
    {
      "inputs": [],
      "name": "ex2_claimedFromContract",
      "outputs": [],
      "stateMutability": "nonpayable",
      "type": "function"
    },
    {
      "inputs": [],
      "name": "ex3_withdrawFromContract",
      "outputs": [],
      "stateMutability": "nonpayable",
      "type": "function"
    },
    {
      "inputs": [],
      "name": "ex4_approvedExerciceSolution",
      "outputs": [],
      "stateMutability": "nonpayable",
      "type": "function"
    },
    {
      "inputs": [],
      "name": "ex5_revokedExerciceSolution",
      "outputs": [],
      "stateMutability": "nonpayable",
      "type": "function"
    },
    {
      "inputs": [],
      "name": "ex6_depositTokens",
      "outputs": [],
      "stateMutability": "nonpayable",
      "type": "function"
    },
    {
      "inputs": [],
      "name": "ex7_createERC20",
      "outputs": [],
      "stateMutability": "nonpayable",
      "type": "function"
    },
    {
      "inputs": [],
      "name": "ex8_depositAndMint",
      "outputs": [],
      "stateMutability": "nonpayable",
      "type": "function"
    },
    {
      "inputs": [],
      "name": "ex9_withdrawAndBurn",
      "outputs": [],
      "stateMutability": "nonpayable",
      "type": "function"
    },
    {
      "inputs": [
        {
          "internalType": "contract IExerciceSolution",
          "name": "studentExercice",
          "type": "address"
        }
      ],
      "name": "submitExercice",
      "outputs": [],
      "stateMutability": "nonpayable",
      "type": "function"
    },
    {
      "inputs": [
        {
          "internalType": "bytes32",
          "name": "_bytes32",
          "type": "bytes32"
        }
      ],
      "name": "bytes32ToString",
      "outputs": [
        {
          "internalType": "string",
          "name": "",
          "type": "string"
        }
      ],
      "stateMutability": "pure",
      "type": "function"
    }
  ],
  "bytecode": "0x60806040523480156200001157600080fd5b5060405162005b8c38038062005b8c83398181016040528101906200003791906200016e565b81600160006101000a81548173ffffffffffffffffffffffffffffffffffffffff021916908373ffffffffffffffffffffffffffffffffffffffff16021790555080600260006101000a81548173ffffffffffffffffffffffffffffffffffffffff021916908373ffffffffffffffffffffffffffffffffffffffff1602179055507faec105056259e6e944bb71151b9922f56b566fb88054f082eef397db7ccddf2a600160009054906101000a900473ffffffffffffffffffffffffffffffffffffffff16600260009054906101000a900473ffffffffffffffffffffffffffffffffffffffff1660405162000130929190620001c0565b60405180910390a150506200027d565b600081519050620001518162000249565b92915050565b600081519050620001688162000263565b92915050565b600080604083850312156200018257600080fd5b6000620001928582860162000157565b9250506020620001a58582860162000140565b9150509250929050565b620001ba81620001ed565b82525050565b6000604082019050620001d76000830185620001af565b620001e66020830184620001af565b9392505050565b6000620001fa8262000229565b9050919050565b60006200020e82620001ed565b9050919050565b60006200022282620001ed565b9050919050565b600073ffffffffffffffffffffffffffffffffffffffff82169050919050565b620002548162000201565b81146200026057600080fd5b50565b6200026e8162000215565b81146200027a57600080fd5b50565b6158ff806200028d6000396000f3fe6080604052600436106100f75760003560e01c8063836a10b41161008a578063af6c4d1911610059578063af6c4d19146102ac578063d4878938146102c3578063f0a47f78146102da578063f4fdbb8814610317576100fe565b8063836a10b41461022a5780639201de5514610241578063a38ac0241461027e578063aba62af314610295576100fe565b806339119dce116100c657806339119dce146101ba57806357aecf06146101e55780637a1e55ec146101fc5780637aa1850c14610213576100fe565b80630b961254146101005780631e8a3ae41461013d5780632236d353146101545780632e64c5001461017d576100fe565b366100fe57005b005b34801561010c57600080fd5b5061012760048036038101906101229190614ad5565b610354565b604051610134919061546a565b60405180910390f35b34801561014957600080fd5b50610152610387565b005b34801561016057600080fd5b5061017b60048036038101906101769190614bb5565b610bd0565b005b34801561018957600080fd5b506101a4600480360381019061019f9190614b27565b610e5c565b6040516101b1919061544f565b60405180910390f35b3480156101c657600080fd5b506101cf610e8b565b6040516101dc91906156e7565b60405180910390f35b3480156101f157600080fd5b506101fa610e91565b005b34801561020857600080fd5b506102116118fa565b005b34801561021f57600080fd5b50610228611e93565b005b34801561023657600080fd5b5061023f612914565b005b34801561024d57600080fd5b5061026860048036038101906102639190614b8c565b612c5f565b6040516102759190615485565b60405180910390f35b34801561028a57600080fd5b50610293612dd0565b005b3480156102a157600080fd5b506102aa6136df565b005b3480156102b857600080fd5b506102c1613adc565b005b3480156102cf57600080fd5b506102d8613e27565b005b3480156102e657600080fd5b5061030160048036038101906102fc9190614ad5565b614a02565b60405161030e919061544f565b60405180910390f35b34801561032357600080fd5b5061033e60048036038101906103399190614ad5565b614a22565b60405161034b919061544f565b60405180910390f35b602d6020528060005260406000206000915054906101000a900473ffffffffffffffffffffffffffffffffffffffff1681565b602c60003373ffffffffffffffffffffffffffffffffffffffff1673ffffffffffffffffffffffffffffffffffffffff168152602001908152602001600020600080815260200190815260200160002060009054906101000a900460ff16610424576040517f08c379a000000000000000000000000000000000000000000000000000000000815260040161041b90615667565b60405180910390fd5b6000600260009054906101000a900473ffffffffffffffffffffffffffffffffffffffff1673ffffffffffffffffffffffffffffffffffffffff166370a08231602d60003373ffffffffffffffffffffffffffffffffffffffff1673ffffffffffffffffffffffffffffffffffffffff16815260200190815260200160002060009054906101000a900473ffffffffffffffffffffffffffffffffffffffff166040518263ffffffff1660e01b81526004016104e0919061534c565b60206040518083038186803b1580156104f857600080fd5b505afa15801561050c573d6000803e3d6000fd5b505050506040513d601f19601f820116820180604052508101906105309190614bde565b9050602d60003373ffffffffffffffffffffffffffffffffffffffff1673ffffffffffffffffffffffffffffffffffffffff16815260200190815260200160002060009054906101000a900473ffffffffffffffffffffffffffffffffffffffff1673ffffffffffffffffffffffffffffffffffffffff16630e4f7f366040518163ffffffff1660e01b8152600401600060405180830381600087803b1580156105d957600080fd5b505af11580156105ed573d6000803e3d6000fd5b505050506000600260009054906101000a900473ffffffffffffffffffffffffffffffffffffffff1673ffffffffffffffffffffffffffffffffffffffff166370a08231602d60003373ffffffffffffffffffffffffffffffffffffffff1673ffffffffffffffffffffffffffffffffffffffff16815260200190815260200160002060009054906101000a900473ffffffffffffffffffffffffffffffffffffffff166040518263ffffffff1660e01b81526004016106ad919061534c565b60206040518083038186803b1580156106c557600080fd5b505afa1580156106d9573d6000803e3d6000fd5b505050506040513d601f19601f820116820180604052508101906106fd9190614bde565b9050600260009054906101000a900473ffffffffffffffffffffffffffffffffffffffff1673ffffffffffffffffffffffffffffffffffffffff16630d25320c6040518163ffffffff1660e01b815260040160206040518083038186803b15801561076757600080fd5b505afa15801561077b573d6000803e3d6000fd5b505050506040513d601f19601f8201168201806040525081019061079f9190614bde565b828203146107e2576040517f08c379a00000000000000000000000000000000000000000000000000000000081526004016107d990615547565b60405180910390fd5b602d60003373ffffffffffffffffffffffffffffffffffffffff1673ffffffffffffffffffffffffffffffffffffffff16815260200190815260200160002060009054906101000a900473ffffffffffffffffffffffffffffffffffffffff1673ffffffffffffffffffffffffffffffffffffffff16630e4f7f366040518163ffffffff1660e01b8152600401600060405180830381600087803b15801561088957600080fd5b505af115801561089d573d6000803e3d6000fd5b50505050600260009054906101000a900473ffffffffffffffffffffffffffffffffffffffff1673ffffffffffffffffffffffffffffffffffffffff16630d25320c6040518163ffffffff1660e01b815260040160206040518083038186803b15801561090957600080fd5b505afa15801561091d573d6000803e3d6000fd5b505050506040513d601f19601f820116820180604052508101906109419190614bde565b600202602d60003373ffffffffffffffffffffffffffffffffffffffff1673ffffffffffffffffffffffffffffffffffffffff16815260200190815260200160002060009054906101000a900473ffffffffffffffffffffffffffffffffffffffff1673ffffffffffffffffffffffffffffffffffffffff16630776d118306040518263ffffffff1660e01b81526004016109dc9190615367565b602060405180830381600087803b1580156109f657600080fd5b505af1158015610a0a573d6000803e3d6000fd5b505050506040513d601f19601f82011682018060405250810190610a2e9190614bde565b14610a6e576040517f08c379a0000000000000000000000000000000000000000000000000000000008152600401610a6590615567565b60405180910390fd5b602c60003373ffffffffffffffffffffffffffffffffffffffff1673ffffffffffffffffffffffffffffffffffffffff16815260200190815260200160002060006002815260200190815260200160002060009054906101000a900460ff16610bcc576001602c60003373ffffffffffffffffffffffffffffffffffffffff1673ffffffffffffffffffffffffffffffffffffffff16815260200190815260200160002060006002815260200190815260200160002060006101000a81548160ff021916908315150217905550600160009054906101000a900473ffffffffffffffffffffffffffffffffffffffff1673ffffffffffffffffffffffffffffffffffffffff1663158a49883360026040518363ffffffff1660e01b8152600401610b999291906153fd565b600060405180830381600087803b158015610bb357600080fd5b505af1158015610bc7573d6000803e3d6000fd5b505050505b5050565b602e60008273ffffffffffffffffffffffffffffffffffffffff1673ffffffffffffffffffffffffffffffffffffffff16815260200190815260200160002060009054906101000a900460ff1615610c2757600080fd5b80602d60003373ffffffffffffffffffffffffffffffffffffffff1673ffffffffffffffffffffffffffffffffffffffff16815260200190815260200160002060006101000a81548173ffffffffffffffffffffffffffffffffffffffff021916908373ffffffffffffffffffffffffffffffffffffffff1602179055506001602e60008373ffffffffffffffffffffffffffffffffffffffff1673ffffffffffffffffffffffffffffffffffffffff16815260200190815260200160002060006101000a81548160ff021916908315150217905550602c60003373ffffffffffffffffffffffffffffffffffffffff1673ffffffffffffffffffffffffffffffffffffffff168152602001908152602001600020600080815260200190815260200160002060009054906101000a900460ff16610e59576001602c60003373ffffffffffffffffffffffffffffffffffffffff1673ffffffffffffffffffffffffffffffffffffffff168152602001908152602001600020600080815260200190815260200160002060006101000a81548160ff021916908315150217905550600160009054906101000a900473ffffffffffffffffffffffffffffffffffffffff1673ffffffffffffffffffffffffffffffffffffffff1663158a49883360016040518363ffffffff1660e01b8152600401610e269291906153d4565b600060405180830381600087803b158015610e4057600080fd5b505af1158015610e54573d6000803e3d6000fd5b505050505b50565b602c6020528160005260406000206020528060005260406000206000915091509054906101000a900460ff1681565b602b5481565b602c60003373ffffffffffffffffffffffffffffffffffffffff1673ffffffffffffffffffffffffffffffffffffffff168152602001908152602001600020600080815260200190815260200160002060009054906101000a900460ff16610f2e576040517f08c379a0000000000000000000000000000000000000000000000000000000008152600401610f2590615667565b60405180910390fd5b6000606490506000600260009054906101000a900473ffffffffffffffffffffffffffffffffffffffff1673ffffffffffffffffffffffffffffffffffffffff166370a08231602d60003373ffffffffffffffffffffffffffffffffffffffff1673ffffffffffffffffffffffffffffffffffffffff16815260200190815260200160002060009054906101000a900473ffffffffffffffffffffffffffffffffffffffff166040518263ffffffff1660e01b8152600401610ff0919061534c565b60206040518083038186803b15801561100857600080fd5b505afa15801561101c573d6000803e3d6000fd5b505050506040513d601f19601f820116820180604052508101906110409190614bde565b90506000600260009054906101000a900473ffffffffffffffffffffffffffffffffffffffff1673ffffffffffffffffffffffffffffffffffffffff166370a08231306040518263ffffffff1660e01b815260040161109f9190615367565b60206040518083038186803b1580156110b757600080fd5b505afa1580156110cb573d6000803e3d6000fd5b505050506040513d601f19601f820116820180604052508101906110ef9190614bde565b90506000602d60003373ffffffffffffffffffffffffffffffffffffffff1673ffffffffffffffffffffffffffffffffffffffff16815260200190815260200160002060009054906101000a900473ffffffffffffffffffffffffffffffffffffffff1673ffffffffffffffffffffffffffffffffffffffff16630776d118306040518263ffffffff1660e01b815260040161118b9190615367565b602060405180830381600087803b1580156111a557600080fd5b505af11580156111b9573d6000803e3d6000fd5b505050506040513d601f19601f820116820180604052508101906111dd9190614bde565b905083821015611222576040517f08c379a000000000000000000000000000000000000000000000000000000000815260040161121990615607565b60405180910390fd5b600260009054906101000a900473ffffffffffffffffffffffffffffffffffffffff1673ffffffffffffffffffffffffffffffffffffffff166339509351602d60003373ffffffffffffffffffffffffffffffffffffffff1673ffffffffffffffffffffffffffffffffffffffff16815260200190815260200160002060009054906101000a900473ffffffffffffffffffffffffffffffffffffffff16866040518363ffffffff1660e01b81526004016112de929190615426565b602060405180830381600087803b1580156112f857600080fd5b505af115801561130c573d6000803e3d6000fd5b505050506040513d601f19601f820116820180604052508101906113309190614b63565b50602d60003373ffffffffffffffffffffffffffffffffffffffff1673ffffffffffffffffffffffffffffffffffffffff16815260200190815260200160002060009054906101000a900473ffffffffffffffffffffffffffffffffffffffff1673ffffffffffffffffffffffffffffffffffffffff1663dd49756e856040518263ffffffff1660e01b81526004016113c991906156e7565b602060405180830381600087803b1580156113e357600080fd5b505af11580156113f7573d6000803e3d6000fd5b505050506040513d601f19601f8201168201806040525081019061141b9190614bde565b506000600260009054906101000a900473ffffffffffffffffffffffffffffffffffffffff1673ffffffffffffffffffffffffffffffffffffffff166370a08231602d60003373ffffffffffffffffffffffffffffffffffffffff1673ffffffffffffffffffffffffffffffffffffffff16815260200190815260200160002060009054906101000a900473ffffffffffffffffffffffffffffffffffffffff166040518263ffffffff1660e01b81526004016114d8919061534c565b60206040518083038186803b1580156114f057600080fd5b505afa158015611504573d6000803e3d6000fd5b505050506040513d601f19601f820116820180604052508101906115289190614bde565b90506000600260009054906101000a900473ffffffffffffffffffffffffffffffffffffffff1673ffffffffffffffffffffffffffffffffffffffff166370a08231306040518263ffffffff1660e01b81526004016115879190615367565b60206040518083038186803b15801561159f57600080fd5b505afa1580156115b3573d6000803e3d6000fd5b505050506040513d601f19601f820116820180604052508101906115d79190614bde565b90506000602d60003373ffffffffffffffffffffffffffffffffffffffff1673ffffffffffffffffffffffffffffffffffffffff16815260200190815260200160002060009054906101000a900473ffffffffffffffffffffffffffffffffffffffff1673ffffffffffffffffffffffffffffffffffffffff16630776d118306040518263ffffffff1660e01b81526004016116739190615367565b602060405180830381600087803b15801561168d57600080fd5b505af11580156116a1573d6000803e3d6000fd5b505050506040513d601f19601f820116820180604052508101906116c59190614bde565b9050868684031461170b576040517f08c379a000000000000000000000000000000000000000000000000000000000815260040161170290615507565b60405180910390fd5b868286031461174f576040517f08c379a0000000000000000000000000000000000000000000000000000000008152600401611746906154c7565b60405180910390fd5b8684820314611793576040517f08c379a000000000000000000000000000000000000000000000000000000000815260040161178a906156c7565b60405180910390fd5b602c60003373ffffffffffffffffffffffffffffffffffffffff1673ffffffffffffffffffffffffffffffffffffffff16815260200190815260200160002060006006815260200190815260200160002060009054906101000a900460ff166118f1576001602c60003373ffffffffffffffffffffffffffffffffffffffff1673ffffffffffffffffffffffffffffffffffffffff16815260200190815260200160002060006006815260200190815260200160002060006101000a81548160ff021916908315150217905550600160009054906101000a900473ffffffffffffffffffffffffffffffffffffffff1673ffffffffffffffffffffffffffffffffffffffff1663158a49883360026040518363ffffffff1660e01b81526004016118be9291906153fd565b600060405180830381600087803b1580156118d857600080fd5b505af11580156118ec573d6000803e3d6000fd5b505050505b50505050505050565b602c60003373ffffffffffffffffffffffffffffffffffffffff1673ffffffffffffffffffffffffffffffffffffffff168152602001908152602001600020600080815260200190815260200160002060009054906101000a900460ff16611997576040517f08c379a000000000000000000000000000000000000000000000000000000000815260040161198e90615667565b60405180910390fd5b6000602d60003373ffffffffffffffffffffffffffffffffffffffff1673ffffffffffffffffffffffffffffffffffffffff16815260200190815260200160002060009054906101000a900473ffffffffffffffffffffffffffffffffffffffff1673ffffffffffffffffffffffffffffffffffffffff166319fa44cd6040518163ffffffff1660e01b8152600401602060405180830381600087803b158015611a4057600080fd5b505af1158015611a54573d6000803e3d6000fd5b505050506040513d601f19601f82011682018060405250810190611a789190614afe565b905060008190508073ffffffffffffffffffffffffffffffffffffffff1663aa271e1a602d60003373ffffffffffffffffffffffffffffffffffffffff1673ffffffffffffffffffffffffffffffffffffffff16815260200190815260200160002060009054906101000a900473ffffffffffffffffffffffffffffffffffffffff166040518263ffffffff1660e01b8152600401611b17919061534c565b602060405180830381600087803b158015611b3157600080fd5b505af1158015611b45573d6000803e3d6000fd5b505050506040513d601f19601f82011682018060405250810190611b699190614b63565b611ba8576040517f08c379a0000000000000000000000000000000000000000000000000000000008152600401611b9f906154a7565b60405180910390fd5b8073ffffffffffffffffffffffffffffffffffffffff1663aa271e1a306040518263ffffffff1660e01b8152600401611be19190615367565b602060405180830381600087803b158015611bfb57600080fd5b505af1158015611c0f573d6000803e3d6000fd5b505050506040513d601f19601f82011682018060405250810190611c339190614b63565b15611c73576040517f08c379a0000000000000000000000000000000000000000000000000000000008152600401611c6a90615527565b60405180910390fd5b60008173ffffffffffffffffffffffffffffffffffffffff166340c10f19306127106040518363ffffffff1660e01b8152600401611cb29291906153ab565b600060405180830381600087803b158015611ccc57600080fd5b505af1925050508015611cdd575060015b611cea5760009050611cef565b600190505b8015611d30576040517f08c379a0000000000000000000000000000000000000000000000000000000008152600401611d27906155e7565b60405180910390fd5b602c60003373ffffffffffffffffffffffffffffffffffffffff1673ffffffffffffffffffffffffffffffffffffffff16815260200190815260200160002060006007815260200190815260200160002060009054906101000a900460ff16611e8e576001602c60003373ffffffffffffffffffffffffffffffffffffffff1673ffffffffffffffffffffffffffffffffffffffff16815260200190815260200160002060006007815260200190815260200160002060006101000a81548160ff021916908315150217905550600160009054906101000a900473ffffffffffffffffffffffffffffffffffffffff1673ffffffffffffffffffffffffffffffffffffffff1663158a49883360026040518363ffffffff1660e01b8152600401611e5b9291906153fd565b600060405180830381600087803b158015611e7557600080fd5b505af1158015611e89573d6000803e3d6000fd5b505050505b505050565b602c60003373ffffffffffffffffffffffffffffffffffffffff1673ffffffffffffffffffffffffffffffffffffffff168152602001908152602001600020600080815260200190815260200160002060009054906101000a900460ff16611f30576040517f08c379a0000000000000000000000000000000000000000000000000000000008152600401611f2790615667565b60405180910390fd5b6000600260009054906101000a900473ffffffffffffffffffffffffffffffffffffffff1673ffffffffffffffffffffffffffffffffffffffff166370a08231602d60003373ffffffffffffffffffffffffffffffffffffffff1673ffffffffffffffffffffffffffffffffffffffff16815260200190815260200160002060009054906101000a900473ffffffffffffffffffffffffffffffffffffffff166040518263ffffffff1660e01b8152600401611fec919061534c565b60206040518083038186803b15801561200457600080fd5b505afa158015612018573d6000803e3d6000fd5b505050506040513d601f19601f8201168201806040525081019061203c9190614bde565b90506000600260009054906101000a900473ffffffffffffffffffffffffffffffffffffffff1673ffffffffffffffffffffffffffffffffffffffff166370a08231306040518263ffffffff1660e01b815260040161209b9190615367565b60206040518083038186803b1580156120b357600080fd5b505afa1580156120c7573d6000803e3d6000fd5b505050506040513d601f19601f820116820180604052508101906120eb9190614bde565b90506000602d60003373ffffffffffffffffffffffffffffffffffffffff1673ffffffffffffffffffffffffffffffffffffffff16815260200190815260200160002060009054906101000a900473ffffffffffffffffffffffffffffffffffffffff1673ffffffffffffffffffffffffffffffffffffffff166319fa44cd6040518163ffffffff1660e01b8152600401602060405180830381600087803b15801561219657600080fd5b505af11580156121aa573d6000803e3d6000fd5b505050506040513d601f19601f820116820180604052508101906121ce9190614afe565b9050600081905060008173ffffffffffffffffffffffffffffffffffffffff166370a08231306040518263ffffffff1660e01b81526004016122109190615367565b60206040518083038186803b15801561222857600080fd5b505afa15801561223c573d6000803e3d6000fd5b505050506040513d601f19601f820116820180604052508101906122609190614bde565b905060008273ffffffffffffffffffffffffffffffffffffffff166318160ddd6040518163ffffffff1660e01b815260040160206040518083038186803b1580156122aa57600080fd5b505afa1580156122be573d6000803e3d6000fd5b505050506040513d601f19601f820116820180604052508101906122e29190614bde565b9050602d60003373ffffffffffffffffffffffffffffffffffffffff1673ffffffffffffffffffffffffffffffffffffffff16815260200190815260200160002060009054906101000a900473ffffffffffffffffffffffffffffffffffffffff1673ffffffffffffffffffffffffffffffffffffffff1663315a095d836040518263ffffffff1660e01b815260040161237c91906156e7565b602060405180830381600087803b15801561239657600080fd5b505af11580156123aa573d6000803e3d6000fd5b505050506040513d601f19601f820116820180604052508101906123ce9190614bde565b506000600260009054906101000a900473ffffffffffffffffffffffffffffffffffffffff1673ffffffffffffffffffffffffffffffffffffffff166370a08231602d60003373ffffffffffffffffffffffffffffffffffffffff1673ffffffffffffffffffffffffffffffffffffffff16815260200190815260200160002060009054906101000a900473ffffffffffffffffffffffffffffffffffffffff166040518263ffffffff1660e01b815260040161248b919061534c565b60206040518083038186803b1580156124a357600080fd5b505afa1580156124b7573d6000803e3d6000fd5b505050506040513d601f19601f820116820180604052508101906124db9190614bde565b90506000600260009054906101000a900473ffffffffffffffffffffffffffffffffffffffff1673ffffffffffffffffffffffffffffffffffffffff166370a08231306040518263ffffffff1660e01b815260040161253a9190615367565b60206040518083038186803b15801561255257600080fd5b505afa158015612566573d6000803e3d6000fd5b505050506040513d601f19601f8201168201806040525081019061258a9190614bde565b905060008573ffffffffffffffffffffffffffffffffffffffff166370a08231306040518263ffffffff1660e01b81526004016125c79190615367565b60206040518083038186803b1580156125df57600080fd5b505afa1580156125f3573d6000803e3d6000fd5b505050506040513d601f19601f820116820180604052508101906126179190614bde565b905060008673ffffffffffffffffffffffffffffffffffffffff166318160ddd6040518163ffffffff1660e01b815260040160206040518083038186803b15801561266157600080fd5b505afa158015612675573d6000803e3d6000fd5b505050506040513d601f19601f820116820180604052508101906126999190614bde565b905085848b03146126df576040517f08c379a00000000000000000000000000000000000000000000000000000000081526004016126d690615507565b60405180910390fd5b8589840314612723576040517f08c379a000000000000000000000000000000000000000000000000000000000815260040161271a906154c7565b60405180910390fd5b60008214612766576040517f08c379a000000000000000000000000000000000000000000000000000000000815260040161275d90615687565b60405180910390fd5b85818603146127aa576040517f08c379a00000000000000000000000000000000000000000000000000000000081526004016127a1906154e7565b60405180910390fd5b602c60003373ffffffffffffffffffffffffffffffffffffffff1673ffffffffffffffffffffffffffffffffffffffff16815260200190815260200160002060006009815260200190815260200160002060009054906101000a900460ff16612908576001602c60003373ffffffffffffffffffffffffffffffffffffffff1673ffffffffffffffffffffffffffffffffffffffff16815260200190815260200160002060006009815260200190815260200160002060006101000a81548160ff021916908315150217905550600160009054906101000a900473ffffffffffffffffffffffffffffffffffffffff1673ffffffffffffffffffffffffffffffffffffffff1663158a49883360026040518363ffffffff1660e01b81526004016128d59291906153fd565b600060405180830381600087803b1580156128ef57600080fd5b505af1158015612903573d6000803e3d6000fd5b505050505b50505050505050505050565b602c60003373ffffffffffffffffffffffffffffffffffffffff1673ffffffffffffffffffffffffffffffffffffffff168152602001908152602001600020600080815260200190815260200160002060009054906101000a900460ff166129b1576040517f08c379a00000000000000000000000000000000000000000000000000000000081526004016129a890615667565b60405180910390fd5b6000600260009054906101000a900473ffffffffffffffffffffffffffffffffffffffff1673ffffffffffffffffffffffffffffffffffffffff1663dd62ed3e33602d60003373ffffffffffffffffffffffffffffffffffffffff1673ffffffffffffffffffffffffffffffffffffffff16815260200190815260200160002060009054906101000a900473ffffffffffffffffffffffffffffffffffffffff166040518363ffffffff1660e01b8152600401612a6f929190615382565b60206040518083038186803b158015612a8757600080fd5b505afa158015612a9b573d6000803e3d6000fd5b505050506040513d601f19601f82011682018060405250810190612abf9190614bde565b14612aff576040517f08c379a0000000000000000000000000000000000000000000000000000000008152600401612af6906155a7565b60405180910390fd5b602c60003373ffffffffffffffffffffffffffffffffffffffff1673ffffffffffffffffffffffffffffffffffffffff16815260200190815260200160002060006005815260200190815260200160002060009054906101000a900460ff16612c5d576001602c60003373ffffffffffffffffffffffffffffffffffffffff1673ffffffffffffffffffffffffffffffffffffffff16815260200190815260200160002060006005815260200190815260200160002060006101000a81548160ff021916908315150217905550600160009054906101000a900473ffffffffffffffffffffffffffffffffffffffff1673ffffffffffffffffffffffffffffffffffffffff1663158a49883360016040518363ffffffff1660e01b8152600401612c2a9291906153d4565b600060405180830381600087803b158015612c4457600080fd5b505af1158015612c58573d6000803e3d6000fd5b505050505b565b606060005b60208160ff16108015612caf5750600060f81b838260ff1660208110612c8657fe5b1a60f81b7effffffffffffffffffffffffffffffffffffffffffffffffffffffffffffff191614155b15612cc1578080600101915050612c64565b60008160ff1667ffffffffffffffff81118015612cdd57600080fd5b506040519080825280601f01601f191660200182016040528015612d105781602001600182028036833780820191505090505b509050600091505b60208260ff16108015612d635750600060f81b848360ff1660208110612d3a57fe5b1a60f81b7effffffffffffffffffffffffffffffffffffffffffffffffffffffffffffff191614155b15612dc657838260ff1660208110612d7757fe5b1a60f81b818360ff1681518110612d8a57fe5b60200101907effffffffffffffffffffffffffffffffffffffffffffffffffffffffffffff1916908160001a9053508180600101925050612d18565b8092505050919050565b602c60003373ffffffffffffffffffffffffffffffffffffffff1673ffffffffffffffffffffffffffffffffffffffff168152602001908152602001600020600080815260200190815260200160002060009054906101000a900460ff16612e6d576040517f08c379a0000000000000000000000000000000000000000000000000000000008152600401612e6490615667565b60405180910390fd5b6000600260009054906101000a900473ffffffffffffffffffffffffffffffffffffffff1673ffffffffffffffffffffffffffffffffffffffff166370a08231602d60003373ffffffffffffffffffffffffffffffffffffffff1673ffffffffffffffffffffffffffffffffffffffff16815260200190815260200160002060009054906101000a900473ffffffffffffffffffffffffffffffffffffffff166040518263ffffffff1660e01b8152600401612f29919061534c565b60206040518083038186803b158015612f4157600080fd5b505afa158015612f55573d6000803e3d6000fd5b505050506040513d601f19601f82011682018060405250810190612f799190614bde565b90506000600260009054906101000a900473ffffffffffffffffffffffffffffffffffffffff1673ffffffffffffffffffffffffffffffffffffffff166370a08231306040518263ffffffff1660e01b8152600401612fd89190615367565b60206040518083038186803b158015612ff057600080fd5b505afa158015613004573d6000803e3d6000fd5b505050506040513d601f19601f820116820180604052508101906130289190614bde565b90506000602d60003373ffffffffffffffffffffffffffffffffffffffff1673ffffffffffffffffffffffffffffffffffffffff16815260200190815260200160002060009054906101000a900473ffffffffffffffffffffffffffffffffffffffff1673ffffffffffffffffffffffffffffffffffffffff16630776d118306040518263ffffffff1660e01b81526004016130c49190615367565b602060405180830381600087803b1580156130de57600080fd5b505af11580156130f2573d6000803e3d6000fd5b505050506040513d601f19601f820116820180604052508101906131169190614bde565b9050602d60003373ffffffffffffffffffffffffffffffffffffffff1673ffffffffffffffffffffffffffffffffffffffff16815260200190815260200160002060009054906101000a900473ffffffffffffffffffffffffffffffffffffffff1673ffffffffffffffffffffffffffffffffffffffff1663315a095d826040518263ffffffff1660e01b81526004016131b091906156e7565b602060405180830381600087803b1580156131ca57600080fd5b505af11580156131de573d6000803e3d6000fd5b505050506040513d601f19601f820116820180604052508101906132029190614bde565b506000600260009054906101000a900473ffffffffffffffffffffffffffffffffffffffff1673ffffffffffffffffffffffffffffffffffffffff166370a08231602d60003373ffffffffffffffffffffffffffffffffffffffff1673ffffffffffffffffffffffffffffffffffffffff16815260200190815260200160002060009054906101000a900473ffffffffffffffffffffffffffffffffffffffff166040518263ffffffff1660e01b81526004016132bf919061534c565b60206040518083038186803b1580156132d757600080fd5b505afa1580156132eb573d6000803e3d6000fd5b505050506040513d601f19601f8201168201806040525081019061330f9190614bde565b90506000600260009054906101000a900473ffffffffffffffffffffffffffffffffffffffff1673ffffffffffffffffffffffffffffffffffffffff166370a08231306040518263ffffffff1660e01b815260040161336e9190615367565b60206040518083038186803b15801561338657600080fd5b505afa15801561339a573d6000803e3d6000fd5b505050506040513d601f19601f820116820180604052508101906133be9190614bde565b90506000602d60003373ffffffffffffffffffffffffffffffffffffffff1673ffffffffffffffffffffffffffffffffffffffff16815260200190815260200160002060009054906101000a900473ffffffffffffffffffffffffffffffffffffffff1673ffffffffffffffffffffffffffffffffffffffff16630776d118306040518263ffffffff1660e01b815260040161345a9190615367565b602060405180830381600087803b15801561347457600080fd5b505af1158015613488573d6000803e3d6000fd5b505050506040513d601f19601f820116820180604052508101906134ac9190614bde565b905083838703146134f2576040517f08c379a00000000000000000000000000000000000000000000000000000000081526004016134e990615507565b60405180910390fd5b8385830314613536576040517f08c379a000000000000000000000000000000000000000000000000000000000815260040161352d906154c7565b60405180910390fd5b60008114613579576040517f08c379a000000000000000000000000000000000000000000000000000000000815260040161357090615587565b60405180910390fd5b602c60003373ffffffffffffffffffffffffffffffffffffffff1673ffffffffffffffffffffffffffffffffffffffff16815260200190815260200160002060006003815260200190815260200160002060009054906101000a900460ff166136d7576001602c60003373ffffffffffffffffffffffffffffffffffffffff1673ffffffffffffffffffffffffffffffffffffffff16815260200190815260200160002060006003815260200190815260200160002060006101000a81548160ff021916908315150217905550600160009054906101000a900473ffffffffffffffffffffffffffffffffffffffff1673ffffffffffffffffffffffffffffffffffffffff1663158a49883360026040518363ffffffff1660e01b81526004016136a49291906153fd565b600060405180830381600087803b1580156136be57600080fd5b505af11580156136d2573d6000803e3d6000fd5b505050505b505050505050565b6000600260009054906101000a900473ffffffffffffffffffffffffffffffffffffffff1673ffffffffffffffffffffffffffffffffffffffff166370a08231336040518263ffffffff1660e01b815260040161373c9190615367565b60206040518083038186803b15801561375457600080fd5b505afa158015613768573d6000803e3d6000fd5b505050506040513d601f19601f8201168201806040525081019061378c9190614bde565b116137cc576040517f08c379a00000000000000000000000000000000000000000000000000000000081526004016137c390615627565b60405180910390fd5b602c60003373ffffffffffffffffffffffffffffffffffffffff1673ffffffffffffffffffffffffffffffffffffffff16815260200190815260200160002060006001815260200190815260200160002060009054906101000a900460ff16613ada576001602c60003373ffffffffffffffffffffffffffffffffffffffff1673ffffffffffffffffffffffffffffffffffffffff16815260200190815260200160002060006001815260200190815260200160002060006101000a81548160ff021916908315150217905550600160009054906101000a900473ffffffffffffffffffffffffffffffffffffffff1673ffffffffffffffffffffffffffffffffffffffff1663158a49883360016040518363ffffffff1660e01b81526004016138f79291906153d4565b600060405180830381600087803b15801561391157600080fd5b505af1158015613925573d6000803e3d6000fd5b50505050600160009054906101000a900473ffffffffffffffffffffffffffffffffffffffff1673ffffffffffffffffffffffffffffffffffffffff1663158a49883360016040518363ffffffff1660e01b81526004016139879291906153d4565b600060405180830381600087803b1580156139a157600080fd5b505af11580156139b5573d6000803e3d6000fd5b50505050600160009054906101000a900473ffffffffffffffffffffffffffffffffffffffff1673ffffffffffffffffffffffffffffffffffffffff1663158a49883360016040518363ffffffff1660e01b8152600401613a179291906153d4565b600060405180830381600087803b158015613a3157600080fd5b505af1158015613a45573d6000803e3d6000fd5b50505050600160009054906101000a900473ffffffffffffffffffffffffffffffffffffffff1673ffffffffffffffffffffffffffffffffffffffff1663158a49883360026040518363ffffffff1660e01b8152600401613aa79291906153fd565b600060405180830381600087803b158015613ac157600080fd5b505af1158015613ad5573d6000803e3d6000fd5b505050505b565b602c60003373ffffffffffffffffffffffffffffffffffffffff1673ffffffffffffffffffffffffffffffffffffffff168152602001908152602001600020600080815260200190815260200160002060009054906101000a900460ff16613b79576040517f08c379a0000000000000000000000000000000000000000000000000000000008152600401613b7090615667565b60405180910390fd5b6000600260009054906101000a900473ffffffffffffffffffffffffffffffffffffffff1673ffffffffffffffffffffffffffffffffffffffff1663dd62ed3e33602d60003373ffffffffffffffffffffffffffffffffffffffff1673ffffffffffffffffffffffffffffffffffffffff16815260200190815260200160002060009054906101000a900473ffffffffffffffffffffffffffffffffffffffff166040518363ffffffff1660e01b8152600401613c37929190615382565b60206040518083038186803b158015613c4f57600080fd5b505afa158015613c63573d6000803e3d6000fd5b505050506040513d601f19601f82011682018060405250810190613c879190614bde565b11613cc7576040517f08c379a0000000000000000000000000000000000000000000000000000000008152600401613cbe90615647565b60405180910390fd5b602c60003373ffffffffffffffffffffffffffffffffffffffff1673ffffffffffffffffffffffffffffffffffffffff16815260200190815260200160002060006004815260200190815260200160002060009054906101000a900460ff16613e25576001602c60003373ffffffffffffffffffffffffffffffffffffffff1673ffffffffffffffffffffffffffffffffffffffff16815260200190815260200160002060006004815260200190815260200160002060006101000a81548160ff021916908315150217905550600160009054906101000a900473ffffffffffffffffffffffffffffffffffffffff1673ffffffffffffffffffffffffffffffffffffffff1663158a49883360016040518363ffffffff1660e01b8152600401613df29291906153d4565b600060405180830381600087803b158015613e0c57600080fd5b505af1158015613e20573d6000803e3d6000fd5b505050505b565b602c60003373ffffffffffffffffffffffffffffffffffffffff1673ffffffffffffffffffffffffffffffffffffffff168152602001908152602001600020600080815260200190815260200160002060009054906101000a900460ff16613ec4576040517f08c379a0000000000000000000000000000000000000000000000000000000008152600401613ebb90615667565b60405180910390fd5b6000606490506000600260009054906101000a900473ffffffffffffffffffffffffffffffffffffffff1673ffffffffffffffffffffffffffffffffffffffff166370a08231602d60003373ffffffffffffffffffffffffffffffffffffffff1673ffffffffffffffffffffffffffffffffffffffff16815260200190815260200160002060009054906101000a900473ffffffffffffffffffffffffffffffffffffffff166040518263ffffffff1660e01b8152600401613f86919061534c565b60206040518083038186803b158015613f9e57600080fd5b505afa158015613fb2573d6000803e3d6000fd5b505050506040513d601f19601f82011682018060405250810190613fd69190614bde565b90506000600260009054906101000a900473ffffffffffffffffffffffffffffffffffffffff1673ffffffffffffffffffffffffffffffffffffffff166370a08231306040518263ffffffff1660e01b81526004016140359190615367565b60206040518083038186803b15801561404d57600080fd5b505afa158015614061573d6000803e3d6000fd5b505050506040513d601f19601f820116820180604052508101906140859190614bde565b90506000602d60003373ffffffffffffffffffffffffffffffffffffffff1673ffffffffffffffffffffffffffffffffffffffff16815260200190815260200160002060009054906101000a900473ffffffffffffffffffffffffffffffffffffffff1673ffffffffffffffffffffffffffffffffffffffff166319fa44cd6040518163ffffffff1660e01b8152600401602060405180830381600087803b15801561413057600080fd5b505af1158015614144573d6000803e3d6000fd5b505050506040513d601f19601f820116820180604052508101906141689190614afe565b9050600081905060008173ffffffffffffffffffffffffffffffffffffffff166370a08231306040518263ffffffff1660e01b81526004016141aa9190615367565b60206040518083038186803b1580156141c257600080fd5b505afa1580156141d6573d6000803e3d6000fd5b505050506040513d601f19601f820116820180604052508101906141fa9190614bde565b905060008273ffffffffffffffffffffffffffffffffffffffff166318160ddd6040518163ffffffff1660e01b815260040160206040518083038186803b15801561424457600080fd5b505afa158015614258573d6000803e3d6000fd5b505050506040513d601f19601f8201168201806040525081019061427c9190614bde565b9050868510156142c1576040517f08c379a00000000000000000000000000000000000000000000000000000000081526004016142b890615607565b60405180910390fd5b600260009054906101000a900473ffffffffffffffffffffffffffffffffffffffff1673ffffffffffffffffffffffffffffffffffffffff166339509351602d60003373ffffffffffffffffffffffffffffffffffffffff1673ffffffffffffffffffffffffffffffffffffffff16815260200190815260200160002060009054906101000a900473ffffffffffffffffffffffffffffffffffffffff16896040518363ffffffff1660e01b815260040161437d929190615426565b602060405180830381600087803b15801561439757600080fd5b505af11580156143ab573d6000803e3d6000fd5b505050506040513d601f19601f820116820180604052508101906143cf9190614b63565b50602d60003373ffffffffffffffffffffffffffffffffffffffff1673ffffffffffffffffffffffffffffffffffffffff16815260200190815260200160002060009054906101000a900473ffffffffffffffffffffffffffffffffffffffff1673ffffffffffffffffffffffffffffffffffffffff1663dd49756e886040518263ffffffff1660e01b815260040161446891906156e7565b602060405180830381600087803b15801561448257600080fd5b505af1158015614496573d6000803e3d6000fd5b505050506040513d601f19601f820116820180604052508101906144ba9190614bde565b506000600260009054906101000a900473ffffffffffffffffffffffffffffffffffffffff1673ffffffffffffffffffffffffffffffffffffffff166370a08231602d60003373ffffffffffffffffffffffffffffffffffffffff1673ffffffffffffffffffffffffffffffffffffffff16815260200190815260200160002060009054906101000a900473ffffffffffffffffffffffffffffffffffffffff166040518263ffffffff1660e01b8152600401614577919061534c565b60206040518083038186803b15801561458f57600080fd5b505afa1580156145a3573d6000803e3d6000fd5b505050506040513d601f19601f820116820180604052508101906145c79190614bde565b90506000600260009054906101000a900473ffffffffffffffffffffffffffffffffffffffff1673ffffffffffffffffffffffffffffffffffffffff166370a08231306040518263ffffffff1660e01b81526004016146269190615367565b60206040518083038186803b15801561463e57600080fd5b505afa158015614652573d6000803e3d6000fd5b505050506040513d601f19601f820116820180604052508101906146769190614bde565b905060008573ffffffffffffffffffffffffffffffffffffffff166370a08231306040518263ffffffff1660e01b81526004016146b39190615367565b60206040518083038186803b1580156146cb57600080fd5b505afa1580156146df573d6000803e3d6000fd5b505050506040513d601f19601f820116820180604052508101906147039190614bde565b905060008673ffffffffffffffffffffffffffffffffffffffff166318160ddd6040518163ffffffff1660e01b815260040160206040518083038186803b15801561474d57600080fd5b505afa158015614761573d6000803e3d6000fd5b505050506040513d601f19601f820116820180604052508101906147859190614bde565b90508a8a8503146147cb576040517f08c379a00000000000000000000000000000000000000000000000000000000081526004016147c290615507565b60405180910390fd5b8a838a031461480f576040517f08c379a0000000000000000000000000000000000000000000000000000000008152600401614806906154c7565b60405180910390fd5b8a86830314614853576040517f08c379a000000000000000000000000000000000000000000000000000000000815260040161484a906155c7565b60405180910390fd5b8a85820314614897576040517f08c379a000000000000000000000000000000000000000000000000000000000815260040161488e906156a7565b60405180910390fd5b602c60003373ffffffffffffffffffffffffffffffffffffffff1673ffffffffffffffffffffffffffffffffffffffff16815260200190815260200160002060006008815260200190815260200160002060009054906101000a900460ff166149f5576001602c60003373ffffffffffffffffffffffffffffffffffffffff1673ffffffffffffffffffffffffffffffffffffffff16815260200190815260200160002060006008815260200190815260200160002060006101000a81548160ff021916908315150217905550600160009054906101000a900473ffffffffffffffffffffffffffffffffffffffff1673ffffffffffffffffffffffffffffffffffffffff1663158a49883360026040518363ffffffff1660e01b81526004016149c29291906153fd565b600060405180830381600087803b1580156149dc57600080fd5b505af11580156149f0573d6000803e3d6000fd5b505050505b5050505050505050505050565b60006020528060005260406000206000915054906101000a900460ff1681565b602e6020528060005260406000206000915054906101000a900460ff1681565b600081359050614a5181615856565b92915050565b600081519050614a6681615856565b92915050565b600081519050614a7b8161586d565b92915050565b600081359050614a9081615884565b92915050565b600081359050614aa58161589b565b92915050565b600081359050614aba816158b2565b92915050565b600081519050614acf816158b2565b92915050565b600060208284031215614ae757600080fd5b6000614af584828501614a42565b91505092915050565b600060208284031215614b1057600080fd5b6000614b1e84828501614a57565b91505092915050565b60008060408385031215614b3a57600080fd5b6000614b4885828601614a42565b9250506020614b5985828601614aab565b9150509250929050565b600060208284031215614b7557600080fd5b6000614b8384828501614a6c565b91505092915050565b600060208284031215614b9e57600080fd5b6000614bac84828501614a81565b91505092915050565b600060208284031215614bc757600080fd5b6000614bd584828501614a96565b91505092915050565b600060208284031215614bf057600080fd5b6000614bfe84828501614ac0565b91505092915050565b614c1081615782565b82525050565b614c1f8161571e565b82525050565b614c2e81615730565b82525050565b614c3d81615794565b82525050565b614c4c816157b8565b82525050565b614c5b816157ca565b82525050565b614c6a816157dc565b82525050565b6000614c7b82615702565b614c85818561570d565b9350614c95818560208601615812565b614c9e81615845565b840191505092915050565b6000614cb6601e8361570d565b91507f4578657263696365536f6c7574696f6e206973206e6f74206d696e74657200006000830152602082019050919050565b6000614cf6602b8361570d565b91507f4576616c7561746f722068617320616e20696e636f727265637420616d6f756e60008301527f74206f6620746f6b656e730000000000000000000000000000000000000000006020830152604082019050919050565b6000614d5c602f8361570d565b91507f4578657263696365536f6c7574696f6e45726332302077657265206e6f74206260008301527f75726e656420636f72726563746c7900000000000000000000000000000000006020830152604082019050919050565b6000614dc260328361570d565b91507f4578657263696365536f6c7574696f6e2068617320616e20696e636f7272656360008301527f7420616d6f756e74206f6620746f6b656e7300000000000000000000000000006020830152604082019050919050565b6000614e2860138361570d565b91507f4576616c7561746f72206973206d696e746572000000000000000000000000006000830152602082019050919050565b6000614e68602e8361570d565b91507f4e6f20636c61696d61626c6520746f6b656e73206d696e74656420746f20457860008301527f657263696365536f6c7574696f6e0000000000000000000000000000000000006020830152604082019050919050565b6000614ece602e8361570d565b91507f42616c616e6365206f662073656e646572206e6f74206b65707420696e20457860008301527f657263696365536f6c7574696f6e0000000000000000000000000000000000006020830152604082019050919050565b6000614f3460248361570d565b91507f546f6b656e73206c6566742068656c64206279204578657263696365536f6c7560008301527f74696f6e000000000000000000000000000000000000000000000000000000006020830152604082019050919050565b6000614f9a60398361570d565b91507f4578657263696365536f6c7574696f6e207374696c6c20616c6c6f776564207460008301527f6f207370656e64206d73672e73656e64657220746f6b656e73000000000000006020830152604082019050919050565b600061500060448361570d565b91507f42616c616e6365206f66204576616c7561746f72206e6f74206372656469746560008301527f6420636f72726563746c7920696e204578657263696365536f6c7574696f6e4560208301527f72633230000000000000000000000000000000000000000000000000000000006040830152606082019050919050565b600061508c601a8361570d565b91507f4576616c7561746f72207761732061626c6520746f206d696e740000000000006000830152602082019050919050565b60006150cc60258361570d565b91507f4576616c7561746f7220646f6573206e6f7420686f6c6420656e6f756768207460008301527f6f6b656e730000000000000000000000000000000000000000000000000000006020830152604082019050919050565b600061513260148361570d565b91507f53656e64657220686173206e6f20746f6b656e730000000000000000000000006000830152602082019050919050565b600061517260368361570d565b91507f4578657263696365536f6c7574696f6e206e6f20616c6c6f77656420746f207360008301527f70656e64206d73672e73656e64657220746f6b656e73000000000000000000006020830152604082019050919050565b60006151d860158361570d565b91507f4e6f20736f6c7574696f6e207375626d697474656400000000000000000000006000830152602082019050919050565b6000615218602b8361570d565b91507f546f6b656e73207374696c6c206372656469746564204578657263696365536f60008301527f6c7574696f6e45726332300000000000000000000000000000000000000000006020830152604082019050919050565b600061527e602f8361570d565b91507f4578657263696365536f6c7574696f6e45726332302077657265206e6f74206d60008301527f696e74656420636f72726563746c7900000000000000000000000000000000006020830152604082019050919050565b60006152e4603f8361570d565b91507f42616c616e6365206f66204576616c7561746f72206e6f74206372656469746560008301527f6420636f72726563746c7920696e204578657263696365536f6c7574696f6e006020830152604082019050919050565b61534681615778565b82525050565b60006020820190506153616000830184614c16565b92915050565b600060208201905061537c6000830184614c07565b92915050565b60006040820190506153976000830185614c07565b6153a46020830184614c16565b9392505050565b60006040820190506153c06000830185614c07565b6153cd6020830184614c43565b9392505050565b60006040820190506153e96000830185614c07565b6153f66020830184614c52565b9392505050565b60006040820190506154126000830185614c07565b61541f6020830184614c61565b9392505050565b600060408201905061543b6000830185614c16565b615448602083018461533d565b9392505050565b60006020820190506154646000830184614c25565b92915050565b600060208201905061547f6000830184614c34565b92915050565b6000602082019050818103600083015261549f8184614c70565b905092915050565b600060208201905081810360008301526154c081614ca9565b9050919050565b600060208201905081810360008301526154e081614ce9565b9050919050565b6000602082019050818103600083015261550081614d4f565b9050919050565b6000602082019050818103600083015261552081614db5565b9050919050565b6000602082019050818103600083015261554081614e1b565b9050919050565b6000602082019050818103600083015261556081614e5b565b9050919050565b6000602082019050818103600083015261558081614ec1565b9050919050565b600060208201905081810360008301526155a081614f27565b9050919050565b600060208201905081810360008301526155c081614f8d565b9050919050565b600060208201905081810360008301526155e081614ff3565b9050919050565b600060208201905081810360008301526156008161507f565b9050919050565b60006020820190508181036000830152615620816150bf565b9050919050565b6000602082019050818103600083015261564081615125565b9050919050565b6000602082019050818103600083015261566081615165565b9050919050565b60006020820190508181036000830152615680816151cb565b9050919050565b600060208201905081810360008301526156a08161520b565b9050919050565b600060208201905081810360008301526156c081615271565b9050919050565b600060208201905081810360008301526156e0816152d7565b9050919050565b60006020820190506156fc600083018461533d565b92915050565b600081519050919050565b600082825260208201905092915050565b600061572982615758565b9050919050565b60008115159050919050565b6000819050919050565b60006157518261571e565b9050919050565b600073ffffffffffffffffffffffffffffffffffffffff82169050919050565b6000819050919050565b600061578d826157ee565b9050919050565b600061579f826157a6565b9050919050565b60006157b182615758565b9050919050565b60006157c382615778565b9050919050565b60006157d582615778565b9050919050565b60006157e782615778565b9050919050565b60006157f982615800565b9050919050565b600061580b82615758565b9050919050565b60005b83811015615830578082015181840152602081019050615815565b8381111561583f576000848401525b50505050565b6000601f19601f8301169050919050565b61585f8161571e565b811461586a57600080fd5b50565b61587681615730565b811461588157600080fd5b50565b61588d8161573c565b811461589857600080fd5b50565b6158a481615746565b81146158af57600080fd5b50565b6158bb81615778565b81146158c657600080fd5b5056fea2646970667358221220b898b60418212cf0ddb3d8e94a33b1942eb1c1db7551d942d62fb33bf95a926564736f6c63430007060033",
  "immutableReferences": {},
  "source": "pragma solidity >=0.6.0 <0.8.0;\npragma experimental ABIEncoderV2;\n\nimport \"./ERC20TD.sol\";\nimport \"./ERC20Claimable.sol\";\nimport \"./IExerciceSolution.sol\";\nimport \"./IERC20Mintable.sol\";\n\ncontract Evaluator \n{\n\n\tmapping(address => bool) public teachers;\n\tERC20TD TDERC20;\n\tERC20Claimable claimableERC20;\n\n\tuint256[20] private randomSupplies;\n\tstring[20] private randomTickers;\n \tuint public nextValueStoreRank;\n\n\n \tmapping(address => mapping(uint256 => bool)) public exerciceProgression;\n \tmapping(address => IExerciceSolution) public studentExerciceSolution;\n \tmapping(address => bool) public hasBeenPaired;\n\n \tevent newRandomTickerAndSupply(string ticker, uint256 supply);\n \tevent constructedCorrectly(address erc20Address, address claimableERC20Address);\n\tconstructor(ERC20TD _TDERC20, ERC20Claimable _claimableERC20) \n\tpublic \n\t{\n\t\tTDERC20 = _TDERC20;\n\t\tclaimableERC20 = _claimableERC20;\n\t\temit constructedCorrectly(address(TDERC20), address(claimableERC20));\n\t}\n\n\tfallback () external payable \n\t{}\n\n\treceive () external payable \n\t{}\n\n\tfunction ex1_claimedPoints()\n\tpublic\n\t{\n\t\t// Check the user has some tokens\n\t\trequire(claimableERC20.balanceOf(msg.sender) > 0, \"Sender has no tokens\");\n\n\t\t// Crediting points\n\t\tif (!exerciceProgression[msg.sender][1])\n\t\t{\n\t\t\texerciceProgression[msg.sender][1] = true;\n\t\t\tTDERC20.distributeTokens(msg.sender, 1);\n\t\t\tTDERC20.distributeTokens(msg.sender, 1);\n\t\t\tTDERC20.distributeTokens(msg.sender, 1);\n\t\t\tTDERC20.distributeTokens(msg.sender, 2);\n\t\t}\n\t}\n\n\tfunction ex2_claimedFromContract()\n\tpublic\n\t{\n\t\t// Checking a solution was submitted\n\t\trequire(exerciceProgression[msg.sender][0], \"No solution submitted\");\n\n\t\t// Checking how many tokens ExerciceSolution holds\n\t\tuint256 solutionInitBalance = claimableERC20.balanceOf(address(studentExerciceSolution[msg.sender]));\n\n\t\t// Claiming tokens through ExerciceSolution\n\t\tstudentExerciceSolution[msg.sender].claimTokensOnBehalf();\n\n\t\t// Verifying ExerciceSolution holds tokens\n\t\tuint256 solutionEndBalance = claimableERC20.balanceOf(address(studentExerciceSolution[msg.sender]));\n\t\trequire(solutionEndBalance - solutionInitBalance == claimableERC20.distributedAmount(), \"No claimable tokens minted to ExerciceSolution\");\n\n\t\t// Verifying ExerciceSolution kept track of our balance\n\t\tstudentExerciceSolution[msg.sender].claimTokensOnBehalf();\n\t\trequire(studentExerciceSolution[msg.sender].tokensInCustody(address(this)) == 2*claimableERC20.distributedAmount(), \"Balance of sender not kept in ExerciceSolution\");\n\n\n\t\t// Crediting points\n\t\tif (!exerciceProgression[msg.sender][2])\n\t\t{\n\t\t\texerciceProgression[msg.sender][2] = true;\n\t\t\tTDERC20.distributeTokens(msg.sender, 2);\n\t\t}\n\t}\n\n\tfunction ex3_withdrawFromContract()\n\tpublic\n\t{\n\t\t// Checking a solution was submitted\n\t\trequire(exerciceProgression[msg.sender][0], \"No solution submitted\");\n\n\t\t// Checking how many tokens ExerciceSolution and Evaluator hold\n\t\tuint256 solutionInitBalance = claimableERC20.balanceOf(address(studentExerciceSolution[msg.sender]));\n\t\tuint256 selfInitBalance = claimableERC20.balanceOf(address(this));\n\t\tuint256 amountToWithdraw = studentExerciceSolution[msg.sender].tokensInCustody(address(this));\n\n\t\t// Withdraw tokens through ExerciceSolution\n\t\tstudentExerciceSolution[msg.sender].withdrawTokens(amountToWithdraw);\n\n\t\t// Verifying tokens where withdrew correctly\n\t\tuint256 solutionEndBalance = claimableERC20.balanceOf(address(studentExerciceSolution[msg.sender]));\n\t\tuint256 selfEndBalance = claimableERC20.balanceOf(address(this));\n\t\tuint256 amountLeft = studentExerciceSolution[msg.sender].tokensInCustody(address(this));\n\n\t\trequire(solutionInitBalance - solutionEndBalance== amountToWithdraw, \"ExerciceSolution has an incorrect amount of tokens\");\n\t\trequire(selfEndBalance - selfInitBalance == amountToWithdraw, \"Evaluator has an incorrect amount of tokens\");\n\t\trequire(amountLeft == 0, \"Tokens left held by ExerciceSolution\");\n\n\t\t// Crediting points\n\t\tif (!exerciceProgression[msg.sender][3])\n\t\t{\n\t\t\texerciceProgression[msg.sender][3] = true;\n\t\t\tTDERC20.distributeTokens(msg.sender, 2);\n\t\t}\n\t}\n\n\tfunction ex4_approvedExerciceSolution()\n\tpublic\n\t{\n\t\t// Checking a solution was submitted\n\t\trequire(exerciceProgression[msg.sender][0], \"No solution submitted\");\n\n\t\trequire(claimableERC20.allowance(msg.sender, address(studentExerciceSolution[msg.sender])) > 0,  \"ExerciceSolution no allowed to spend msg.sender tokens\");\n\n\t\t// Crediting points\n\t\tif (!exerciceProgression[msg.sender][4])\n\t\t{\n\t\t\texerciceProgression[msg.sender][4] = true;\n\t\t\tTDERC20.distributeTokens(msg.sender, 1);\n\t\t}\n\t}\n\n\tfunction ex5_revokedExerciceSolution()\n\tpublic\n\t{\n\t\t// Checking a solution was submitted\n\t\trequire(exerciceProgression[msg.sender][0], \"No solution submitted\");\n\n\t\trequire(claimableERC20.allowance(msg.sender, address(studentExerciceSolution[msg.sender])) == 0, \"ExerciceSolution still allowed to spend msg.sender tokens\");\n\n\t\t// Crediting points\n\t\tif (!exerciceProgression[msg.sender][5])\n\t\t{\n\t\t\texerciceProgression[msg.sender][5] = true;\n\t\t\tTDERC20.distributeTokens(msg.sender, 1);\n\t\t}\n\t}\n\n\tfunction ex6_depositTokens()\n\tpublic\n\t{\n\t\t// Checking a solution was submitted\n\t\trequire(exerciceProgression[msg.sender][0], \"No solution submitted\");\n\n\t\tuint256 amountToDeposit = 100;\n\n\t\t// Checking how many tokens ExerciceSolution and Evaluator hold\n\t\tuint256 solutionInitBalance = claimableERC20.balanceOf(address(studentExerciceSolution[msg.sender]));\n\t\tuint256 selfInitBalance = claimableERC20.balanceOf(address(this));\n\t\tuint256 amountDeposited = studentExerciceSolution[msg.sender].tokensInCustody(address(this));\n\t\trequire(selfInitBalance>= amountToDeposit, \"Evaluator does not hold enough tokens\");\n\n\t\t// Approve student solution to manipulate our tokens\n\t\tclaimableERC20.increaseAllowance(address(studentExerciceSolution[msg.sender]), amountToDeposit);\n\n\t\t// Deposit tokens in student contract\n\t\tstudentExerciceSolution[msg.sender].depositTokens(amountToDeposit);\n\n\t\t// Check balances are correct\n\t\tuint256 solutionEndBalance = claimableERC20.balanceOf(address(studentExerciceSolution[msg.sender]));\n\t\tuint256 selfEndBalance = claimableERC20.balanceOf(address(this));\n\t\tuint256 amountLeft = studentExerciceSolution[msg.sender].tokensInCustody(address(this));\n\n\t\trequire(solutionEndBalance - solutionInitBalance == amountToDeposit, \"ExerciceSolution has an incorrect amount of tokens\");\n\t\trequire(selfInitBalance - selfEndBalance == amountToDeposit, \"Evaluator has an incorrect amount of tokens\");\n\t\trequire(amountLeft - amountDeposited == amountToDeposit, \"Balance of Evaluator not credited correctly in ExerciceSolution\");\n\n\n\t\t// Crediting points\n\t\tif (!exerciceProgression[msg.sender][6])\n\t\t{\n\t\t\texerciceProgression[msg.sender][6] = true;\n\t\t\tTDERC20.distributeTokens(msg.sender, 2);\n\t\t}\n\t}\n\n\tfunction ex7_createERC20()\n\tpublic\n\t{\n\t\t// Checking a solution was submitted\n\t\trequire(exerciceProgression[msg.sender][0], \"No solution submitted\");\n\n\t\t// Get ExerciceSolutionERC20 address\n\t\taddress exerciceSolutionERC20 = studentExerciceSolution[msg.sender].getERC20DepositAddress();\n\t\tIERC20Mintable ExerciceSolutionERC20 = IERC20Mintable(exerciceSolutionERC20);\n\n\t\t// Check that ExerciceSolution is a minter to ExerciceSolutionERC20\n\t\t// Check that we are not a minter to ExerciceSolutionERC20\n\t\trequire(ExerciceSolutionERC20.isMinter(address(studentExerciceSolution[msg.sender])), \"ExerciceSolution is not minter\");\n\t\trequire(!ExerciceSolutionERC20.isMinter(address(this)), \"Evaluator is minter\");\n\n\t\t// Check that we can not mint ExerciceSolutionERC20 tokens \n\t\tbool wasMintAccepted = false;\n\t\ttry ExerciceSolutionERC20.mint(address(this), 10000)\n\t\t{\n\t\t\twasMintAccepted = true;\n        } \n        catch \n        {\n            // This is executed in case revert() was used.\n            wasMintAccepted = false;\n        }\n\n        require(!wasMintAccepted, \"Evaluator was able to mint\");\n\n\t\t// Crediting points\n\t\tif (!exerciceProgression[msg.sender][7])\n\t\t{\n\t\t\texerciceProgression[msg.sender][7] = true;\n\t\t\tTDERC20.distributeTokens(msg.sender, 2);\n\t\t}\n\t}\n\n\tfunction ex8_depositAndMint()\n\tpublic\n\t{\n\t\t// Checking a solution was submitted\n\t\trequire(exerciceProgression[msg.sender][0], \"No solution submitted\");\n\n\t\tuint256 amountToDeposit = 100;\n\n\t\t// Checking how many tokens ExerciceSolution and Evaluator hold\n\t\tuint256 solutionInitBalance = claimableERC20.balanceOf(address(studentExerciceSolution[msg.sender]));\n\t\tuint256 selfInitBalance = claimableERC20.balanceOf(address(this));\n\t\taddress exerciceSolutionERC20 = studentExerciceSolution[msg.sender].getERC20DepositAddress();\n\t\tIERC20Mintable ExerciceSolutionERC20 = IERC20Mintable(exerciceSolutionERC20);\n\t\tuint256 amountDeposited = ExerciceSolutionERC20.balanceOf(address(this));\n\t\tuint256 initWrappedTotalSupply = ExerciceSolutionERC20.totalSupply();\n\t\trequire(selfInitBalance>= amountToDeposit, \"Evaluator does not hold enough tokens\");\n\n\t\t// Approve student solution to manipulate our tokens\n\t\tclaimableERC20.increaseAllowance(address(studentExerciceSolution[msg.sender]), amountToDeposit);\n\n\t\t// Deposit tokens in student contract\n\t\tstudentExerciceSolution[msg.sender].depositTokens(amountToDeposit);\n\n\t\t// Check balances are correct\n\t\tuint256 solutionEndBalance = claimableERC20.balanceOf(address(studentExerciceSolution[msg.sender]));\n\t\tuint256 selfEndBalance = claimableERC20.balanceOf(address(this));\n\t\tuint256 amountLeft = ExerciceSolutionERC20.balanceOf(address(this));\n\t\tuint256 endWrappedTotalSupply = ExerciceSolutionERC20.totalSupply();\n\n\t\trequire(solutionEndBalance - solutionInitBalance == amountToDeposit, \"ExerciceSolution has an incorrect amount of tokens\");\n\t\trequire(selfInitBalance - selfEndBalance == amountToDeposit, \"Evaluator has an incorrect amount of tokens\");\n\t\trequire(amountLeft - amountDeposited == amountToDeposit, \"Balance of Evaluator not credited correctly in ExerciceSolutionErc20\");\n\t\trequire(endWrappedTotalSupply - initWrappedTotalSupply == amountToDeposit, \"ExerciceSolutionErc20 were not minted correctly\");\n\n\t\t// Crediting points\n\t\tif (!exerciceProgression[msg.sender][8])\n\t\t{\n\t\t\texerciceProgression[msg.sender][8] = true;\n\t\t\tTDERC20.distributeTokens(msg.sender, 2);\n\t\t}\n\t}\n\n\tfunction ex9_withdrawAndBurn()\n\tpublic\n\t{\n\t\t// Checking a solution was submitted\n\t\trequire(exerciceProgression[msg.sender][0], \"No solution submitted\");\n\n\t\t// Checking how many tokens ExerciceSolution and Evaluator hold\n\t\tuint256 solutionInitBalance = claimableERC20.balanceOf(address(studentExerciceSolution[msg.sender]));\n\t\tuint256 selfInitBalance = claimableERC20.balanceOf(address(this));\n\t\taddress exerciceSolutionERC20 = studentExerciceSolution[msg.sender].getERC20DepositAddress();\n\t\tIERC20Mintable ExerciceSolutionERC20 = IERC20Mintable(exerciceSolutionERC20);\n\t\tuint256 amountToWithdraw = ExerciceSolutionERC20.balanceOf(address(this));\n\t\tuint256 initWrappedTotalSupply = ExerciceSolutionERC20.totalSupply();\n\n\t\t// Withdraw tokens through ExerciceSolution\n\t\tstudentExerciceSolution[msg.sender].withdrawTokens(amountToWithdraw);\n\n\t\t// Verifying tokens where withdrew correctly\n\t\tuint256 solutionEndBalance = claimableERC20.balanceOf(address(studentExerciceSolution[msg.sender]));\n\t\tuint256 selfEndBalance = claimableERC20.balanceOf(address(this));\n\t\tuint256 amountLeft = ExerciceSolutionERC20.balanceOf(address(this));\n\t\tuint256 endWrappedTotalSupply = ExerciceSolutionERC20.totalSupply();\n\n\t\trequire(solutionInitBalance - solutionEndBalance== amountToWithdraw, \"ExerciceSolution has an incorrect amount of tokens\");\n\t\trequire(selfEndBalance - selfInitBalance == amountToWithdraw, \"Evaluator has an incorrect amount of tokens\");\n\t\trequire(amountLeft == 0, \"Tokens still credited ExerciceSolutionErc20\");\n\t\trequire(initWrappedTotalSupply - endWrappedTotalSupply == amountToWithdraw, \"ExerciceSolutionErc20 were not burned correctly\");\n\n\t\t// Crediting points\n\t\tif (!exerciceProgression[msg.sender][9])\n\t\t{\n\t\t\texerciceProgression[msg.sender][9] = true;\n\t\t\tTDERC20.distributeTokens(msg.sender, 2);\n\t\t}\n\t}\n\n\n\t/* Internal functions and modifiers */ \n\tfunction submitExercice(IExerciceSolution studentExercice)\n\tpublic\n\t{\n\t\t// Checking this contract was not used by another group before\n\t\trequire(!hasBeenPaired[address(studentExercice)]);\n\n\t\t// Assigning passed ERC20 as student ERC20\n\t\tstudentExerciceSolution[msg.sender] = studentExercice;\n\t\thasBeenPaired[address(studentExercice)] = true;\n\n\t\tif (!exerciceProgression[msg.sender][0])\n\t\t{\n\t\t\texerciceProgression[msg.sender][0] = true;\n\t\t\tTDERC20.distributeTokens(msg.sender, 1);\n\t\t}\n\t}\n\n\tmodifier onlyTeachers() \n\t{\n\n\t    require(TDERC20.teachers(msg.sender));\n\t    _;\n\t}\n\n\tfunction _compareStrings(string memory a, string memory b) \n\tinternal \n\tpure \n\treturns (bool) \n\t{\n    \treturn (keccak256(abi.encodePacked((a))) == keccak256(abi.encodePacked((b))));\n\t}\n\n\tfunction bytes32ToString(bytes32 _bytes32) \n\tpublic \n\tpure returns (string memory) \n\t{\n        uint8 i = 0;\n        while(i < 32 && _bytes32[i] != 0) {\n            i++;\n        }\n        bytes memory bytesArray = new bytes(i);\n        for (i = 0; i < 32 && _bytes32[i] != 0; i++) {\n            bytesArray[i] = _bytes32[i];\n        }\n        return string(bytesArray);\n    }\n\n}\n",
  "sourcePath": "/Users/lucaslevy/TD_Blockchain/TD6/contracts/Evaluator.sol",
  "compiler": {
    "name": "solc",
    "version": "0.7.6+commit.7338295f.Emscripten.clang"
  },
  "schemaVersion": "3.4.3",
  "updatedAt": "2021-11-21T22:23:33.436Z",
  "devdoc": {
    "kind": "dev",
    "methods": {},
    "version": 1
  },
  "userdoc": {
    "kind": "user",
    "methods": {},
    "version": 1
  }
}