{
  "contractName": "LazyTd",
  "abi": [
    {
      "inputs": [
        {
          "internalType": "contract ExerciceSolution",
          "name": "_exerciceSolution",
          "type": "address"
        },
        {
          "internalType": "contract ExerciceSolutionToken",
          "name": "_exerciceSolutionToken",
          "type": "address"
        },
        {
          "internalType": "contract Evaluator",
          "name": "_evaluator",
          "type": "address"
        },
        {
          "internalType": "contract ERC20Claimable",
          "name": "_erc20Claimable",
          "type": "address"
        }
      ],
      "stateMutability": "nonpayable",
      "type": "constructor"
    },
    {
      "anonymous": false,
      "inputs": [
        {
          "indexed": false,
          "internalType": "bool",
          "name": "finished",
          "type": "bool"
        }
      ],
      "name": "Finished",
      "type": "event"
    },
    {
      "inputs": [],
      "name": "erc20Claimable",
      "outputs": [
        {
          "internalType": "contract ERC20Claimable",
          "name": "",
          "type": "address"
        }
      ],
      "stateMutability": "view",
      "type": "function",
      "constant": true
    },
    {
      "inputs": [],
      "name": "evaluator",
      "outputs": [
        {
          "internalType": "contract Evaluator",
          "name": "",
          "type": "address"
        }
      ],
      "stateMutability": "view",
      "type": "function",
      "constant": true
    },
    {
      "inputs": [],
      "name": "exerciceSolution",
      "outputs": [
        {
          "internalType": "contract ExerciceSolution",
          "name": "",
          "type": "address"
        }
      ],
      "stateMutability": "view",
      "type": "function",
      "constant": true
    },
    {
      "inputs": [],
      "name": "exerciceSolutionToken",
      "outputs": [
        {
          "internalType": "contract ExerciceSolutionToken",
          "name": "",
          "type": "address"
        }
      ],
      "stateMutability": "view",
      "type": "function",
      "constant": true
    },
    {
      "inputs": [],
      "name": "executeTd",
      "outputs": [
        {
          "internalType": "bool",
          "name": "",
          "type": "bool"
        }
      ],
      "stateMutability": "nonpayable",
      "type": "function"
    }
  ],
  "bytecode": "0x608060405234801561001057600080fd5b50604051610e34380380610e348339818101604052608081101561003357600080fd5b8101908080519060200190929190805190602001909291908051906020019092919080519060200190929190505050836000806101000a81548173ffffffffffffffffffffffffffffffffffffffff021916908373ffffffffffffffffffffffffffffffffffffffff16021790555082600160006101000a81548173ffffffffffffffffffffffffffffffffffffffff021916908373ffffffffffffffffffffffffffffffffffffffff16021790555081600260006101000a81548173ffffffffffffffffffffffffffffffffffffffff021916908373ffffffffffffffffffffffffffffffffffffffff16021790555080600360006101000a81548173ffffffffffffffffffffffffffffffffffffffff021916908373ffffffffffffffffffffffffffffffffffffffff16021790555050505050610cbc806101786000396000f3fe608060405234801561001057600080fd5b50600436106100575760003560e01c806316de9caa1461005c578063434820b214610090578063614c6cf3146100c45780639cb93dd1146100f8578063d4b8c5711461012c575b600080fd5b61006461014c565b604051808273ffffffffffffffffffffffffffffffffffffffff16815260200191505060405180910390f35b610098610172565b604051808273ffffffffffffffffffffffffffffffffffffffff16815260200191505060405180910390f35b6100cc610198565b604051808273ffffffffffffffffffffffffffffffffffffffff16815260200191505060405180910390f35b6101006101bc565b604051808273ffffffffffffffffffffffffffffffffffffffff16815260200191505060405180910390f35b6101346101e2565b60405180821515815260200191505060405180910390f35b600160009054906101000a900473ffffffffffffffffffffffffffffffffffffffff1681565b600360009054906101000a900473ffffffffffffffffffffffffffffffffffffffff1681565b60008054906101000a900473ffffffffffffffffffffffffffffffffffffffff1681565b600260009054906101000a900473ffffffffffffffffffffffffffffffffffffffff1681565b6000600360009054906101000a900473ffffffffffffffffffffffffffffffffffffffff1673ffffffffffffffffffffffffffffffffffffffff166348c54b9d6040518163ffffffff1660e01b8152600401600060405180830381600087803b15801561024e57600080fd5b505af1158015610262573d6000803e3d6000fd5b50505050600160009054906101000a900473ffffffffffffffffffffffffffffffffffffffff1673ffffffffffffffffffffffffffffffffffffffff1663cf456ae760008054906101000a900473ffffffffffffffffffffffffffffffffffffffff1660016040518363ffffffff1660e01b8152600401808373ffffffffffffffffffffffffffffffffffffffff168152602001821515815260200192505050600060405180830381600087803b15801561031c57600080fd5b505af1158015610330573d6000803e3d6000fd5b50505050600160009054906101000a900473ffffffffffffffffffffffffffffffffffffffff1673ffffffffffffffffffffffffffffffffffffffff16634b6f79c760008054906101000a900473ffffffffffffffffffffffffffffffffffffffff166040518263ffffffff1660e01b8152600401808273ffffffffffffffffffffffffffffffffffffffff168152602001915050602060405180830381600087803b1580156103df57600080fd5b505af11580156103f3573d6000803e3d6000fd5b505050506040513d602081101561040957600080fd5b810190808051906020019092919050505050600260009054906101000a900473ffffffffffffffffffffffffffffffffffffffff1673ffffffffffffffffffffffffffffffffffffffff16632236d35360008054906101000a900473ffffffffffffffffffffffffffffffffffffffff166040518263ffffffff1660e01b8152600401808273ffffffffffffffffffffffffffffffffffffffff168152602001915050600060405180830381600087803b1580156104c657600080fd5b505af11580156104da573d6000803e3d6000fd5b50505050600260009054906101000a900473ffffffffffffffffffffffffffffffffffffffff1673ffffffffffffffffffffffffffffffffffffffff1663aba62af36040518163ffffffff1660e01b8152600401600060405180830381600087803b15801561054857600080fd5b505af115801561055c573d6000803e3d6000fd5b50505050600260009054906101000a900473ffffffffffffffffffffffffffffffffffffffff1673ffffffffffffffffffffffffffffffffffffffff16631e8a3ae46040518163ffffffff1660e01b8152600401600060405180830381600087803b1580156105ca57600080fd5b505af11580156105de573d6000803e3d6000fd5b50505050600260009054906101000a900473ffffffffffffffffffffffffffffffffffffffff1673ffffffffffffffffffffffffffffffffffffffff1663a38ac0246040518163ffffffff1660e01b8152600401600060405180830381600087803b15801561064c57600080fd5b505af1158015610660573d6000803e3d6000fd5b50505050600360009054906101000a900473ffffffffffffffffffffffffffffffffffffffff1673ffffffffffffffffffffffffffffffffffffffff1663095ea7b360008054906101000a900473ffffffffffffffffffffffffffffffffffffffff16620186a06040518363ffffffff1660e01b8152600401808373ffffffffffffffffffffffffffffffffffffffff16815260200182815260200192505050602060405180830381600087803b15801561071a57600080fd5b505af115801561072e573d6000803e3d6000fd5b505050506040513d602081101561074457600080fd5b810190808051906020019092919050505050600260009054906101000a900473ffffffffffffffffffffffffffffffffffffffff1673ffffffffffffffffffffffffffffffffffffffff1663af6c4d196040518163ffffffff1660e01b8152600401600060405180830381600087803b1580156107c057600080fd5b505af11580156107d4573d6000803e3d6000fd5b50505050600360009054906101000a900473ffffffffffffffffffffffffffffffffffffffff1673ffffffffffffffffffffffffffffffffffffffff1663095ea7b360008054906101000a900473ffffffffffffffffffffffffffffffffffffffff1660006040518363ffffffff1660e01b8152600401808373ffffffffffffffffffffffffffffffffffffffff16815260200182815260200192505050602060405180830381600087803b15801561088c57600080fd5b505af11580156108a0573d6000803e3d6000fd5b505050506040513d60208110156108b657600080fd5b810190808051906020019092919050505050600260009054906101000a900473ffffffffffffffffffffffffffffffffffffffff1673ffffffffffffffffffffffffffffffffffffffff1663836a10b46040518163ffffffff1660e01b8152600401600060405180830381600087803b15801561093257600080fd5b505af1158015610946573d6000803e3d6000fd5b50505050600360009054906101000a900473ffffffffffffffffffffffffffffffffffffffff1673ffffffffffffffffffffffffffffffffffffffff1663095ea7b360008054906101000a900473ffffffffffffffffffffffffffffffffffffffff166305f5e1006040518363ffffffff1660e01b8152600401808373ffffffffffffffffffffffffffffffffffffffff16815260200182815260200192505050602060405180830381600087803b158015610a0157600080fd5b505af1158015610a15573d6000803e3d6000fd5b505050506040513d6020811015610a2b57600080fd5b810190808051906020019092919050505050600260009054906101000a900473ffffffffffffffffffffffffffffffffffffffff1673ffffffffffffffffffffffffffffffffffffffff166357aecf066040518163ffffffff1660e01b8152600401600060405180830381600087803b158015610aa757600080fd5b505af1158015610abb573d6000803e3d6000fd5b50505050600260009054906101000a900473ffffffffffffffffffffffffffffffffffffffff1673ffffffffffffffffffffffffffffffffffffffff16637a1e55ec6040518163ffffffff1660e01b8152600401600060405180830381600087803b158015610b2957600080fd5b505af1158015610b3d573d6000803e3d6000fd5b50505050600260009054906101000a900473ffffffffffffffffffffffffffffffffffffffff1673ffffffffffffffffffffffffffffffffffffffff1663d48789386040518163ffffffff1660e01b8152600401600060405180830381600087803b158015610bab57600080fd5b505af1158015610bbf573d6000803e3d6000fd5b50505050600260009054906101000a900473ffffffffffffffffffffffffffffffffffffffff1673ffffffffffffffffffffffffffffffffffffffff16637aa1850c6040518163ffffffff1660e01b8152600401600060405180830381600087803b158015610c2d57600080fd5b505af1158015610c41573d6000803e3d6000fd5b505050507fe020764447e83e9d5e5f958d6d8428bace78469007f5887da3e5ef7eb408e8e8600160405180821515815260200191505060405180910390a1600190509056fea26469706673582212203fa1a4752aad18bdcc5595b7782cacd4ffeeb699f6a37787da432a14bb801c4064736f6c63430007060033",
  "immutableReferences": {},
  "source": "// SPDX-License-Identifier: MIT\npragma solidity >=0.6.0 <0.8.0;\n\nimport \"./ExerciceSolution.sol\";\nimport \"./ExerciceSolutionToken.sol\";\nimport \"./Evaluator.sol\";\nimport \"./ERC20Claimable.sol\";\n\ncontract LazyTd {\n    using SafeERC20 for ERC20Claimable;\n    using SafeMath for uint256;\n    ExerciceSolution public exerciceSolution;\n    ExerciceSolutionToken public exerciceSolutionToken;\n    Evaluator public evaluator;\n    ERC20Claimable public erc20Claimable;\n    event Finished(bool finished);\n\n\n    constructor (ExerciceSolution _exerciceSolution,\n    ExerciceSolutionToken _exerciceSolutionToken,\n    Evaluator _evaluator,\n    ERC20Claimable _erc20Claimable) public {\n        exerciceSolution = _exerciceSolution;\n        exerciceSolutionToken = _exerciceSolutionToken;\n        evaluator = _evaluator;\n        erc20Claimable = _erc20Claimable;\n    }\n\n    function executeTd() external returns(bool) {\n        erc20Claimable.claimTokens();\n        exerciceSolutionToken.setMinter(address(exerciceSolution), true);\n        exerciceSolutionToken.setExContr(address(exerciceSolution));\n        evaluator.submitExercice(exerciceSolution);\n        evaluator.ex1_claimedPoints();\n        evaluator.ex2_claimedFromContract();\n        evaluator.ex3_withdrawFromContract();\n        erc20Claimable.approve(address(exerciceSolution), 100000);\n        evaluator.ex4_approvedExerciceSolution();\n        erc20Claimable.approve(address(exerciceSolution), 0);\n        evaluator.ex5_revokedExerciceSolution();\n        erc20Claimable.approve(address(exerciceSolution), 100000000);\n        evaluator.ex6_depositTokens();\n        evaluator.ex7_createERC20();\n        evaluator.ex8_depositAndMint();\n        evaluator.ex9_withdrawAndBurn();\n        emit Finished(true);\n        return true;\n    }\n}\n",
  "sourcePath": "/Users/lucaslevy/TD_Blockchain/TD6/contracts/LazyTd.sol",
  "compiler": {
    "name": "solc",
    "version": "0.7.6+commit.7338295f.Emscripten.clang"
  },
  "schemaVersion": "3.4.3",
  "updatedAt": "2021-11-21T22:28:49.708Z",
  "networkType": "ethereum",
  "devdoc": {
    "kind": "dev",
    "methods": {},
    "version": 1
  },
  "userdoc": {
    "kind": "user",
    "methods": {},
    "version": 1
  }
}