{
  "_format": "hh-sol-artifact-1",
  "contractName": "IAave",
  "sourceName": "contracts/IAave.sol",
  "abi": [
    {
      "inputs": [
        {
          "internalType": "address",
          "name": "asset",
          "type": "address"
        },
        {
          "internalType": "uint256",
          "name": "amount",
          "type": "uint256"
        },
        {
          "internalType": "address",
          "name": "onBehalfOf",
          "type": "address"
        },
        {
          "internalType": "uint16",
          "name": "referralCode",
          "type": "uint16"
        }
      ],
      "name": "deposit",
      "outputs": [],
      "stateMutability": "nonpayable",
      "type": "function"
    }
  ],
  "bytecode": "0x6080604052348015600f57600080fd5b5060a78061001e6000396000f3fe6080604052348015600f57600080fd5b506004361060285760003560e01c8063e8eda9df14602d575b600080fd5b606960048036036080811015604157600080fd5b5080356001600160a01b0390811691602081013591604082013516906060013561ffff16606b565b005b5050505056fea26469706673582212202ab64a34362f074c45b4aadec1c0bf2ea52ecee2230a195c6fedc0c0952fed4864736f6c63430007060033",
  "linkReferences": {},
  "deployedLinkReferences": {}
}