{
  "contracts/ExerciceSolution.sol": {
    "ExerciceSolution": {
      "abi": [
        {
          "inputs": [
            {
              "internalType": "contract IERC20",
              "name": "dai_",
              "type": "address"
            },
            {
              "internalType": "contract IAave",
              "name": "AAVE_",
              "type": "address"
            }
          ],
          "stateMutability": "nonpayable",
          "type": "constructor"
        },
        {
          "inputs": [],
          "name": "AAVE",
          "outputs": [
            {
              "internalType": "contract IAave",
              "name": "",
              "type": "address"
            }
          ],
          "stateMutability": "view",
          "type": "function"
        },
        {
          "inputs": [],
          "name": "borrowSomeTokens",
          "outputs": [],
          "stateMutability": "nonpayable",
          "type": "function"
        },
        {
          "inputs": [],
          "name": "dai",
          "outputs": [
            {
              "internalType": "contract IERC20",
              "name": "",
              "type": "address"
            }
          ],
          "stateMutability": "view",
          "type": "function"
        },
        {
          "inputs": [],
          "name": "depositSomeTokens",
          "outputs": [],
          "stateMutability": "nonpayable",
          "type": "function"
        },
        {
          "inputs": [],
          "name": "doAFlashLoan",
          "outputs": [],
          "stateMutability": "nonpayable",
          "type": "function"
        },
        {
          "inputs": [],
          "name": "repayFlashLoan",
          "outputs": [],
          "stateMutability": "nonpayable",
          "type": "function"
        },
        {
          "inputs": [],
          "name": "repaySomeTokens",
          "outputs": [],
          "stateMutability": "nonpayable",
          "type": "function"
        },
        {
          "inputs": [],
          "name": "withdrawSomeTokens",
          "outputs": [],
          "stateMutability": "nonpayable",
          "type": "function"
        }
      ],
      "devdoc": {
        "kind": "dev",
        "methods": {},
        "version": 1
      },
      "evm": {
        "bytecode": {
          "linkReferences": {},
          "object": "608060405234801561001057600080fd5b5060405161028e38038061028e8339818101604052604081101561003357600080fd5b508051602090910151600080546001600160a01b039384166001600160a01b031991821617909155600180549390921692169190911790556102148061007a6000396000f3fe608060405234801561001057600080fd5b50600436106100785760003560e01c80631a231a711461007d57806348ccda3c146100875780634b5bd34f1461007d578063d871f5941461007d578063db50609f1461007d578063f4b9fa75146100ab578063f6b96bae146100b3578063fc6669b61461007d575b600080fd5b6100856100bb565b005b61008f6100bd565b604080516001600160a01b039092168252519081900360200190f35b61008f6100cc565b6100856100db565b565b6001546001600160a01b031681565b6000546001600160a01b031681565b600080546001546040805163095ea7b360e01b81526001600160a01b039283166004820152600a60248201529051919092169263095ea7b392604480820193602093909283900390910190829087803b15801561013757600080fd5b505af115801561014b573d6000803e3d6000fd5b505050506040513d602081101561016157600080fd5b505060018054600080546040805163e8eda9df60e01b81526001600160a01b0392831660048201526024810195909552306044860152606485018390525192169263e8eda9df926084808301939282900301818387803b1580156101c457600080fd5b505af11580156101d8573d6000803e3d6000fd5b5050505056fea264697066735822122015a491ae23b8014a3d12ecbfc51ff515ee5ea45248d36b46f80633557464ad5e64736f6c63430007060033",
          "opcodes": "PUSH1 0x80 PUSH1 0x40 MSTORE CALLVALUE DUP1 ISZERO PUSH2 0x10 JUMPI PUSH1 0x0 DUP1 REVERT JUMPDEST POP PUSH1 0x40 MLOAD PUSH2 0x28E CODESIZE SUB DUP1 PUSH2 0x28E DUP4 CODECOPY DUP2 DUP2 ADD PUSH1 0x40 MSTORE PUSH1 0x40 DUP2 LT ISZERO PUSH2 0x33 JUMPI PUSH1 0x0 DUP1 REVERT JUMPDEST POP DUP1 MLOAD PUSH1 0x20 SWAP1 SWAP2 ADD MLOAD PUSH1 0x0 DUP1 SLOAD PUSH1 0x1 PUSH1 0x1 PUSH1 0xA0 SHL SUB SWAP4 DUP5 AND PUSH1 0x1 PUSH1 0x1 PUSH1 0xA0 SHL SUB NOT SWAP2 DUP3 AND OR SWAP1 SWAP2 SSTORE PUSH1 0x1 DUP1 SLOAD SWAP4 SWAP1 SWAP3 AND SWAP3 AND SWAP2 SWAP1 SWAP2 OR SWAP1 SSTORE PUSH2 0x214 DUP1 PUSH2 0x7A PUSH1 0x0 CODECOPY PUSH1 0x0 RETURN INVALID PUSH1 0x80 PUSH1 0x40 MSTORE CALLVALUE DUP1 ISZERO PUSH2 0x10 JUMPI PUSH1 0x0 DUP1 REVERT JUMPDEST POP PUSH1 0x4 CALLDATASIZE LT PUSH2 0x78 JUMPI PUSH1 0x0 CALLDATALOAD PUSH1 0xE0 SHR DUP1 PUSH4 0x1A231A71 EQ PUSH2 0x7D JUMPI DUP1 PUSH4 0x48CCDA3C EQ PUSH2 0x87 JUMPI DUP1 PUSH4 0x4B5BD34F EQ PUSH2 0x7D JUMPI DUP1 PUSH4 0xD871F594 EQ PUSH2 0x7D JUMPI DUP1 PUSH4 0xDB50609F EQ PUSH2 0x7D JUMPI DUP1 PUSH4 0xF4B9FA75 EQ PUSH2 0xAB JUMPI DUP1 PUSH4 0xF6B96BAE EQ PUSH2 0xB3 JUMPI DUP1 PUSH4 0xFC6669B6 EQ PUSH2 0x7D JUMPI JUMPDEST PUSH1 0x0 DUP1 REVERT JUMPDEST PUSH2 0x85 PUSH2 0xBB JUMP JUMPDEST STOP JUMPDEST PUSH2 0x8F PUSH2 0xBD JUMP JUMPDEST PUSH1 0x40 DUP1 MLOAD PUSH1 0x1 PUSH1 0x1 PUSH1 0xA0 SHL SUB SWAP1 SWAP3 AND DUP3 MSTORE MLOAD SWAP1 DUP2 SWAP1 SUB PUSH1 0x20 ADD SWAP1 RETURN JUMPDEST PUSH2 0x8F PUSH2 0xCC JUMP JUMPDEST PUSH2 0x85 PUSH2 0xDB JUMP JUMPDEST JUMP JUMPDEST PUSH1 0x1 SLOAD PUSH1 0x1 PUSH1 0x1 PUSH1 0xA0 SHL SUB AND DUP2 JUMP JUMPDEST PUSH1 0x0 SLOAD PUSH1 0x1 PUSH1 0x1 PUSH1 0xA0 SHL SUB AND DUP2 JUMP JUMPDEST PUSH1 0x0 DUP1 SLOAD PUSH1 0x1 SLOAD PUSH1 0x40 DUP1 MLOAD PUSH4 0x95EA7B3 PUSH1 0xE0 SHL DUP2 MSTORE PUSH1 0x1 PUSH1 0x1 PUSH1 0xA0 SHL SUB SWAP3 DUP4 AND PUSH1 0x4 DUP3 ADD MSTORE PUSH1 0xA PUSH1 0x24 DUP3 ADD MSTORE SWAP1 MLOAD SWAP2 SWAP1 SWAP3 AND SWAP3 PUSH4 0x95EA7B3 SWAP3 PUSH1 0x44 DUP1 DUP3 ADD SWAP4 PUSH1 0x20 SWAP4 SWAP1 SWAP3 DUP4 SWAP1 SUB SWAP1 SWAP2 ADD SWAP1 DUP3 SWAP1 DUP8 DUP1 EXTCODESIZE ISZERO DUP1 ISZERO PUSH2 0x137 JUMPI PUSH1 0x0 DUP1 REVERT JUMPDEST POP GAS CALL ISZERO DUP1 ISZERO PUSH2 0x14B JUMPI RETURNDATASIZE PUSH1 0x0 DUP1 RETURNDATACOPY RETURNDATASIZE PUSH1 0x0 REVERT JUMPDEST POP POP POP POP PUSH1 0x40 MLOAD RETURNDATASIZE PUSH1 0x20 DUP2 LT ISZERO PUSH2 0x161 JUMPI PUSH1 0x0 DUP1 REVERT JUMPDEST POP POP PUSH1 0x1 DUP1 SLOAD PUSH1 0x0 DUP1 SLOAD PUSH1 0x40 DUP1 MLOAD PUSH4 0xE8EDA9DF PUSH1 0xE0 SHL DUP2 MSTORE PUSH1 0x1 PUSH1 0x1 PUSH1 0xA0 SHL SUB SWAP3 DUP4 AND PUSH1 0x4 DUP3 ADD MSTORE PUSH1 0x24 DUP2 ADD SWAP6 SWAP1 SWAP6 MSTORE ADDRESS PUSH1 0x44 DUP7 ADD MSTORE PUSH1 0x64 DUP6 ADD DUP4 SWAP1 MSTORE MLOAD SWAP3 AND SWAP3 PUSH4 0xE8EDA9DF SWAP3 PUSH1 0x84 DUP1 DUP4 ADD SWAP4 SWAP3 DUP3 SWAP1 SUB ADD DUP2 DUP4 DUP8 DUP1 EXTCODESIZE ISZERO DUP1 ISZERO PUSH2 0x1C4 JUMPI PUSH1 0x0 DUP1 REVERT JUMPDEST POP GAS CALL ISZERO DUP1 ISZERO PUSH2 0x1D8 JUMPI RETURNDATASIZE PUSH1 0x0 DUP1 RETURNDATACOPY RETURNDATASIZE PUSH1 0x0 REVERT JUMPDEST POP POP POP POP JUMP INVALID LOG2 PUSH5 0x6970667358 0x22 SLT KECCAK256 ISZERO LOG4 SWAP2 0xAE 0x23 0xB8 ADD 0x4A RETURNDATASIZE SLT 0xEC 0xBF 0xC5 0x1F CREATE2 ISZERO 0xEE 0x5E LOG4 MSTORE 0x48 0xD3 PUSH12 0x46F80633557464AD5E64736F PUSH13 0x63430007060033000000000000 "
        },
        "methodIdentifiers": {
          "AAVE()": "48ccda3c",
          "borrowSomeTokens()": "1a231a71",
          "dai()": "f4b9fa75",
          "depositSomeTokens()": "f6b96bae",
          "doAFlashLoan()": "d871f594",
          "repayFlashLoan()": "fc6669b6",
          "repaySomeTokens()": "4b5bd34f",
          "withdrawSomeTokens()": "db50609f"
        }
      },
      "storageLayout": {
        "storage": [
          {
            "astId": 1797,
            "contract": "contracts/ExerciceSolution.sol:ExerciceSolution",
            "label": "dai",
            "offset": 0,
            "slot": "0",
            "type": "t_contract(IERC20)935"
          },
          {
            "astId": 1799,
            "contract": "contracts/ExerciceSolution.sol:ExerciceSolution",
            "label": "AAVE",
            "offset": 0,
            "slot": "1",
            "type": "t_contract(IAave)1886"
          }
        ],
        "types": {
          "t_contract(IAave)1886": {
            "encoding": "inplace",
            "label": "contract IAave",
            "numberOfBytes": "20"
          },
          "t_contract(IERC20)935": {
            "encoding": "inplace",
            "label": "contract IERC20",
            "numberOfBytes": "20"
          }
        }
      },
      "userdoc": {
        "kind": "user",
        "methods": {},
        "version": 1
      }
    }
  }
}