{
  "contracts/IAave.sol": {
    "IAave": {
      "abi": [
        {
          "inputs": [
            {
              "internalType": "address",
              "name": "asset",
              "type": "address"
            },
            {
              "internalType": "uint256",
              "name": "amount",
              "type": "uint256"
            },
            {
              "internalType": "address",
              "name": "onBehalfOf",
              "type": "address"
            },
            {
              "internalType": "uint16",
              "name": "referralCode",
              "type": "uint16"
            }
          ],
          "name": "deposit",
          "outputs": [],
          "stateMutability": "nonpayable",
          "type": "function"
        }
      ],
      "devdoc": {
        "kind": "dev",
        "methods": {},
        "version": 1
      },
      "evm": {
        "bytecode": {
          "linkReferences": {},
          "object": "6080604052348015600f57600080fd5b5060a78061001e6000396000f3fe6080604052348015600f57600080fd5b506004361060285760003560e01c8063e8eda9df14602d575b600080fd5b606960048036036080811015604157600080fd5b5080356001600160a01b0390811691602081013591604082013516906060013561ffff16606b565b005b5050505056fea26469706673582212202ab64a34362f074c45b4aadec1c0bf2ea52ecee2230a195c6fedc0c0952fed4864736f6c63430007060033",
          "opcodes": "PUSH1 0x80 PUSH1 0x40 MSTORE CALLVALUE DUP1 ISZERO PUSH1 0xF JUMPI PUSH1 0x0 DUP1 REVERT JUMPDEST POP PUSH1 0xA7 DUP1 PUSH2 0x1E PUSH1 0x0 CODECOPY PUSH1 0x0 RETURN INVALID PUSH1 0x80 PUSH1 0x40 MSTORE CALLVALUE DUP1 ISZERO PUSH1 0xF JUMPI PUSH1 0x0 DUP1 REVERT JUMPDEST POP PUSH1 0x4 CALLDATASIZE LT PUSH1 0x28 JUMPI PUSH1 0x0 CALLDATALOAD PUSH1 0xE0 SHR DUP1 PUSH4 0xE8EDA9DF EQ PUSH1 0x2D JUMPI JUMPDEST PUSH1 0x0 DUP1 REVERT JUMPDEST PUSH1 0x69 PUSH1 0x4 DUP1 CALLDATASIZE SUB PUSH1 0x80 DUP2 LT ISZERO PUSH1 0x41 JUMPI PUSH1 0x0 DUP1 REVERT JUMPDEST POP DUP1 CALLDATALOAD PUSH1 0x1 PUSH1 0x1 PUSH1 0xA0 SHL SUB SWAP1 DUP2 AND SWAP2 PUSH1 0x20 DUP2 ADD CALLDATALOAD SWAP2 PUSH1 0x40 DUP3 ADD CALLDATALOAD AND SWAP1 PUSH1 0x60 ADD CALLDATALOAD PUSH2 0xFFFF AND PUSH1 0x6B JUMP JUMPDEST STOP JUMPDEST POP POP POP POP JUMP INVALID LOG2 PUSH5 0x6970667358 0x22 SLT KECCAK256 0x2A 0xB6 0x4A CALLVALUE CALLDATASIZE 0x2F SMOD 0x4C GASLIMIT 0xB4 0xAA 0xDE 0xC1 0xC0 0xBF 0x2E 0xA5 0x2E 0xCE 0xE2 0x23 EXP NOT 0x5C PUSH16 0xEDC0C0952FED4864736F6C6343000706 STOP CALLER "
        },
        "methodIdentifiers": {
          "deposit(address,uint256,address,uint16)": "e8eda9df"
        }
      },
      "storageLayout": {
        "storage": [],
        "types": null
      },
      "userdoc": {
        "kind": "user",
        "methods": {},
        "version": 1
      }
    }
  }
}