{
  "contractName": "Evaluator",
  "abi": [
    {
      "inputs": [
        {
          "internalType": "contract ERC20TD",
          "name": "_TDAAVE",
          "type": "address"
        },
        {
          "internalType": "contract IERC20",
          "name": "_aDAI",
          "type": "address"
        },
        {
          "internalType": "contract IERC20",
          "name": "_USDC",
          "type": "address"
        },
        {
          "internalType": "contract IERC20",
          "name": "_variableDebtUSDC",
          "type": "address"
        }
      ],
      "stateMutability": "nonpayable",
      "type": "constructor"
    },
    {
      "anonymous": false,
      "inputs": [
        {
          "indexed": false,
          "internalType": "address",
          "name": "erc20Address",
          "type": "address"
        },
        {
          "indexed": false,
          "internalType": "address",
          "name": "adaiAddress",
          "type": "address"
        },
        {
          "indexed": false,
          "internalType": "address",
          "name": "UsdcAddress",
          "type": "address"
        },
        {
          "indexed": false,
          "internalType": "address",
          "name": "variableDebtUSDCAddress",
          "type": "address"
        }
      ],
      "name": "constructedCorrectly",
      "type": "event"
    },
    {
      "stateMutability": "payable",
      "type": "fallback"
    },
    {
      "inputs": [],
      "name": "TDAAVE",
      "outputs": [
        {
          "internalType": "contract ERC20TD",
          "name": "",
          "type": "address"
        }
      ],
      "stateMutability": "view",
      "type": "function"
    },
    {
      "inputs": [],
      "name": "USDC",
      "outputs": [
        {
          "internalType": "contract IERC20",
          "name": "",
          "type": "address"
        }
      ],
      "stateMutability": "view",
      "type": "function"
    },
    {
      "inputs": [],
      "name": "aDAI",
      "outputs": [
        {
          "internalType": "contract IERC20",
          "name": "",
          "type": "address"
        }
      ],
      "stateMutability": "view",
      "type": "function"
    },
    {
      "inputs": [
        {
          "internalType": "address",
          "name": "",
          "type": "address"
        },
        {
          "internalType": "uint256",
          "name": "",
          "type": "uint256"
        }
      ],
      "name": "exerciceProgression",
      "outputs": [
        {
          "internalType": "bool",
          "name": "",
          "type": "bool"
        }
      ],
      "stateMutability": "view",
      "type": "function"
    },
    {
      "inputs": [
        {
          "internalType": "address",
          "name": "",
          "type": "address"
        }
      ],
      "name": "hasBeenPaired",
      "outputs": [
        {
          "internalType": "bool",
          "name": "",
          "type": "bool"
        }
      ],
      "stateMutability": "view",
      "type": "function"
    },
    {
      "inputs": [
        {
          "internalType": "address",
          "name": "",
          "type": "address"
        }
      ],
      "name": "studentExercice",
      "outputs": [
        {
          "internalType": "contract IExerciceSolution",
          "name": "",
          "type": "address"
        }
      ],
      "stateMutability": "view",
      "type": "function"
    },
    {
      "inputs": [],
      "name": "variableDebtUSDC",
      "outputs": [
        {
          "internalType": "contract IERC20",
          "name": "",
          "type": "address"
        }
      ],
      "stateMutability": "view",
      "type": "function"
    },
    {
      "stateMutability": "payable",
      "type": "receive"
    },
    {
      "inputs": [],
      "name": "ex1_showIDepositedTokens",
      "outputs": [],
      "stateMutability": "nonpayable",
      "type": "function"
    },
    {
      "inputs": [],
      "name": "ex2_showIBorrowedTokens",
      "outputs": [],
      "stateMutability": "nonpayable",
      "type": "function"
    },
    {
      "inputs": [],
      "name": "ex3_showIRepaidTokens",
      "outputs": [],
      "stateMutability": "nonpayable",
      "type": "function"
    },
    {
      "inputs": [],
      "name": "ex4_showIWithdrewTokens",
      "outputs": [],
      "stateMutability": "nonpayable",
      "type": "function"
    },
    {
      "inputs": [],
      "name": "ex5_showContractCanDepositTokens",
      "outputs": [],
      "stateMutability": "nonpayable",
      "type": "function"
    },
    {
      "inputs": [],
      "name": "ex6_showContractCanBorrowTokens",
      "outputs": [],
      "stateMutability": "nonpayable",
      "type": "function"
    },
    {
      "inputs": [],
      "name": "ex7_showContractCanRepayTokens",
      "outputs": [],
      "stateMutability": "nonpayable",
      "type": "function"
    },
    {
      "inputs": [],
      "name": "ex8_showContractCanWithdrawTokens",
      "outputs": [],
      "stateMutability": "nonpayable",
      "type": "function"
    },
    {
      "inputs": [],
      "name": "ex9_performFlashLoan",
      "outputs": [],
      "stateMutability": "nonpayable",
      "type": "function"
    },
    {
      "inputs": [
        {
          "internalType": "contract IExerciceSolution",
          "name": "studentExercice_",
          "type": "address"
        }
      ],
      "name": "submitExercice",
      "outputs": [],
      "stateMutability": "nonpayable",
      "type": "function"
    }
  ],
  "bytecode": "0x60806040523480156200001157600080fd5b506040516200337f3803806200337f833981810160405281019062000037919062000237565b836000806101000a81548173ffffffffffffffffffffffffffffffffffffffff021916908373ffffffffffffffffffffffffffffffffffffffff16021790555082600160006101000a81548173ffffffffffffffffffffffffffffffffffffffff021916908373ffffffffffffffffffffffffffffffffffffffff16021790555081600260006101000a81548173ffffffffffffffffffffffffffffffffffffffff021916908373ffffffffffffffffffffffffffffffffffffffff16021790555080600360006101000a81548173ffffffffffffffffffffffffffffffffffffffff021916908373ffffffffffffffffffffffffffffffffffffffff1602179055507f82169bf8e2a940653a3005b8fbe3a01d8ab56fd5bbbcd0bf31ac67b29cee1f9760008054906101000a900473ffffffffffffffffffffffffffffffffffffffff16600160009054906101000a900473ffffffffffffffffffffffffffffffffffffffff16600260009054906101000a900473ffffffffffffffffffffffffffffffffffffffff16600360009054906101000a900473ffffffffffffffffffffffffffffffffffffffff16604051620001f79493929190620002b4565b60405180910390a15050505062000391565b6000815190506200021a816200035d565b92915050565b600081519050620002318162000377565b92915050565b600080600080608085870312156200024e57600080fd5b60006200025e8782880162000209565b9450506020620002718782880162000220565b9350506040620002848782880162000220565b9250506060620002978782880162000220565b91505092959194509250565b620002ae8162000301565b82525050565b6000608082019050620002cb6000830187620002a3565b620002da6020830186620002a3565b620002e96040830185620002a3565b620002f86060830184620002a3565b95945050505050565b60006200030e826200033d565b9050919050565b6000620003228262000301565b9050919050565b6000620003368262000301565b9050919050565b600073ffffffffffffffffffffffffffffffffffffffff82169050919050565b620003688162000315565b81146200037457600080fd5b50565b620003828162000329565b81146200038e57600080fd5b50565b612fde80620003a16000396000f3fe6080604052600436106101025760003560e01c80635d5fff3111610095578063a3f6214211610064578063a3f62142146102b9578063bae3872e146102d0578063dc87d1e7146102e7578063e604cbc414610312578063f4fdbb881461032957610109565b80635d5fff31146102355780635f00f3221461024c578063689d82c01461026357806389a302711461028e57610109565b80632e45a7b1116100d15780632e45a7b1146101b35780632e64c500146101ca57806330af745f146102075780633abe5e1f1461021e57610109565b80630c58c95c1461010b5780631a38a4fb146101485780632236d35314610173578063289cf40c1461019c57610109565b3661010957005b005b34801561011757600080fd5b50610132600480360381019061012d91906127a5565b610366565b60405161013f9190612cf7565b60405180910390f35b34801561015457600080fd5b5061015d610399565b60405161016a9190612cdc565b60405180910390f35b34801561017f57600080fd5b5061019a6004803603810190610195919061280a565b6103bf565b005b3480156101a857600080fd5b506101b16104ef565b005b3480156101bf57600080fd5b506101c861073a565b005b3480156101d657600080fd5b506101f160048036038101906101ec91906127ce565b610a23565b6040516101fe9190612ca6565b60405180910390f35b34801561021357600080fd5b5061021c610a52565b005b34801561022a57600080fd5b50610233610ecf565b005b34801561024157600080fd5b5061024a61111a565b005b34801561025857600080fd5b50610261611661565b005b34801561026f57600080fd5b50610278611ade565b6040516102859190612cdc565b60405180910390f35b34801561029a57600080fd5b506102a3611b04565b6040516102b09190612cdc565b60405180910390f35b3480156102c557600080fd5b506102ce611b2a565b005b3480156102dc57600080fd5b506102e5611e13565b005b3480156102f357600080fd5b506102fc612290565b6040516103099190612cc1565b60405180910390f35b34801561031e57600080fd5b506103276122b4565b005b34801561033557600080fd5b50610350600480360381019061034b91906127a5565b612731565b60405161035d9190612ca6565b60405180910390f35b60056020528060005260406000206000915054906101000a900473ffffffffffffffffffffffffffffffffffffffff1681565b600160009054906101000a900473ffffffffffffffffffffffffffffffffffffffff1681565b600660008273ffffffffffffffffffffffffffffffffffffffff1673ffffffffffffffffffffffffffffffffffffffff16815260200190815260200160002060009054906101000a900460ff161561041657600080fd5b80600560003373ffffffffffffffffffffffffffffffffffffffff1673ffffffffffffffffffffffffffffffffffffffff16815260200190815260200160002060006101000a81548173ffffffffffffffffffffffffffffffffffffffff021916908373ffffffffffffffffffffffffffffffffffffffff1602179055506001600660008373ffffffffffffffffffffffffffffffffffffffff1673ffffffffffffffffffffffffffffffffffffffff16815260200190815260200160002060006101000a81548160ff02191690831515021790555050565b6000600360009054906101000a900473ffffffffffffffffffffffffffffffffffffffff1673ffffffffffffffffffffffffffffffffffffffff166370a08231336040518263ffffffff1660e01b815260040161054c9190612c39565b60206040518083038186803b15801561056457600080fd5b505afa158015610578573d6000803e3d6000fd5b505050506040513d601f19601f8201168201806040525081019061059c9190612833565b116105dc576040517f08c379a00000000000000000000000000000000000000000000000000000000081526004016105d390612df2565b60405180910390fd5b600460003373ffffffffffffffffffffffffffffffffffffffff1673ffffffffffffffffffffffffffffffffffffffff16815260200190815260200160002060006002815260200190815260200160002060009054906101000a900460ff16610738576001600460003373ffffffffffffffffffffffffffffffffffffffff1673ffffffffffffffffffffffffffffffffffffffff16815260200190815260200160002060006002815260200190815260200160002060006101000a81548160ff02191690831515021790555060008054906101000a900473ffffffffffffffffffffffffffffffffffffffff1673ffffffffffffffffffffffffffffffffffffffff1663158a49883360026040518363ffffffff1660e01b8152600401610705929190612c54565b600060405180830381600087803b15801561071f57600080fd5b505af1158015610733573d6000803e3d6000fd5b505050505b565b600460003373ffffffffffffffffffffffffffffffffffffffff1673ffffffffffffffffffffffffffffffffffffffff16815260200190815260200160002060006002815260200190815260200160002060009054906101000a900460ff166107d8576040517f08c379a00000000000000000000000000000000000000000000000000000000081526004016107cf90612d72565b60405180910390fd5b6000600360009054906101000a900473ffffffffffffffffffffffffffffffffffffffff1673ffffffffffffffffffffffffffffffffffffffff166370a08231336040518263ffffffff1660e01b81526004016108359190612c39565b60206040518083038186803b15801561084d57600080fd5b505afa158015610861573d6000803e3d6000fd5b505050506040513d601f19601f820116820180604052508101906108859190612833565b146108c5576040517f08c379a00000000000000000000000000000000000000000000000000000000081526004016108bc90612d32565b60405180910390fd5b600460003373ffffffffffffffffffffffffffffffffffffffff1673ffffffffffffffffffffffffffffffffffffffff16815260200190815260200160002060006003815260200190815260200160002060009054906101000a900460ff16610a21576001600460003373ffffffffffffffffffffffffffffffffffffffff1673ffffffffffffffffffffffffffffffffffffffff16815260200190815260200160002060006003815260200190815260200160002060006101000a81548160ff02191690831515021790555060008054906101000a900473ffffffffffffffffffffffffffffffffffffffff1673ffffffffffffffffffffffffffffffffffffffff1663158a49883360026040518363ffffffff1660e01b81526004016109ee929190612c54565b600060405180830381600087803b158015610a0857600080fd5b505af1158015610a1c573d6000803e3d6000fd5b505050505b565b60046020528160005260406000206020528060005260406000206000915091509054906101000a900460ff1681565b6000600360009054906101000a900473ffffffffffffffffffffffffffffffffffffffff1673ffffffffffffffffffffffffffffffffffffffff166370a08231600560003373ffffffffffffffffffffffffffffffffffffffff1673ffffffffffffffffffffffffffffffffffffffff16815260200190815260200160002060009054906101000a900473ffffffffffffffffffffffffffffffffffffffff166040518263ffffffff1660e01b8152600401610b0e9190612c1e565b60206040518083038186803b158015610b2657600080fd5b505afa158015610b3a573d6000803e3d6000fd5b505050506040513d601f19601f82011682018060405250810190610b5e9190612833565b9050600560003373ffffffffffffffffffffffffffffffffffffffff1673ffffffffffffffffffffffffffffffffffffffff16815260200190815260200160002060009054906101000a900473ffffffffffffffffffffffffffffffffffffffff1673ffffffffffffffffffffffffffffffffffffffff16631a231a716040518163ffffffff1660e01b8152600401600060405180830381600087803b158015610c0757600080fd5b505af1158015610c1b573d6000803e3d6000fd5b505050506000600360009054906101000a900473ffffffffffffffffffffffffffffffffffffffff1673ffffffffffffffffffffffffffffffffffffffff166370a08231600560003373ffffffffffffffffffffffffffffffffffffffff1673ffffffffffffffffffffffffffffffffffffffff16815260200190815260200160002060009054906101000a900473ffffffffffffffffffffffffffffffffffffffff166040518263ffffffff1660e01b8152600401610cdb9190612c1e565b60206040518083038186803b158015610cf357600080fd5b505afa158015610d07573d6000803e3d6000fd5b505050506040513d601f19601f82011682018060405250810190610d2b9190612833565b9050808210610d6f576040517f08c379a0000000000000000000000000000000000000000000000000000000008152600401610d6690612d52565b60405180910390fd5b600460003373ffffffffffffffffffffffffffffffffffffffff1673ffffffffffffffffffffffffffffffffffffffff16815260200190815260200160002060006006815260200190815260200160002060009054906101000a900460ff16610ecb576001600460003373ffffffffffffffffffffffffffffffffffffffff1673ffffffffffffffffffffffffffffffffffffffff16815260200190815260200160002060006006815260200190815260200160002060006101000a81548160ff02191690831515021790555060008054906101000a900473ffffffffffffffffffffffffffffffffffffffff1673ffffffffffffffffffffffffffffffffffffffff1663158a49883360026040518363ffffffff1660e01b8152600401610e98929190612c54565b600060405180830381600087803b158015610eb257600080fd5b505af1158015610ec6573d6000803e3d6000fd5b505050505b5050565b6000600160009054906101000a900473ffffffffffffffffffffffffffffffffffffffff1673ffffffffffffffffffffffffffffffffffffffff166370a08231336040518263ffffffff1660e01b8152600401610f2c9190612c39565b60206040518083038186803b158015610f4457600080fd5b505afa158015610f58573d6000803e3d6000fd5b505050506040513d601f19601f82011682018060405250810190610f7c9190612833565b11610fbc576040517f08c379a0000000000000000000000000000000000000000000000000000000008152600401610fb390612d32565b60405180910390fd5b600460003373ffffffffffffffffffffffffffffffffffffffff1673ffffffffffffffffffffffffffffffffffffffff16815260200190815260200160002060006001815260200190815260200160002060009054906101000a900460ff16611118576001600460003373ffffffffffffffffffffffffffffffffffffffff1673ffffffffffffffffffffffffffffffffffffffff16815260200190815260200160002060006001815260200190815260200160002060006101000a81548160ff02191690831515021790555060008054906101000a900473ffffffffffffffffffffffffffffffffffffffff1673ffffffffffffffffffffffffffffffffffffffff1663158a49883360026040518363ffffffff1660e01b81526004016110e5929190612c54565b600060405180830381600087803b1580156110ff57600080fd5b505af1158015611113573d6000803e3d6000fd5b505050505b565b6000600260009054906101000a900473ffffffffffffffffffffffffffffffffffffffff1673ffffffffffffffffffffffffffffffffffffffff166370a08231600560003373ffffffffffffffffffffffffffffffffffffffff1673ffffffffffffffffffffffffffffffffffffffff16815260200190815260200160002060009054906101000a900473ffffffffffffffffffffffffffffffffffffffff166040518263ffffffff1660e01b81526004016111d69190612c1e565b60206040518083038186803b1580156111ee57600080fd5b505afa158015611202573d6000803e3d6000fd5b505050506040513d601f19601f820116820180604052508101906112269190612833565b9050600560003373ffffffffffffffffffffffffffffffffffffffff1673ffffffffffffffffffffffffffffffffffffffff16815260200190815260200160002060009054906101000a900473ffffffffffffffffffffffffffffffffffffffff1673ffffffffffffffffffffffffffffffffffffffff1663d871f5946040518163ffffffff1660e01b8152600401600060405180830381600087803b1580156112cf57600080fd5b505af11580156112e3573d6000803e3d6000fd5b505050506000600260009054906101000a900473ffffffffffffffffffffffffffffffffffffffff1673ffffffffffffffffffffffffffffffffffffffff166370a08231600560003373ffffffffffffffffffffffffffffffffffffffff1673ffffffffffffffffffffffffffffffffffffffff16815260200190815260200160002060009054906101000a900473ffffffffffffffffffffffffffffffffffffffff166040518263ffffffff1660e01b81526004016113a39190612c1e565b60206040518083038186803b1580156113bb57600080fd5b505afa1580156113cf573d6000803e3d6000fd5b505050506040513d601f19601f820116820180604052508101906113f39190612833565b9050600064e8d4a510009050808211611441576040517f08c379a000000000000000000000000000000000000000000000000000000000815260040161143890612d12565b60405180910390fd5b600560003373ffffffffffffffffffffffffffffffffffffffff1673ffffffffffffffffffffffffffffffffffffffff16815260200190815260200160002060009054906101000a900473ffffffffffffffffffffffffffffffffffffffff1673ffffffffffffffffffffffffffffffffffffffff1663fc6669b66040518163ffffffff1660e01b8152600401600060405180830381600087803b1580156114e857600080fd5b505af11580156114fc573d6000803e3d6000fd5b50505050600460003373ffffffffffffffffffffffffffffffffffffffff1673ffffffffffffffffffffffffffffffffffffffff16815260200190815260200160002060006009815260200190815260200160002060009054906101000a900460ff1661165c576001600460003373ffffffffffffffffffffffffffffffffffffffff1673ffffffffffffffffffffffffffffffffffffffff16815260200190815260200160002060006009815260200190815260200160002060006101000a81548160ff02191690831515021790555060008054906101000a900473ffffffffffffffffffffffffffffffffffffffff1673ffffffffffffffffffffffffffffffffffffffff1663158a49883360046040518363ffffffff1660e01b8152600401611629929190612c7d565b600060405180830381600087803b15801561164357600080fd5b505af1158015611657573d6000803e3d6000fd5b505050505b505050565b6000600360009054906101000a900473ffffffffffffffffffffffffffffffffffffffff1673ffffffffffffffffffffffffffffffffffffffff166370a08231600560003373ffffffffffffffffffffffffffffffffffffffff1673ffffffffffffffffffffffffffffffffffffffff16815260200190815260200160002060009054906101000a900473ffffffffffffffffffffffffffffffffffffffff166040518263ffffffff1660e01b815260040161171d9190612c1e565b60206040518083038186803b15801561173557600080fd5b505afa158015611749573d6000803e3d6000fd5b505050506040513d601f19601f8201168201806040525081019061176d9190612833565b9050600560003373ffffffffffffffffffffffffffffffffffffffff1673ffffffffffffffffffffffffffffffffffffffff16815260200190815260200160002060009054906101000a900473ffffffffffffffffffffffffffffffffffffffff1673ffffffffffffffffffffffffffffffffffffffff16634b5bd34f6040518163ffffffff1660e01b8152600401600060405180830381600087803b15801561181657600080fd5b505af115801561182a573d6000803e3d6000fd5b505050506000600360009054906101000a900473ffffffffffffffffffffffffffffffffffffffff1673ffffffffffffffffffffffffffffffffffffffff166370a08231600560003373ffffffffffffffffffffffffffffffffffffffff1673ffffffffffffffffffffffffffffffffffffffff16815260200190815260200160002060009054906101000a900473ffffffffffffffffffffffffffffffffffffffff166040518263ffffffff1660e01b81526004016118ea9190612c1e565b60206040518083038186803b15801561190257600080fd5b505afa158015611916573d6000803e3d6000fd5b505050506040513d601f19601f8201168201806040525081019061193a9190612833565b905080821161197e576040517f08c379a000000000000000000000000000000000000000000000000000000000815260040161197590612dd2565b60405180910390fd5b600460003373ffffffffffffffffffffffffffffffffffffffff1673ffffffffffffffffffffffffffffffffffffffff16815260200190815260200160002060006007815260200190815260200160002060009054906101000a900460ff16611ada576001600460003373ffffffffffffffffffffffffffffffffffffffff1673ffffffffffffffffffffffffffffffffffffffff16815260200190815260200160002060006007815260200190815260200160002060006101000a81548160ff02191690831515021790555060008054906101000a900473ffffffffffffffffffffffffffffffffffffffff1673ffffffffffffffffffffffffffffffffffffffff1663158a49883360026040518363ffffffff1660e01b8152600401611aa7929190612c54565b600060405180830381600087803b158015611ac157600080fd5b505af1158015611ad5573d6000803e3d6000fd5b505050505b5050565b600360009054906101000a900473ffffffffffffffffffffffffffffffffffffffff1681565b600260009054906101000a900473ffffffffffffffffffffffffffffffffffffffff1681565b600460003373ffffffffffffffffffffffffffffffffffffffff1673ffffffffffffffffffffffffffffffffffffffff16815260200190815260200160002060006001815260200190815260200160002060009054906101000a900460ff16611bc8576040517f08c379a0000000000000000000000000000000000000000000000000000000008152600401611bbf90612e12565b60405180910390fd5b6000600160009054906101000a900473ffffffffffffffffffffffffffffffffffffffff1673ffffffffffffffffffffffffffffffffffffffff166370a08231336040518263ffffffff1660e01b8152600401611c259190612c39565b60206040518083038186803b158015611c3d57600080fd5b505afa158015611c51573d6000803e3d6000fd5b505050506040513d601f19601f82011682018060405250810190611c759190612833565b14611cb5576040517f08c379a0000000000000000000000000000000000000000000000000000000008152600401611cac90612d32565b60405180910390fd5b600460003373ffffffffffffffffffffffffffffffffffffffff1673ffffffffffffffffffffffffffffffffffffffff16815260200190815260200160002060006004815260200190815260200160002060009054906101000a900460ff16611e11576001600460003373ffffffffffffffffffffffffffffffffffffffff1673ffffffffffffffffffffffffffffffffffffffff16815260200190815260200160002060006004815260200190815260200160002060006101000a81548160ff02191690831515021790555060008054906101000a900473ffffffffffffffffffffffffffffffffffffffff1673ffffffffffffffffffffffffffffffffffffffff1663158a49883360026040518363ffffffff1660e01b8152600401611dde929190612c54565b600060405180830381600087803b158015611df857600080fd5b505af1158015611e0c573d6000803e3d6000fd5b505050505b565b6000600160009054906101000a900473ffffffffffffffffffffffffffffffffffffffff1673ffffffffffffffffffffffffffffffffffffffff166370a08231600560003373ffffffffffffffffffffffffffffffffffffffff1673ffffffffffffffffffffffffffffffffffffffff16815260200190815260200160002060009054906101000a900473ffffffffffffffffffffffffffffffffffffffff166040518263ffffffff1660e01b8152600401611ecf9190612c1e565b60206040518083038186803b158015611ee757600080fd5b505afa158015611efb573d6000803e3d6000fd5b505050506040513d601f19601f82011682018060405250810190611f1f9190612833565b9050600560003373ffffffffffffffffffffffffffffffffffffffff1673ffffffffffffffffffffffffffffffffffffffff16815260200190815260200160002060009054906101000a900473ffffffffffffffffffffffffffffffffffffffff1673ffffffffffffffffffffffffffffffffffffffff1663db50609f6040518163ffffffff1660e01b8152600401600060405180830381600087803b158015611fc857600080fd5b505af1158015611fdc573d6000803e3d6000fd5b505050506000600160009054906101000a900473ffffffffffffffffffffffffffffffffffffffff1673ffffffffffffffffffffffffffffffffffffffff166370a08231600560003373ffffffffffffffffffffffffffffffffffffffff1673ffffffffffffffffffffffffffffffffffffffff16815260200190815260200160002060009054906101000a900473ffffffffffffffffffffffffffffffffffffffff166040518263ffffffff1660e01b815260040161209c9190612c1e565b60206040518083038186803b1580156120b457600080fd5b505afa1580156120c8573d6000803e3d6000fd5b505050506040513d601f19601f820116820180604052508101906120ec9190612833565b9050808211612130576040517f08c379a000000000000000000000000000000000000000000000000000000000815260040161212790612db2565b60405180910390fd5b600460003373ffffffffffffffffffffffffffffffffffffffff1673ffffffffffffffffffffffffffffffffffffffff16815260200190815260200160002060006008815260200190815260200160002060009054906101000a900460ff1661228c576001600460003373ffffffffffffffffffffffffffffffffffffffff1673ffffffffffffffffffffffffffffffffffffffff16815260200190815260200160002060006008815260200190815260200160002060006101000a81548160ff02191690831515021790555060008054906101000a900473ffffffffffffffffffffffffffffffffffffffff1673ffffffffffffffffffffffffffffffffffffffff1663158a49883360026040518363ffffffff1660e01b8152600401612259929190612c54565b600060405180830381600087803b15801561227357600080fd5b505af1158015612287573d6000803e3d6000fd5b505050505b5050565b60008054906101000a900473ffffffffffffffffffffffffffffffffffffffff1681565b6000600160009054906101000a900473ffffffffffffffffffffffffffffffffffffffff1673ffffffffffffffffffffffffffffffffffffffff166370a08231600560003373ffffffffffffffffffffffffffffffffffffffff1673ffffffffffffffffffffffffffffffffffffffff16815260200190815260200160002060009054906101000a900473ffffffffffffffffffffffffffffffffffffffff166040518263ffffffff1660e01b81526004016123709190612c1e565b60206040518083038186803b15801561238857600080fd5b505afa15801561239c573d6000803e3d6000fd5b505050506040513d601f19601f820116820180604052508101906123c09190612833565b9050600560003373ffffffffffffffffffffffffffffffffffffffff1673ffffffffffffffffffffffffffffffffffffffff16815260200190815260200160002060009054906101000a900473ffffffffffffffffffffffffffffffffffffffff1673ffffffffffffffffffffffffffffffffffffffff1663f6b96bae6040518163ffffffff1660e01b8152600401600060405180830381600087803b15801561246957600080fd5b505af115801561247d573d6000803e3d6000fd5b505050506000600160009054906101000a900473ffffffffffffffffffffffffffffffffffffffff1673ffffffffffffffffffffffffffffffffffffffff166370a08231600560003373ffffffffffffffffffffffffffffffffffffffff1673ffffffffffffffffffffffffffffffffffffffff16815260200190815260200160002060009054906101000a900473ffffffffffffffffffffffffffffffffffffffff166040518263ffffffff1660e01b815260040161253d9190612c1e565b60206040518083038186803b15801561255557600080fd5b505afa158015612569573d6000803e3d6000fd5b505050506040513d601f19601f8201168201806040525081019061258d9190612833565b90508082106125d1576040517f08c379a00000000000000000000000000000000000000000000000000000000081526004016125c890612d92565b60405180910390fd5b600460003373ffffffffffffffffffffffffffffffffffffffff1673ffffffffffffffffffffffffffffffffffffffff16815260200190815260200160002060006005815260200190815260200160002060009054906101000a900460ff1661272d576001600460003373ffffffffffffffffffffffffffffffffffffffff1673ffffffffffffffffffffffffffffffffffffffff16815260200190815260200160002060006005815260200190815260200160002060006101000a81548160ff02191690831515021790555060008054906101000a900473ffffffffffffffffffffffffffffffffffffffff1673ffffffffffffffffffffffffffffffffffffffff1663158a49883360026040518363ffffffff1660e01b81526004016126fa929190612c54565b600060405180830381600087803b15801561271457600080fd5b505af1158015612728573d6000803e3d6000fd5b505050505b5050565b60066020528060005260406000206000915054906101000a900460ff1681565b60008135905061276081612f63565b92915050565b60008135905061277581612f7a565b92915050565b60008135905061278a81612f91565b92915050565b60008151905061279f81612f91565b92915050565b6000602082840312156127b757600080fd5b60006127c584828501612751565b91505092915050565b600080604083850312156127e157600080fd5b60006127ef85828601612751565b92505060206128008582860161277b565b9150509250929050565b60006020828403121561281c57600080fd5b600061282a84828501612766565b91505092915050565b60006020828403121561284557600080fd5b600061285384828501612790565b91505092915050565b61286581612e9d565b82525050565b61287481612e43565b82525050565b61288381612e55565b82525050565b61289281612eaf565b82525050565b6128a181612ed3565b82525050565b6128b081612ef7565b82525050565b6128bf81612f1b565b82525050565b6128ce81612f2d565b82525050565b60006128e1602683612e32565b91507f596f757220636f6e747261637420646f6573206e6f7420686f6c6420314d206460008301527f6f6c6c61727300000000000000000000000000000000000000000000000000006020830152604082019050919050565b6000612947602483612e32565b91507f53656e64657220686173206e6f74206465706f73697465642044414920696e2060008301527f41415645000000000000000000000000000000000000000000000000000000006020830152604082019050919050565b60006129ad602383612e32565b91507f596f757220636f6e747261637420646964206e6f7420626f72726f7720746f6b60008301527f656e7300000000000000000000000000000000000000000000000000000000006020830152604082019050919050565b6000612a13601d83612e32565b91507f596f752073686f756c64206861766520636f6d706c65746564206578320000006000830152602082019050919050565b6000612a53602483612e32565b91507f596f757220636f6e747261637420646964206e6f74206465706f73697420746f60008301527f6b656e73000000000000000000000000000000000000000000000000000000006020830152604082019050919050565b6000612ab9602983612e32565b91507f596f757220636f6e747261637420646964206e6f74207769746864726177206960008301527f747320746f6b656e7300000000000000000000000000000000000000000000006020830152604082019050919050565b6000612b1f602683612e32565b91507f596f757220636f6e747261637420646964206e6f74207265706179206974732060008301527f746f6b656e7300000000000000000000000000000000000000000000000000006020830152604082019050919050565b6000612b85602483612e32565b91507f53656e64657220686173206e6f7420626f72726f776564205553444320696e2060008301527f41415645000000000000000000000000000000000000000000000000000000006020830152604082019050919050565b6000612beb601d83612e32565b91507f596f752073686f756c64206861766520636f6d706c65746564206578310000006000830152602082019050919050565b6000602082019050612c33600083018461286b565b92915050565b6000602082019050612c4e600083018461285c565b92915050565b6000604082019050612c69600083018561285c565b612c7660208301846128b6565b9392505050565b6000604082019050612c92600083018561285c565b612c9f60208301846128c5565b9392505050565b6000602082019050612cbb600083018461287a565b92915050565b6000602082019050612cd66000830184612889565b92915050565b6000602082019050612cf16000830184612898565b92915050565b6000602082019050612d0c60008301846128a7565b92915050565b60006020820190508181036000830152612d2b816128d4565b9050919050565b60006020820190508181036000830152612d4b8161293a565b9050919050565b60006020820190508181036000830152612d6b816129a0565b9050919050565b60006020820190508181036000830152612d8b81612a06565b9050919050565b60006020820190508181036000830152612dab81612a46565b9050919050565b60006020820190508181036000830152612dcb81612aac565b9050919050565b60006020820190508181036000830152612deb81612b12565b9050919050565b60006020820190508181036000830152612e0b81612b78565b9050919050565b60006020820190508181036000830152612e2b81612bde565b9050919050565b600082825260208201905092915050565b6000612e4e82612e73565b9050919050565b60008115159050919050565b6000612e6c82612e43565b9050919050565b600073ffffffffffffffffffffffffffffffffffffffff82169050919050565b6000819050919050565b6000612ea882612f3f565b9050919050565b6000612eba82612ec1565b9050919050565b6000612ecc82612e73565b9050919050565b6000612ede82612ee5565b9050919050565b6000612ef082612e73565b9050919050565b6000612f0282612f09565b9050919050565b6000612f1482612e73565b9050919050565b6000612f2682612e93565b9050919050565b6000612f3882612e93565b9050919050565b6000612f4a82612f51565b9050919050565b6000612f5c82612e73565b9050919050565b612f6c81612e43565b8114612f7757600080fd5b50565b612f8381612e61565b8114612f8e57600080fd5b50565b612f9a81612e93565b8114612fa557600080fd5b5056fea264697066735822122076c964cc29c02f06cbd8c60a24a6b1289cab37606f62a7b8d45cde8c813deb8164736f6c63430007060033",
  "immutableReferences": {},
  "source": "pragma solidity ^0.7.6;\npragma experimental ABIEncoderV2;\n\nimport \"./ERC20TD.sol\";\nimport \"./IExerciceSolution.sol\";\nimport \"@openzeppelin/contracts/token/ERC20/IERC20.sol\";\n\n// import \"./utils/IUniswapV2Factory.sol\";\n// import \"./utils/IUniswapV2Pair.sol\";\n\ncontract Evaluator {\n    ERC20TD public TDAAVE;\n    IERC20 public aDAI;\n    IERC20 public USDC;\n    IERC20 public variableDebtUSDC;\n\n    mapping(address => mapping(uint256 => bool)) public exerciceProgression;\n    mapping(address => IExerciceSolution) public studentExercice;\n    mapping(address => bool) public hasBeenPaired;\n\n    event constructedCorrectly(\n        address erc20Address,\n        address adaiAddress,\n        address UsdcAddress,\n        address variableDebtUSDCAddress\n    );\n\n    constructor(\n        ERC20TD _TDAAVE,\n        IERC20 _aDAI,\n        IERC20 _USDC,\n        IERC20 _variableDebtUSDC\n    ) public {\n        TDAAVE = _TDAAVE;\n        aDAI = _aDAI;\n        USDC = _USDC;\n        variableDebtUSDC = _variableDebtUSDC;\n        emit constructedCorrectly(\n            address(TDAAVE),\n            address(aDAI),\n            address(USDC),\n            address(variableDebtUSDC)\n        );\n    }\n\n    fallback() external payable {}\n\n    receive() external payable {}\n\n    function ex1_showIDepositedTokens() public {\n        // Sender should have deposited testnet aDAI\n        require(\n            aDAI.balanceOf(msg.sender) > 0,\n            \"Sender has not deposited DAI in AAVE\"\n        );\n\n        // Distributing points\n        if (!exerciceProgression[msg.sender][1]) {\n            exerciceProgression[msg.sender][1] = true;\n            TDAAVE.distributeTokens(msg.sender, 2);\n        }\n    }\n\n    function ex2_showIBorrowedTokens() public {\n        // Sender should have borrowed USDC on AAVE\n        require(\n            variableDebtUSDC.balanceOf(msg.sender) > 0,\n            \"Sender has not borrowed USDC in AAVE\"\n        );\n\n        // Distributing points\n        if (!exerciceProgression[msg.sender][2]) {\n            exerciceProgression[msg.sender][2] = true;\n            TDAAVE.distributeTokens(msg.sender, 2);\n        }\n    }\n\n    function ex3_showIRepaidTokens() public {\n        require(\n            exerciceProgression[msg.sender][2],\n            \"You should have completed ex2\"\n        );\n        // // Sender should repaid his testnet USDC\n        require(\n            variableDebtUSDC.balanceOf(msg.sender) == 0,\n            \"Sender has not deposited DAI in AAVE\"\n        );\n\n        // Distributing points\n        if (!exerciceProgression[msg.sender][3]) {\n            exerciceProgression[msg.sender][3] = true;\n            TDAAVE.distributeTokens(msg.sender, 2);\n        }\n    }\n\n    function ex4_showIWithdrewTokens() public {\n        require(\n            exerciceProgression[msg.sender][1],\n            \"You should have completed ex1\"\n        );\n\n        // // Sender should have no more testnet aDAI\n        require(\n            aDAI.balanceOf(msg.sender) == 0,\n            \"Sender has not deposited DAI in AAVE\"\n        );\n\n        // Distributing points\n        if (!exerciceProgression[msg.sender][4]) {\n            exerciceProgression[msg.sender][4] = true;\n            TDAAVE.distributeTokens(msg.sender, 2);\n        }\n    }\n\n    function ex5_showContractCanDepositTokens() public {\n        // Reading initial aDai balance\n        uint256 initialBalance = aDAI.balanceOf(\n            address(studentExercice[msg.sender])\n        );\n\n        // Trigger token deposit function\n        studentExercice[msg.sender].depositSomeTokens();\n\n        // Read end balance\n        uint256 endBalance = aDAI.balanceOf(\n            address(studentExercice[msg.sender])\n        );\n\n        // Verify that contract did borrow\n        require(\n            initialBalance < endBalance,\n            \"Your contract did not deposit tokens\"\n        );\n\n        // Distributing points\n        if (!exerciceProgression[msg.sender][5]) {\n            exerciceProgression[msg.sender][5] = true;\n            TDAAVE.distributeTokens(msg.sender, 2);\n        }\n    }\n\n    function ex6_showContractCanBorrowTokens() public {\n        // Reading initial variableDebtUSDC balance\n        uint256 initialBalance = variableDebtUSDC.balanceOf(\n            address(studentExercice[msg.sender])\n        );\n\n        // Trigger token deposit function\n        studentExercice[msg.sender].borrowSomeTokens();\n\n        // Read end balance\n        uint256 endBalance = variableDebtUSDC.balanceOf(\n            address(studentExercice[msg.sender])\n        );\n\n        // Verify that contract did borrow\n        require(\n            initialBalance < endBalance,\n            \"Your contract did not borrow tokens\"\n        );\n\n        // Distributing points\n        if (!exerciceProgression[msg.sender][6]) {\n            exerciceProgression[msg.sender][6] = true;\n            TDAAVE.distributeTokens(msg.sender, 2);\n        }\n    }\n\n    function ex7_showContractCanRepayTokens() public {\n        // Reading initial variableDebtUSDC balance\n        uint256 initialBalance = variableDebtUSDC.balanceOf(\n            address(studentExercice[msg.sender])\n        );\n\n        // Trigger token deposit function\n        studentExercice[msg.sender].repaySomeTokens();\n\n        // Read end balance\n        uint256 endBalance = variableDebtUSDC.balanceOf(\n            address(studentExercice[msg.sender])\n        );\n\n        // Verify that contract did borrow\n        require(\n            initialBalance > endBalance,\n            \"Your contract did not repay its tokens\"\n        );\n\n        // Distributing points\n        if (!exerciceProgression[msg.sender][7]) {\n            exerciceProgression[msg.sender][7] = true;\n            TDAAVE.distributeTokens(msg.sender, 2);\n        }\n    }\n\n    function ex8_showContractCanWithdrawTokens() public {\n        // Reading initial aDai balance\n        uint256 initialBalance = aDAI.balanceOf(\n            address(studentExercice[msg.sender])\n        );\n\n        // Trigger token deposit function\n        studentExercice[msg.sender].withdrawSomeTokens();\n\n        // Read end balance\n        uint256 endBalance = aDAI.balanceOf(\n            address(studentExercice[msg.sender])\n        );\n\n        // Verify that contract did borrow\n        require(\n            initialBalance > endBalance,\n            \"Your contract did not withdraw its tokens\"\n        );\n\n        // Distributing points\n        if (!exerciceProgression[msg.sender][8]) {\n            exerciceProgression[msg.sender][8] = true;\n            TDAAVE.distributeTokens(msg.sender, 2);\n        }\n    }\n\n    function ex9_performFlashLoan() public {\n        // Check https://docs.aave.com/developers/guides/flash-loans\n\n        // Reading initial aDai balance\n        uint256 initialBalance = USDC.balanceOf(\n            address(studentExercice[msg.sender])\n        );\n\n        // Trigger flash loan launch function\n        studentExercice[msg.sender].doAFlashLoan();\n\n        // Read end balance\n        uint256 endBalance = USDC.balanceOf(\n            address(studentExercice[msg.sender])\n        );\n\n        // Your contract has to borrow 1M USDC. The USDC contract has 6 decimals\n        uint256 amountToBorrow = 1000000 * 1000000;\n        // Verify that contract did borrow\n        require(\n            endBalance > amountToBorrow,\n            \"Your contract does not hold 1M dollars\"\n        );\n\n        // Trigger flash loan repayment function\n        studentExercice[msg.sender].repayFlashLoan();\n\n        // Distributing points\n        if (!exerciceProgression[msg.sender][9]) {\n            exerciceProgression[msg.sender][9] = true;\n            TDAAVE.distributeTokens(msg.sender, 4);\n        }\n    }\n\n    modifier onlyTeachers() {\n        require(TDAAVE.teachers(msg.sender));\n        _;\n    }\n\n    function submitExercice(IExerciceSolution studentExercice_) public {\n        // Checking this contract was not used by another group before\n        require(!hasBeenPaired[address(studentExercice_)]);\n\n        // Assigning passed ERC20 as student ERC20\n        studentExercice[msg.sender] = studentExercice_;\n        hasBeenPaired[address(studentExercice_)] = true;\n    }\n}\n",
  "sourcePath": "/home/lucas/TD_Blockchain/TD10/contracts/Evaluator.sol",
  "compiler": {
    "name": "solc",
    "version": "0.7.6+commit.7338295f.Emscripten.clang"
  },
  "schemaVersion": "3.4.3",
  "updatedAt": "2022-01-16T12:37:56.014Z",
  "devdoc": {
    "kind": "dev",
    "methods": {},
    "version": 1
  },
  "userdoc": {
    "kind": "user",
    "methods": {},
    "version": 1
  }
}