{
  "contractName": "ExerciceSolution",
  "abi": [
    {
      "inputs": [
        {
          "internalType": "contract IERC20",
          "name": "dai_",
          "type": "address"
        },
        {
          "internalType": "contract IAave",
          "name": "AAVE_",
          "type": "address"
        },
        {
          "internalType": "contract IERC20",
          "name": "usdc_",
          "type": "address"
        }
      ],
      "stateMutability": "nonpayable",
      "type": "constructor"
    },
    {
      "inputs": [],
      "name": "AAVE",
      "outputs": [
        {
          "internalType": "contract IAave",
          "name": "",
          "type": "address"
        }
      ],
      "stateMutability": "view",
      "type": "function",
      "constant": true
    },
    {
      "inputs": [],
      "name": "AMOUNT",
      "outputs": [
        {
          "internalType": "uint256",
          "name": "",
          "type": "uint256"
        }
      ],
      "stateMutability": "view",
      "type": "function",
      "constant": true
    },
    {
      "inputs": [],
      "name": "dai",
      "outputs": [
        {
          "internalType": "contract IERC20",
          "name": "",
          "type": "address"
        }
      ],
      "stateMutability": "view",
      "type": "function",
      "constant": true
    },
    {
      "inputs": [],
      "name": "usdc",
      "outputs": [
        {
          "internalType": "contract IERC20",
          "name": "",
          "type": "address"
        }
      ],
      "stateMutability": "view",
      "type": "function",
      "constant": true
    },
    {
      "inputs": [],
      "name": "depositSomeTokens",
      "outputs": [],
      "stateMutability": "nonpayable",
      "type": "function"
    },
    {
      "inputs": [],
      "name": "withdrawSomeTokens",
      "outputs": [],
      "stateMutability": "nonpayable",
      "type": "function"
    },
    {
      "inputs": [],
      "name": "borrowSomeTokens",
      "outputs": [],
      "stateMutability": "nonpayable",
      "type": "function"
    },
    {
      "inputs": [],
      "name": "repaySomeTokens",
      "outputs": [],
      "stateMutability": "nonpayable",
      "type": "function"
    },
    {
      "inputs": [],
      "name": "doAFlashLoan",
      "outputs": [],
      "stateMutability": "nonpayable",
      "type": "function"
    },
    {
      "inputs": [],
      "name": "repayFlashLoan",
      "outputs": [],
      "stateMutability": "nonpayable",
      "type": "function"
    }
  ],
  "bytecode": "0x608060405234801561001057600080fd5b5060405161114d38038061114d8339818101604052606081101561003357600080fd5b81019080805190602001909291908051906020019092919080519060200190929190505050826000806101000a81548173ffffffffffffffffffffffffffffffffffffffff021916908373ffffffffffffffffffffffffffffffffffffffff16021790555081600160006101000a81548173ffffffffffffffffffffffffffffffffffffffff021916908373ffffffffffffffffffffffffffffffffffffffff16021790555080600260006101000a81548173ffffffffffffffffffffffffffffffffffffffff021916908373ffffffffffffffffffffffffffffffffffffffff1602179055505050506110218061012c6000396000f3fe608060405234801561001057600080fd5b506004361061009e5760003560e01c8063d871f59411610066578063d871f5941461013d578063db50609f14610147578063f4b9fa7514610151578063f6b96bae14610185578063fc6669b61461018f5761009e565b80631a231a71146100a35780633e413bee146100ad57806348ccda3c146100e15780634b5bd34f14610115578063d17891761461011f575b600080fd5b6100ab610199565b005b6100b561029d565b604051808273ffffffffffffffffffffffffffffffffffffffff16815260200191505060405180910390f35b6100e96102c3565b604051808273ffffffffffffffffffffffffffffffffffffffff16815260200191505060405180910390f35b61011d6102e9565b005b6101276105c8565b6040518082815260200191505060405180910390f35b6101456105ce565b005b61014f610989565b005b610159610a76565b604051808273ffffffffffffffffffffffffffffffffffffffff16815260200191505060405180910390f35b61018d610a9a565b005b610197610e35565b005b600160009054906101000a900473ffffffffffffffffffffffffffffffffffffffff1673ffffffffffffffffffffffffffffffffffffffff1663a415bcad600260009054906101000a900473ffffffffffffffffffffffffffffffffffffffff1664e8d4a5100060026000306040518663ffffffff1660e01b8152600401808673ffffffffffffffffffffffffffffffffffffffff1681526020018581526020018481526020018381526020018273ffffffffffffffffffffffffffffffffffffffff16815260200195505050505050600060405180830381600087803b15801561028357600080fd5b505af1158015610297573d6000803e3d6000fd5b50505050565b600260009054906101000a900473ffffffffffffffffffffffffffffffffffffffff1681565b600160009054906101000a900473ffffffffffffffffffffffffffffffffffffffff1681565b600260009054906101000a900473ffffffffffffffffffffffffffffffffffffffff1673ffffffffffffffffffffffffffffffffffffffff1663095ea7b3600160009054906101000a900473ffffffffffffffffffffffffffffffffffffffff16629896806040518363ffffffff1660e01b8152600401808373ffffffffffffffffffffffffffffffffffffffff16815260200182815260200192505050602060405180830381600087803b1580156103a157600080fd5b505af11580156103b5573d6000803e3d6000fd5b505050506040513d60208110156103cb57600080fd5b810190808051906020019092919050505050600160009054906101000a900473ffffffffffffffffffffffffffffffffffffffff1673ffffffffffffffffffffffffffffffffffffffff1663573ade81600260009054906101000a900473ffffffffffffffffffffffffffffffffffffffff16629896806002306040518563ffffffff1660e01b8152600401808573ffffffffffffffffffffffffffffffffffffffff1681526020018481526020018381526020018273ffffffffffffffffffffffffffffffffffffffff168152602001945050505050600060405180830381600087803b1580156104bc57600080fd5b505af11580156104d0573d6000803e3d6000fd5b50505050600260009054906101000a900473ffffffffffffffffffffffffffffffffffffffff1673ffffffffffffffffffffffffffffffffffffffff1663095ea7b3600160009054906101000a900473ffffffffffffffffffffffffffffffffffffffff1660006040518363ffffffff1660e01b8152600401808373ffffffffffffffffffffffffffffffffffffffff16815260200182815260200192505050602060405180830381600087803b15801561058a57600080fd5b505af115801561059e573d6000803e3d6000fd5b505050506040513d60208110156105b457600080fd5b810190808051906020019092919050505050565b60035481565b60006509184e72a00090506000600167ffffffffffffffff811180156105f357600080fd5b506040519080825280602002602001820160405280156106225781602001602082028036833780820191505090505b509050600260009054906101000a900473ffffffffffffffffffffffffffffffffffffffff168160008151811061065557fe5b602002602001019073ffffffffffffffffffffffffffffffffffffffff16908173ffffffffffffffffffffffffffffffffffffffff16815250506000600167ffffffffffffffff811180156106a957600080fd5b506040519080825280602002602001820160405280156106d85781602001602082028036833780820191505090505b50905082816000815181106106e957fe5b6020026020010181815250506000600167ffffffffffffffff8111801561070f57600080fd5b5060405190808252806020026020018201604052801561073e5781602001602082028036833780820191505090505b50905060008160008151811061075057fe5b6020026020010181815250506000604051806020016040528060008152509050600160009054906101000a900473ffffffffffffffffffffffffffffffffffffffff1673ffffffffffffffffffffffffffffffffffffffff1663ab9c4b5d30868686308760006040518863ffffffff1660e01b8152600401808873ffffffffffffffffffffffffffffffffffffffff1681526020018060200180602001806020018773ffffffffffffffffffffffffffffffffffffffff1681526020018060200186815260200185810385528b818151815260200191508051906020019060200280838360005b83811015610852578082015181840152602081019050610837565b5050505090500185810384528a818151815260200191508051906020019060200280838360005b83811015610894578082015181840152602081019050610879565b50505050905001858103835289818151815260200191508051906020019060200280838360005b838110156108d65780820151818401526020810190506108bb565b50505050905001858103825287818151815260200191508051906020019080838360005b838110156109155780820151818401526020810190506108fa565b50505050905090810190601f1680156109425780820380516001836020036101000a031916815260200191505b509b505050505050505050505050600060405180830381600087803b15801561096a57600080fd5b505af115801561097e573d6000803e3d6000fd5b505050505050505050565b600160009054906101000a900473ffffffffffffffffffffffffffffffffffffffff1673ffffffffffffffffffffffffffffffffffffffff166369328dec60008054906101000a900473ffffffffffffffffffffffffffffffffffffffff16612710306040518463ffffffff1660e01b8152600401808473ffffffffffffffffffffffffffffffffffffffff1681526020018381526020018273ffffffffffffffffffffffffffffffffffffffff1681526020019350505050600060405180830381600087803b158015610a5c57600080fd5b505af1158015610a70573d6000803e3d6000fd5b50505050565b60008054906101000a900473ffffffffffffffffffffffffffffffffffffffff1681565b60008060009054906101000a900473ffffffffffffffffffffffffffffffffffffffff1673ffffffffffffffffffffffffffffffffffffffff166370a08231306040518263ffffffff1660e01b8152600401808273ffffffffffffffffffffffffffffffffffffffff16815260200191505060206040518083038186803b158015610b2457600080fd5b505afa158015610b38573d6000803e3d6000fd5b505050506040513d6020811015610b4e57600080fd5b8101908080519060200190929190505050905060008054906101000a900473ffffffffffffffffffffffffffffffffffffffff1673ffffffffffffffffffffffffffffffffffffffff1663095ea7b3600160009054906101000a900473ffffffffffffffffffffffffffffffffffffffff16836040518363ffffffff1660e01b8152600401808373ffffffffffffffffffffffffffffffffffffffff16815260200182815260200192505050602060405180830381600087803b158015610c1457600080fd5b505af1158015610c28573d6000803e3d6000fd5b505050506040513d6020811015610c3e57600080fd5b810190808051906020019092919050505050600160009054906101000a900473ffffffffffffffffffffffffffffffffffffffff1673ffffffffffffffffffffffffffffffffffffffff1663e8eda9df60008054906101000a900473ffffffffffffffffffffffffffffffffffffffff16833060006040518563ffffffff1660e01b8152600401808573ffffffffffffffffffffffffffffffffffffffff1681526020018481526020018373ffffffffffffffffffffffffffffffffffffffff168152602001828152602001945050505050600060405180830381600087803b158015610d2a57600080fd5b505af1158015610d3e573d6000803e3d6000fd5b5050505060008054906101000a900473ffffffffffffffffffffffffffffffffffffffff1673ffffffffffffffffffffffffffffffffffffffff1663095ea7b3600160009054906101000a900473ffffffffffffffffffffffffffffffffffffffff1660006040518363ffffffff1660e01b8152600401808373ffffffffffffffffffffffffffffffffffffffff16815260200182815260200192505050602060405180830381600087803b158015610df657600080fd5b505af1158015610e0a573d6000803e3d6000fd5b505050506040513d6020811015610e2057600080fd5b81019080805190602001909291905050505050565b600260009054906101000a900473ffffffffffffffffffffffffffffffffffffffff1673ffffffffffffffffffffffffffffffffffffffff1663095ea7b3600160009054906101000a900473ffffffffffffffffffffffffffffffffffffffff16600260009054906101000a900473ffffffffffffffffffffffffffffffffffffffff1673ffffffffffffffffffffffffffffffffffffffff166370a08231306040518263ffffffff1660e01b8152600401808273ffffffffffffffffffffffffffffffffffffffff16815260200191505060206040518083038186803b158015610f1f57600080fd5b505afa158015610f33573d6000803e3d6000fd5b505050506040513d6020811015610f4957600080fd5b81019080805190602001909291905050506040518363ffffffff1660e01b8152600401808373ffffffffffffffffffffffffffffffffffffffff16815260200182815260200192505050602060405180830381600087803b158015610fad57600080fd5b505af1158015610fc1573d6000803e3d6000fd5b505050506040513d6020811015610fd757600080fd5b81019080805190602001909291905050505056fea26469706673582212206c2fe33f28ff08f92375b0143cc53bc5906c62819f6c65ef1b4d02ea324ae13d64736f6c63430007060033",
  "immutableReferences": {},
  "source": "// SPDX-License-Identifier: MIT\npragma solidity ^0.7.6;\n\nimport \"./IExerciceSolution.sol\";\nimport \"@openzeppelin/contracts/token/ERC20/IERC20.sol\";\nimport \"./IAave.sol\";\n\ncontract ExerciceSolution is IExerciceSolution {\n    IERC20 public dai;\n    IAave public AAVE;\n    IERC20 public usdc;\n    uint256 public AMOUNT;\n\n    constructor(\n        IERC20 dai_,\n        IAave AAVE_,\n        IERC20 usdc_\n    ) public {\n        dai = dai_;\n        AAVE = AAVE_;\n        usdc = usdc_;\n    }\n\n    function depositSomeTokens() external override {\n        uint256 AMOUNT = dai.balanceOf(address(this));\n        dai.approve(address(AAVE), AMOUNT);\n        AAVE.deposit(address(dai), AMOUNT, address(this), 0);\n        dai.approve(address(AAVE), 0);\n    }\n\n    function withdrawSomeTokens() external override {\n        AAVE.withdraw(address(dai), 10000, address(this));\n    }\n\n    function borrowSomeTokens() external override {\n        AAVE.borrow(address(usdc), 1000000000000, 2, 0, address(this));\n    }\n\n    function repaySomeTokens() external override {\n        usdc.approve(address(AAVE), 10000000);\n        AAVE.repay(address(usdc), 10000000, 2, address(this));\n        usdc.approve(address(AAVE), 0);\n    }\n\n    function doAFlashLoan() external override {\n        uint256 amountToBorrow = 10000000 * 1000000;\n        address[] memory assets = new address[](1);\n        assets[0] = address(usdc);\n        uint256[] memory amounts = new uint256[](1);\n        amounts[0] = amountToBorrow;\n        uint256[] memory modes = new uint256[](1);\n        modes[0] = 0;\n        bytes memory params = \"\";\n        AAVE.flashLoan(address(this), assets, amounts, modes, address(this), params, 0);\n    }\n\n    function repayFlashLoan() external override {\n        usdc.approve(address(AAVE), usdc.balanceOf(address(this)));\n    }\n}\n",
  "sourcePath": "/home/lucas/TD_Blockchain/TD10/contracts/ExerciceSolution.sol",
  "compiler": {
    "name": "solc",
    "version": "0.7.6+commit.7338295f.Emscripten.clang"
  },
  "schemaVersion": "3.4.3",
  "updatedAt": "2022-01-16T14:47:00.430Z",
  "networkType": "ethereum",
  "devdoc": {
    "kind": "dev",
    "methods": {},
    "version": 1
  },
  "userdoc": {
    "kind": "user",
    "methods": {},
    "version": 1
  }
}