{
  "contractName": "Evaluator",
  "abi": [
    {
      "inputs": [
        {
          "internalType": "contract ERC20TD",
          "name": "_TDAMM",
          "type": "address"
        },
        {
          "internalType": "contract ERC20",
          "name": "_dummyToken",
          "type": "address"
        },
        {
          "internalType": "contract IUniswapV2Factory",
          "name": "_uniswapV2Factory",
          "type": "address"
        },
        {
          "internalType": "address",
          "name": "_WETH",
          "type": "address"
        }
      ],
      "stateMutability": "nonpayable",
      "type": "constructor"
    },
    {
      "anonymous": false,
      "inputs": [
        {
          "indexed": false,
          "internalType": "address",
          "name": "erc20Address",
          "type": "address"
        },
        {
          "indexed": false,
          "internalType": "address",
          "name": "dummyTokenAddress",
          "type": "address"
        },
        {
          "indexed": false,
          "internalType": "address",
          "name": "uniFactoryAddress",
          "type": "address"
        },
        {
          "indexed": false,
          "internalType": "address",
          "name": "wethAddress",
          "type": "address"
        }
      ],
      "name": "constructedCorrectly",
      "type": "event"
    },
    {
      "anonymous": false,
      "inputs": [
        {
          "indexed": false,
          "internalType": "string",
          "name": "ticker",
          "type": "string"
        },
        {
          "indexed": false,
          "internalType": "uint256",
          "name": "supply",
          "type": "uint256"
        }
      ],
      "name": "newRandomTickerAndSupply",
      "type": "event"
    },
    {
      "stateMutability": "payable",
      "type": "fallback"
    },
    {
      "inputs": [],
      "name": "TDAMM",
      "outputs": [
        {
          "internalType": "contract ERC20TD",
          "name": "",
          "type": "address"
        }
      ],
      "stateMutability": "view",
      "type": "function"
    },
    {
      "inputs": [],
      "name": "WETH",
      "outputs": [
        {
          "internalType": "address",
          "name": "",
          "type": "address"
        }
      ],
      "stateMutability": "view",
      "type": "function"
    },
    {
      "inputs": [
        {
          "internalType": "address",
          "name": "",
          "type": "address"
        }
      ],
      "name": "assignedSupply",
      "outputs": [
        {
          "internalType": "uint256",
          "name": "",
          "type": "uint256"
        }
      ],
      "stateMutability": "view",
      "type": "function"
    },
    {
      "inputs": [
        {
          "internalType": "address",
          "name": "",
          "type": "address"
        }
      ],
      "name": "assignedTicker",
      "outputs": [
        {
          "internalType": "string",
          "name": "",
          "type": "string"
        }
      ],
      "stateMutability": "view",
      "type": "function"
    },
    {
      "inputs": [],
      "name": "dummyToken",
      "outputs": [
        {
          "internalType": "contract ERC20",
          "name": "",
          "type": "address"
        }
      ],
      "stateMutability": "view",
      "type": "function"
    },
    {
      "inputs": [
        {
          "internalType": "address",
          "name": "",
          "type": "address"
        },
        {
          "internalType": "uint256",
          "name": "",
          "type": "uint256"
        }
      ],
      "name": "exerciceProgression",
      "outputs": [
        {
          "internalType": "bool",
          "name": "",
          "type": "bool"
        }
      ],
      "stateMutability": "view",
      "type": "function"
    },
    {
      "inputs": [
        {
          "internalType": "address",
          "name": "",
          "type": "address"
        }
      ],
      "name": "hasBeenPaired",
      "outputs": [
        {
          "internalType": "bool",
          "name": "",
          "type": "bool"
        }
      ],
      "stateMutability": "view",
      "type": "function"
    },
    {
      "inputs": [],
      "name": "nextValueStoreRank",
      "outputs": [
        {
          "internalType": "uint256",
          "name": "",
          "type": "uint256"
        }
      ],
      "stateMutability": "view",
      "type": "function"
    },
    {
      "inputs": [
        {
          "internalType": "address",
          "name": "",
          "type": "address"
        }
      ],
      "name": "studentErc20",
      "outputs": [
        {
          "internalType": "contract IRichERC20",
          "name": "",
          "type": "address"
        }
      ],
      "stateMutability": "view",
      "type": "function"
    },
    {
      "inputs": [
        {
          "internalType": "address",
          "name": "",
          "type": "address"
        }
      ],
      "name": "studentExercice",
      "outputs": [
        {
          "internalType": "contract IExerciceSolution",
          "name": "",
          "type": "address"
        }
      ],
      "stateMutability": "view",
      "type": "function"
    },
    {
      "inputs": [
        {
          "internalType": "address",
          "name": "",
          "type": "address"
        }
      ],
      "name": "teachers",
      "outputs": [
        {
          "internalType": "bool",
          "name": "",
          "type": "bool"
        }
      ],
      "stateMutability": "view",
      "type": "function"
    },
    {
      "inputs": [],
      "name": "uniswapV2Factory",
      "outputs": [
        {
          "internalType": "contract IUniswapV2Factory",
          "name": "",
          "type": "address"
        }
      ],
      "stateMutability": "view",
      "type": "function"
    },
    {
      "stateMutability": "payable",
      "type": "receive"
    },
    {
      "inputs": [],
      "name": "ex1_showIHaveTokens",
      "outputs": [],
      "stateMutability": "nonpayable",
      "type": "function"
    },
    {
      "inputs": [],
      "name": "ex2_showIProvidedLiquidity",
      "outputs": [],
      "stateMutability": "nonpayable",
      "type": "function"
    },
    {
      "inputs": [],
      "name": "ex6a_getTickerAndSupply",
      "outputs": [],
      "stateMutability": "nonpayable",
      "type": "function"
    },
    {
      "inputs": [],
      "name": "ex6b_testErc20TickerAndSupply",
      "outputs": [],
      "stateMutability": "nonpayable",
      "type": "function"
    },
    {
      "inputs": [],
      "name": "ex7_tokenIsTradableOnUniswap",
      "outputs": [],
      "stateMutability": "nonpayable",
      "type": "function"
    },
    {
      "inputs": [],
      "name": "ex8_contractCanSwapVsEth",
      "outputs": [],
      "stateMutability": "nonpayable",
      "type": "function"
    },
    {
      "inputs": [],
      "name": "ex9_contractCanSwapVsDummyToken",
      "outputs": [],
      "stateMutability": "nonpayable",
      "type": "function"
    },
    {
      "inputs": [],
      "name": "ex10_contractCanProvideLiquidity",
      "outputs": [],
      "stateMutability": "nonpayable",
      "type": "function"
    },
    {
      "inputs": [],
      "name": "ex11_contractCanWithdrawLiquidity",
      "outputs": [],
      "stateMutability": "nonpayable",
      "type": "function"
    },
    {
      "inputs": [
        {
          "internalType": "contract IExerciceSolution",
          "name": "studentExercice_",
          "type": "address"
        }
      ],
      "name": "submitExercice",
      "outputs": [],
      "stateMutability": "nonpayable",
      "type": "function"
    },
    {
      "inputs": [
        {
          "internalType": "contract IRichERC20",
          "name": "studentErc20_",
          "type": "address"
        }
      ],
      "name": "submitErc20",
      "outputs": [],
      "stateMutability": "nonpayable",
      "type": "function"
    },
    {
      "inputs": [
        {
          "internalType": "bytes32",
          "name": "_bytes32",
          "type": "bytes32"
        }
      ],
      "name": "bytes32ToString",
      "outputs": [
        {
          "internalType": "string",
          "name": "",
          "type": "string"
        }
      ],
      "stateMutability": "pure",
      "type": "function"
    },
    {
      "inputs": [
        {
          "internalType": "address",
          "name": "studentAddres",
          "type": "address"
        }
      ],
      "name": "readTicker",
      "outputs": [
        {
          "internalType": "string",
          "name": "",
          "type": "string"
        }
      ],
      "stateMutability": "view",
      "type": "function"
    },
    {
      "inputs": [
        {
          "internalType": "address",
          "name": "studentAddres",
          "type": "address"
        }
      ],
      "name": "readSupply",
      "outputs": [
        {
          "internalType": "uint256",
          "name": "",
          "type": "uint256"
        }
      ],
      "stateMutability": "view",
      "type": "function"
    },
    {
      "inputs": [
        {
          "internalType": "uint256[20]",
          "name": "_randomSupplies",
          "type": "uint256[20]"
        },
        {
          "internalType": "string[20]",
          "name": "_randomTickers",
          "type": "string[20]"
        }
      ],
      "name": "setRandomTickersAndSupply",
      "outputs": [],
      "stateMutability": "nonpayable",
      "type": "function"
    }
  ],
  "bytecode": "0x60806040523480156200001157600080fd5b50604051620059d8380380620059d8833981810160405281019062000037919062000202565b83600160006101000a81548173ffffffffffffffffffffffffffffffffffffffff021916908373ffffffffffffffffffffffffffffffffffffffff16021790555082600260006101000a81548173ffffffffffffffffffffffffffffffffffffffff021916908373ffffffffffffffffffffffffffffffffffffffff16021790555081600360006101000a81548173ffffffffffffffffffffffffffffffffffffffff021916908373ffffffffffffffffffffffffffffffffffffffff16021790555080600460006101000a81548173ffffffffffffffffffffffffffffffffffffffff021916908373ffffffffffffffffffffffffffffffffffffffff1602179055507f82169bf8e2a940653a3005b8fbe3a01d8ab56fd5bbbcd0bf31ac67b29cee1f97600160009054906101000a900473ffffffffffffffffffffffffffffffffffffffff168484846040516200019494939291906200027f565b60405180910390a150505050620003a4565b600081519050620001b7816200033c565b92915050565b600081519050620001ce8162000356565b92915050565b600081519050620001e58162000370565b92915050565b600081519050620001fc816200038a565b92915050565b600080600080608085870312156200021957600080fd5b60006200022987828801620001bd565b94505060206200023c87828801620001d4565b93505060406200024f87828801620001eb565b92505060606200026287828801620001a6565b91505092959194509250565b6200027981620002cc565b82525050565b60006080820190506200029660008301876200026e565b620002a560208301866200026e565b620002b460408301856200026e565b620002c360608301846200026e565b95945050505050565b6000620002d9826200031c565b9050919050565b6000620002ed82620002cc565b9050919050565b60006200030182620002cc565b9050919050565b60006200031582620002cc565b9050919050565b600073ffffffffffffffffffffffffffffffffffffffff82169050919050565b6200034781620002cc565b81146200035357600080fd5b50565b6200036181620002e0565b81146200036d57600080fd5b50565b6200037b81620002f4565b81146200038757600080fd5b50565b620003958162000308565b8114620003a157600080fd5b50565b61562480620003b46000396000f3fe60806040526004361061019f5760003560e01c80639b148f17116100ec578063cec7f2101161008a578063e22ebfd611610064578063e22ebfd61461055d578063e84092a91461059a578063f0a47f78146105b1578063f4fdbb88146105ee576101a6565b8063cec7f210146104cc578063d1a2e76e146104f7578063e22b5dcf14610520576101a6565b8063c7599393116100c6578063c759939314610470578063ca5cd0c214610487578063cc093e7a1461049e578063cd3560d7146104b5576101a6565b80639b148f17146103f15780639f91f51614610408578063ad5c464814610445576101a6565b806352954cf31161015957806367479ec51161013357806367479ec5146103235780637c83d61a1461034e5780637db60caf146103775780639201de55146103b4576101a6565b806352954cf3146102ca57806359d0f713146102e15780635d54c3701461030c576101a6565b8062a3491a146101a857806305b12022146101e55780630c58c95c146101fc5780632236d353146102395780632e64c5001461026257806339119dce1461029f576101a6565b366101a657005b005b3480156101b457600080fd5b506101cf60048036038101906101ca91906147a5565b61062b565b6040516101dc91906150ab565b60405180910390f35b3480156101f157600080fd5b506101fa6106db565b005b34801561020857600080fd5b50610223600480360381019061021e91906147a5565b610af0565b604051610230919061505a565b60405180910390f35b34801561024557600080fd5b50610260600480360381019061025b91906148db565b610b23565b005b34801561026e57600080fd5b50610289600480360381019061028491906147f7565b610c53565b6040516102969190615009565b60405180910390f35b3480156102ab57600080fd5b506102b4610c82565b6040516102c1919061521d565b60405180910390f35b3480156102d657600080fd5b506102df610c88565b005b3480156102ed57600080fd5b506102f6610ed5565b6040516103039190615090565b60405180910390f35b34801561031857600080fd5b50610321610efb565b005b34801561032f57600080fd5b506103386118f8565b604051610345919061503f565b60405180910390f35b34801561035a57600080fd5b5061037560048036038101906103709190614904565b61191e565b005b34801561038357600080fd5b5061039e600480360381019061039991906147a5565b611a4e565b6040516103ab919061521d565b60405180910390f35b3480156103c057600080fd5b506103db60048036038101906103d691906148b2565b611a66565b6040516103e891906150ab565b60405180910390f35b3480156103fd57600080fd5b50610406611bd7565b005b34801561041457600080fd5b5061042f600480360381019061042a91906147a5565b611e28565b60405161043c919061521d565b60405180910390f35b34801561045157600080fd5b5061045a611e71565b6040516104679190614edd565b60405180910390f35b34801561047c57600080fd5b50610485611e97565b005b34801561049357600080fd5b5061049c61228c565b005b3480156104aa57600080fd5b506104b36128c9565b005b3480156104c157600080fd5b506104ca613125565b005b3480156104d857600080fd5b506104e16139cd565b6040516104ee9190615024565b60405180910390f35b34801561050357600080fd5b5061051e60048036038101906105199190614833565b6139f3565b005b34801561052c57600080fd5b50610547600480360381019061054291906147a5565b613b45565b60405161055491906150ab565b60405180910390f35b34801561056957600080fd5b50610584600480360381019061057f91906147a5565b613c26565b6040516105919190615075565b60405180910390f35b3480156105a657600080fd5b506105af613c59565b005b3480156105bd57600080fd5b506105d860048036038101906105d391906147a5565b614296565b6040516105e59190615009565b60405180910390f35b3480156105fa57600080fd5b50610615600480360381019061061091906147a5565b6142b6565b6040516106229190615009565b60405180910390f35b602e6020528060005260406000206000915090508054600181600116156101000203166002900480601f0160208091040260200160405190810160405280929190818152602001828054600181600116156101000203166002900480156106d35780601f106106a8576101008083540402835291602001916106d3565b820191906000526020600020905b8154815290600101906020018083116106b657829003601f168201915b505050505081565b600080600460009054906101000a900473ffffffffffffffffffffffffffffffffffffffff1673ffffffffffffffffffffffffffffffffffffffff16603160003373ffffffffffffffffffffffffffffffffffffffff1673ffffffffffffffffffffffffffffffffffffffff16815260200190815260200160002060009054906101000a900473ffffffffffffffffffffffffffffffffffffffff1673ffffffffffffffffffffffffffffffffffffffff161061081a57600460009054906101000a900473ffffffffffffffffffffffffffffffffffffffff16603160003373ffffffffffffffffffffffffffffffffffffffff1673ffffffffffffffffffffffffffffffffffffffff16815260200190815260200160002060009054906101000a900473ffffffffffffffffffffffffffffffffffffffff1661089e565b603160003373ffffffffffffffffffffffffffffffffffffffff1673ffffffffffffffffffffffffffffffffffffffff16815260200190815260200160002060009054906101000a900473ffffffffffffffffffffffffffffffffffffffff16600460009054906101000a900473ffffffffffffffffffffffffffffffffffffffff165b915091506000600360009054906101000a900473ffffffffffffffffffffffffffffffffffffffff1673ffffffffffffffffffffffffffffffffffffffff1663e6a4390584846040518363ffffffff1660e01b8152600401610901929190614fe0565b60206040518083038186803b15801561091957600080fd5b505afa15801561092d573d6000803e3d6000fd5b505050506040513d601f19601f8201168201806040525081019061095191906147ce565b9050600073ffffffffffffffffffffffffffffffffffffffff168173ffffffffffffffffffffffffffffffffffffffff16141561098d57600080fd5b603060003373ffffffffffffffffffffffffffffffffffffffff1673ffffffffffffffffffffffffffffffffffffffff16815260200190815260200160002060006007815260200190815260200160002060009054906101000a900460ff16610aeb576001603060003373ffffffffffffffffffffffffffffffffffffffff1673ffffffffffffffffffffffffffffffffffffffff16815260200190815260200160002060006007815260200190815260200160002060006101000a81548160ff021916908315150217905550600160009054906101000a900473ffffffffffffffffffffffffffffffffffffffff1673ffffffffffffffffffffffffffffffffffffffff1663158a49883360056040518363ffffffff1660e01b8152600401610ab8929190614fb7565b600060405180830381600087803b158015610ad257600080fd5b505af1158015610ae6573d6000803e3d6000fd5b505050505b505050565b60326020528060005260406000206000915054906101000a900473ffffffffffffffffffffffffffffffffffffffff1681565b603360008273ffffffffffffffffffffffffffffffffffffffff1673ffffffffffffffffffffffffffffffffffffffff16815260200190815260200160002060009054906101000a900460ff1615610b7a57600080fd5b80603260003373ffffffffffffffffffffffffffffffffffffffff1673ffffffffffffffffffffffffffffffffffffffff16815260200190815260200160002060006101000a81548173ffffffffffffffffffffffffffffffffffffffff021916908373ffffffffffffffffffffffffffffffffffffffff1602179055506001603360008373ffffffffffffffffffffffffffffffffffffffff1673ffffffffffffffffffffffffffffffffffffffff16815260200190815260200160002060006101000a81548160ff02191690831515021790555050565b60306020528160005260406000206020528060005260406000206000915091509054906101000a900460ff1681565b602d5481565b6000600260009054906101000a900473ffffffffffffffffffffffffffffffffffffffff1673ffffffffffffffffffffffffffffffffffffffff166370a08231336040518263ffffffff1660e01b8152600401610ce59190614ef8565b60206040518083038186803b158015610cfd57600080fd5b505afa158015610d11573d6000803e3d6000fd5b505050506040513d601f19601f82011682018060405250810190610d3591906149bd565b11610d75576040517f08c379a0000000000000000000000000000000000000000000000000000000008152600401610d6c9061515d565b60405180910390fd5b603060003373ffffffffffffffffffffffffffffffffffffffff1673ffffffffffffffffffffffffffffffffffffffff16815260200190815260200160002060006001815260200190815260200160002060009054906101000a900460ff16610ed3576001603060003373ffffffffffffffffffffffffffffffffffffffff1673ffffffffffffffffffffffffffffffffffffffff16815260200190815260200160002060006001815260200190815260200160002060006101000a81548160ff021916908315150217905550600160009054906101000a900473ffffffffffffffffffffffffffffffffffffffff1673ffffffffffffffffffffffffffffffffffffffff1663158a49883360026040518363ffffffff1660e01b8152600401610ea0929190614f8e565b600060405180830381600087803b158015610eba57600080fd5b505af1158015610ece573d6000803e3d6000fd5b505050505b565b600360009054906101000a900473ffffffffffffffffffffffffffffffffffffffff1681565b600080600260009054906101000a900473ffffffffffffffffffffffffffffffffffffffff1673ffffffffffffffffffffffffffffffffffffffff16603160003373ffffffffffffffffffffffffffffffffffffffff1673ffffffffffffffffffffffffffffffffffffffff16815260200190815260200160002060009054906101000a900473ffffffffffffffffffffffffffffffffffffffff1673ffffffffffffffffffffffffffffffffffffffff161061103a57600260009054906101000a900473ffffffffffffffffffffffffffffffffffffffff16603160003373ffffffffffffffffffffffffffffffffffffffff1673ffffffffffffffffffffffffffffffffffffffff16815260200190815260200160002060009054906101000a900473ffffffffffffffffffffffffffffffffffffffff166110be565b603160003373ffffffffffffffffffffffffffffffffffffffff1673ffffffffffffffffffffffffffffffffffffffff16815260200190815260200160002060009054906101000a900473ffffffffffffffffffffffffffffffffffffffff16600260009054906101000a900473ffffffffffffffffffffffffffffffffffffffff165b915091506000600360009054906101000a900473ffffffffffffffffffffffffffffffffffffffff1673ffffffffffffffffffffffffffffffffffffffff1663e6a4390584846040518363ffffffff1660e01b8152600401611121929190614fe0565b60206040518083038186803b15801561113957600080fd5b505afa15801561114d573d6000803e3d6000fd5b505050506040513d601f19601f8201168201806040525081019061117191906147ce565b905060008190506000808273ffffffffffffffffffffffffffffffffffffffff16630902f1ac6040518163ffffffff1660e01b815260040160606040518083038186803b1580156111c157600080fd5b505afa1580156111d5573d6000803e3d6000fd5b505050506040513d601f19601f820116820180604052508101906111f9919061496e565b50915091506000603160003373ffffffffffffffffffffffffffffffffffffffff1673ffffffffffffffffffffffffffffffffffffffff16815260200190815260200160002060009054906101000a900473ffffffffffffffffffffffffffffffffffffffff1673ffffffffffffffffffffffffffffffffffffffff166370a08231336040518263ffffffff1660e01b81526004016112989190614ef8565b60206040518083038186803b1580156112b057600080fd5b505afa1580156112c4573d6000803e3d6000fd5b505050506040513d601f19601f820116820180604052508101906112e891906149bd565b90506000600260009054906101000a900473ffffffffffffffffffffffffffffffffffffffff1673ffffffffffffffffffffffffffffffffffffffff166370a08231336040518263ffffffff1660e01b81526004016113479190614ef8565b60206040518083038186803b15801561135f57600080fd5b505afa158015611373573d6000803e3d6000fd5b505050506040513d601f19601f8201168201806040525081019061139791906149bd565b9050603260003373ffffffffffffffffffffffffffffffffffffffff1673ffffffffffffffffffffffffffffffffffffffff16815260200190815260200160002060009054906101000a900473ffffffffffffffffffffffffffffffffffffffff1673ffffffffffffffffffffffffffffffffffffffff16637c587b226040518163ffffffff1660e01b8152600401600060405180830381600087803b15801561144057600080fd5b505af1158015611454573d6000803e3d6000fd5b505050506000808673ffffffffffffffffffffffffffffffffffffffff16630902f1ac6040518163ffffffff1660e01b815260040160606040518083038186803b1580156114a157600080fd5b505afa1580156114b5573d6000803e3d6000fd5b505050506040513d601f19601f820116820180604052508101906114d9919061496e565b5091509150816dffffffffffffffffffffffffffff16866dffffffffffffffffffffffffffff1610801561152c5750806dffffffffffffffffffffffffffff16856dffffffffffffffffffffffffffff16105b61156b576040517f08c379a0000000000000000000000000000000000000000000000000000000008152600401611562906151bd565b60405180910390fd5b6000603160003373ffffffffffffffffffffffffffffffffffffffff1673ffffffffffffffffffffffffffffffffffffffff16815260200190815260200160002060009054906101000a900473ffffffffffffffffffffffffffffffffffffffff1673ffffffffffffffffffffffffffffffffffffffff166370a08231336040518263ffffffff1660e01b81526004016116059190614ef8565b60206040518083038186803b15801561161d57600080fd5b505afa158015611631573d6000803e3d6000fd5b505050506040513d601f19601f8201168201806040525081019061165591906149bd565b90508085141561169a576040517f08c379a00000000000000000000000000000000000000000000000000000000081526004016116919061511d565b60405180910390fd5b6000600260009054906101000a900473ffffffffffffffffffffffffffffffffffffffff1673ffffffffffffffffffffffffffffffffffffffff166370a08231336040518263ffffffff1660e01b81526004016116f79190614ef8565b60206040518083038186803b15801561170f57600080fd5b505afa158015611723573d6000803e3d6000fd5b505050506040513d601f19601f8201168201806040525081019061174791906149bd565b90508085141561178c576040517f08c379a00000000000000000000000000000000000000000000000000000000081526004016117839061511d565b60405180910390fd5b603060003373ffffffffffffffffffffffffffffffffffffffff1673ffffffffffffffffffffffffffffffffffffffff16815260200190815260200160002060006009815260200190815260200160002060009054906101000a900460ff166118ea576001603060003373ffffffffffffffffffffffffffffffffffffffff1673ffffffffffffffffffffffffffffffffffffffff16815260200190815260200160002060006009815260200190815260200160002060006101000a81548160ff021916908315150217905550600160009054906101000a900473ffffffffffffffffffffffffffffffffffffffff1673ffffffffffffffffffffffffffffffffffffffff1663158a49883360026040518363ffffffff1660e01b81526004016118b7929190614f8e565b600060405180830381600087803b1580156118d157600080fd5b505af11580156118e5573d6000803e3d6000fd5b505050505b505050505050505050505050565b600260009054906101000a900473ffffffffffffffffffffffffffffffffffffffff1681565b603360008273ffffffffffffffffffffffffffffffffffffffff1673ffffffffffffffffffffffffffffffffffffffff16815260200190815260200160002060009054906101000a900460ff161561197557600080fd5b80603160003373ffffffffffffffffffffffffffffffffffffffff1673ffffffffffffffffffffffffffffffffffffffff16815260200190815260200160002060006101000a81548173ffffffffffffffffffffffffffffffffffffffff021916908373ffffffffffffffffffffffffffffffffffffffff1602179055506001603360008373ffffffffffffffffffffffffffffffffffffffff1673ffffffffffffffffffffffffffffffffffffffff16815260200190815260200160002060006101000a81548160ff02191690831515021790555050565b602f6020528060005260406000206000915090505481565b606060005b60208160ff16108015611ab65750600060f81b838260ff1660208110611a8d57fe5b1a60f81b7effffffffffffffffffffffffffffffffffffffffffffffffffffffffffffff191614155b15611ac8578080600101915050611a6b565b60608160ff1667ffffffffffffffff81118015611ae457600080fd5b506040519080825280601f01601f191660200182016040528015611b175781602001600182028036833780820191505090505b509050600091505b60208260ff16108015611b6a5750600060f81b848360ff1660208110611b4157fe5b1a60f81b7effffffffffffffffffffffffffffffffffffffffffffffffffffffffffffff191614155b15611bcd57838260ff1660208110611b7e57fe5b1a60f81b818360ff1681518110611b9157fe5b60200101907effffffffffffffffffffffffffffffffffffffffffffffffffffffffffffff1916908160001a9053508180600101925050611b1f565b8092505050919050565b670de0b6b3a76400006005602d5460148110611bef57fe5b015402602f60003373ffffffffffffffffffffffffffffffffffffffff1673ffffffffffffffffffffffffffffffffffffffff168152602001908152602001600020819055506019602d5460148110611c4457fe5b01602e60003373ffffffffffffffffffffffffffffffffffffffff1673ffffffffffffffffffffffffffffffffffffffff1681526020019081526020016000209080546001816001161561010002031660029004611ca392919061432f565b506001602d600082825401925050819055506014602d5410611cc8576000602d819055505b603060003373ffffffffffffffffffffffffffffffffffffffff1673ffffffffffffffffffffffffffffffffffffffff16815260200190815260200160002060006005815260200190815260200160002060009054906101000a900460ff16611e26576001603060003373ffffffffffffffffffffffffffffffffffffffff1673ffffffffffffffffffffffffffffffffffffffff16815260200190815260200160002060006005815260200190815260200160002060006101000a81548160ff021916908315150217905550600160009054906101000a900473ffffffffffffffffffffffffffffffffffffffff1673ffffffffffffffffffffffffffffffffffffffff1663158a49883360026040518363ffffffff1660e01b8152600401611df3929190614f8e565b600060405180830381600087803b158015611e0d57600080fd5b505af1158015611e21573d6000803e3d6000fd5b505050505b565b6000602f60008373ffffffffffffffffffffffffffffffffffffffff1673ffffffffffffffffffffffffffffffffffffffff168152602001908152602001600020549050919050565b600460009054906101000a900473ffffffffffffffffffffffffffffffffffffffff1681565b600080600460009054906101000a900473ffffffffffffffffffffffffffffffffffffffff1673ffffffffffffffffffffffffffffffffffffffff16600260009054906101000a900473ffffffffffffffffffffffffffffffffffffffff1673ffffffffffffffffffffffffffffffffffffffff1610611f5c57600460009054906101000a900473ffffffffffffffffffffffffffffffffffffffff16600260009054906101000a900473ffffffffffffffffffffffffffffffffffffffff16611fa3565b600260009054906101000a900473ffffffffffffffffffffffffffffffffffffffff16600460009054906101000a900473ffffffffffffffffffffffffffffffffffffffff165b915091506000600360009054906101000a900473ffffffffffffffffffffffffffffffffffffffff1673ffffffffffffffffffffffffffffffffffffffff1663e6a4390584846040518363ffffffff1660e01b8152600401612006929190614fe0565b60206040518083038186803b15801561201e57600080fd5b505afa158015612032573d6000803e3d6000fd5b505050506040513d601f19601f8201168201806040525081019061205691906147ce565b9050600081905060008173ffffffffffffffffffffffffffffffffffffffff166370a08231336040518263ffffffff1660e01b81526004016120989190614ef8565b60206040518083038186803b1580156120b057600080fd5b505afa1580156120c4573d6000803e3d6000fd5b505050506040513d601f19601f820116820180604052508101906120e891906149bd565b11612128576040517f08c379a000000000000000000000000000000000000000000000000000000000815260040161211f9061517d565b60405180910390fd5b603060003373ffffffffffffffffffffffffffffffffffffffff1673ffffffffffffffffffffffffffffffffffffffff16815260200190815260200160002060006002815260200190815260200160002060009054906101000a900460ff16612286576001603060003373ffffffffffffffffffffffffffffffffffffffff1673ffffffffffffffffffffffffffffffffffffffff16815260200190815260200160002060006002815260200190815260200160002060006101000a81548160ff021916908315150217905550600160009054906101000a900473ffffffffffffffffffffffffffffffffffffffff1673ffffffffffffffffffffffffffffffffffffffff1663158a49883360026040518363ffffffff1660e01b8152600401612253929190614f8e565b600060405180830381600087803b15801561226d57600080fd5b505af1158015612281573d6000803e3d6000fd5b505050505b50505050565b600080600460009054906101000a900473ffffffffffffffffffffffffffffffffffffffff1673ffffffffffffffffffffffffffffffffffffffff16603160003373ffffffffffffffffffffffffffffffffffffffff1673ffffffffffffffffffffffffffffffffffffffff16815260200190815260200160002060009054906101000a900473ffffffffffffffffffffffffffffffffffffffff1673ffffffffffffffffffffffffffffffffffffffff16106123cb57600460009054906101000a900473ffffffffffffffffffffffffffffffffffffffff16603160003373ffffffffffffffffffffffffffffffffffffffff1673ffffffffffffffffffffffffffffffffffffffff16815260200190815260200160002060009054906101000a900473ffffffffffffffffffffffffffffffffffffffff1661244f565b603160003373ffffffffffffffffffffffffffffffffffffffff1673ffffffffffffffffffffffffffffffffffffffff16815260200190815260200160002060009054906101000a900473ffffffffffffffffffffffffffffffffffffffff16600460009054906101000a900473ffffffffffffffffffffffffffffffffffffffff165b915091506000600360009054906101000a900473ffffffffffffffffffffffffffffffffffffffff1673ffffffffffffffffffffffffffffffffffffffff1663e6a4390584846040518363ffffffff1660e01b81526004016124b2929190614fe0565b60206040518083038186803b1580156124ca57600080fd5b505afa1580156124de573d6000803e3d6000fd5b505050506040513d601f19601f8201168201806040525081019061250291906147ce565b905060008190506000808273ffffffffffffffffffffffffffffffffffffffff16630902f1ac6040518163ffffffff1660e01b815260040160606040518083038186803b15801561255257600080fd5b505afa158015612566573d6000803e3d6000fd5b505050506040513d601f19601f8201168201806040525081019061258a919061496e565b5091509150603260003373ffffffffffffffffffffffffffffffffffffffff1673ffffffffffffffffffffffffffffffffffffffff16815260200190815260200160002060009054906101000a900473ffffffffffffffffffffffffffffffffffffffff1673ffffffffffffffffffffffffffffffffffffffff16637ea382c16040518163ffffffff1660e01b8152600401600060405180830381600087803b15801561263657600080fd5b505af115801561264a573d6000803e3d6000fd5b505050506000808473ffffffffffffffffffffffffffffffffffffffff16630902f1ac6040518163ffffffff1660e01b815260040160606040518083038186803b15801561269757600080fd5b505afa1580156126ab573d6000803e3d6000fd5b505050506040513d601f19601f820116820180604052508101906126cf919061496e565b5091509150816dffffffffffffffffffffffffffff16846dffffffffffffffffffffffffffff161180156127225750806dffffffffffffffffffffffffffff16836dffffffffffffffffffffffffffff16115b612761576040517f08c379a0000000000000000000000000000000000000000000000000000000008152600401612758906151bd565b60405180910390fd5b603060003373ffffffffffffffffffffffffffffffffffffffff1673ffffffffffffffffffffffffffffffffffffffff1681526020019081526020016000206000600b815260200190815260200160002060009054906101000a900460ff166128bf576001603060003373ffffffffffffffffffffffffffffffffffffffff1673ffffffffffffffffffffffffffffffffffffffff1681526020019081526020016000206000600b815260200190815260200160002060006101000a81548160ff021916908315150217905550600160009054906101000a900473ffffffffffffffffffffffffffffffffffffffff1673ffffffffffffffffffffffffffffffffffffffff1663158a49883360026040518363ffffffff1660e01b815260040161288c929190614f8e565b600060405180830381600087803b1580156128a657600080fd5b505af11580156128ba573d6000803e3d6000fd5b505050505b5050505050505050565b600080600460009054906101000a900473ffffffffffffffffffffffffffffffffffffffff1673ffffffffffffffffffffffffffffffffffffffff16603160003373ffffffffffffffffffffffffffffffffffffffff1673ffffffffffffffffffffffffffffffffffffffff16815260200190815260200160002060009054906101000a900473ffffffffffffffffffffffffffffffffffffffff1673ffffffffffffffffffffffffffffffffffffffff1610612a0857600460009054906101000a900473ffffffffffffffffffffffffffffffffffffffff16603160003373ffffffffffffffffffffffffffffffffffffffff1673ffffffffffffffffffffffffffffffffffffffff16815260200190815260200160002060009054906101000a900473ffffffffffffffffffffffffffffffffffffffff16612a8c565b603160003373ffffffffffffffffffffffffffffffffffffffff1673ffffffffffffffffffffffffffffffffffffffff16815260200190815260200160002060009054906101000a900473ffffffffffffffffffffffffffffffffffffffff16600460009054906101000a900473ffffffffffffffffffffffffffffffffffffffff165b915091506000600360009054906101000a900473ffffffffffffffffffffffffffffffffffffffff1673ffffffffffffffffffffffffffffffffffffffff1663e6a4390584846040518363ffffffff1660e01b8152600401612aef929190614fe0565b60206040518083038186803b158015612b0757600080fd5b505afa158015612b1b573d6000803e3d6000fd5b505050506040513d601f19601f82011682018060405250810190612b3f91906147ce565b905060008190506000808273ffffffffffffffffffffffffffffffffffffffff16630902f1ac6040518163ffffffff1660e01b815260040160606040518083038186803b158015612b8f57600080fd5b505afa158015612ba3573d6000803e3d6000fd5b505050506040513d601f19601f82011682018060405250810190612bc7919061496e565b50915091506000603160003373ffffffffffffffffffffffffffffffffffffffff1673ffffffffffffffffffffffffffffffffffffffff16815260200190815260200160002060009054906101000a900473ffffffffffffffffffffffffffffffffffffffff1673ffffffffffffffffffffffffffffffffffffffff166370a08231336040518263ffffffff1660e01b8152600401612c669190614ef8565b60206040518083038186803b158015612c7e57600080fd5b505afa158015612c92573d6000803e3d6000fd5b505050506040513d601f19601f82011682018060405250810190612cb691906149bd565b9050603260003373ffffffffffffffffffffffffffffffffffffffff1673ffffffffffffffffffffffffffffffffffffffff16815260200190815260200160002060009054906101000a900473ffffffffffffffffffffffffffffffffffffffff1673ffffffffffffffffffffffffffffffffffffffff1663c4a859936040518163ffffffff1660e01b8152600401600060405180830381600087803b158015612d5f57600080fd5b505af1158015612d73573d6000803e3d6000fd5b505050506000808573ffffffffffffffffffffffffffffffffffffffff16630902f1ac6040518163ffffffff1660e01b815260040160606040518083038186803b158015612dc057600080fd5b505afa158015612dd4573d6000803e3d6000fd5b505050506040513d601f19601f82011682018060405250810190612df8919061496e565b5091509150816dffffffffffffffffffffffffffff16856dffffffffffffffffffffffffffff1614158015612e4d5750806dffffffffffffffffffffffffffff16846dffffffffffffffffffffffffffff1614155b612e8c576040517f08c379a0000000000000000000000000000000000000000000000000000000008152600401612e83906151bd565b60405180910390fd5b6000603160003373ffffffffffffffffffffffffffffffffffffffff1673ffffffffffffffffffffffffffffffffffffffff16815260200190815260200160002060009054906101000a900473ffffffffffffffffffffffffffffffffffffffff1673ffffffffffffffffffffffffffffffffffffffff166370a08231336040518263ffffffff1660e01b8152600401612f269190614ef8565b60206040518083038186803b158015612f3e57600080fd5b505afa158015612f52573d6000803e3d6000fd5b505050506040513d601f19601f82011682018060405250810190612f7691906149bd565b905080841415612fbb576040517f08c379a0000000000000000000000000000000000000000000000000000000008152600401612fb29061511d565b60405180910390fd5b603060003373ffffffffffffffffffffffffffffffffffffffff1673ffffffffffffffffffffffffffffffffffffffff16815260200190815260200160002060006008815260200190815260200160002060009054906101000a900460ff16613119576001603060003373ffffffffffffffffffffffffffffffffffffffff1673ffffffffffffffffffffffffffffffffffffffff16815260200190815260200160002060006008815260200190815260200160002060006101000a81548160ff021916908315150217905550600160009054906101000a900473ffffffffffffffffffffffffffffffffffffffff1673ffffffffffffffffffffffffffffffffffffffff1663158a49883360016040518363ffffffff1660e01b81526004016130e6929190614f65565b600060405180830381600087803b15801561310057600080fd5b505af1158015613114573d6000803e3d6000fd5b505050505b50505050505050505050565b603060003373ffffffffffffffffffffffffffffffffffffffff1673ffffffffffffffffffffffffffffffffffffffff16815260200190815260200160002060006005815260200190815260200160002060009054906101000a900460ff1661318d57600080fd5b61334f602e60003373ffffffffffffffffffffffffffffffffffffffff1673ffffffffffffffffffffffffffffffffffffffff1681526020019081526020016000208054600181600116156101000203166002900480601f0160208091040260200160405190810160405280929190818152602001828054600181600116156101000203166002900480156132635780601f1061323857610100808354040283529160200191613263565b820191906000526020600020905b81548152906001019060200180831161324657829003601f168201915b5050505050603160003373ffffffffffffffffffffffffffffffffffffffff1673ffffffffffffffffffffffffffffffffffffffff16815260200190815260200160002060009054906101000a900473ffffffffffffffffffffffffffffffffffffffff1673ffffffffffffffffffffffffffffffffffffffff166395d89b416040518163ffffffff1660e01b815260040160006040518083038186803b15801561330d57600080fd5b505afa158015613321573d6000803e3d6000fd5b505050506040513d6000823e3d601f19601f8201168201806040525081019061334a919061492d565b6142d6565b61338e576040517f08c379a00000000000000000000000000000000000000000000000000000000081526004016133859061513d565b60405180910390fd5b603160003373ffffffffffffffffffffffffffffffffffffffff1673ffffffffffffffffffffffffffffffffffffffff16815260200190815260200160002060009054906101000a900473ffffffffffffffffffffffffffffffffffffffff1673ffffffffffffffffffffffffffffffffffffffff166318160ddd6040518163ffffffff1660e01b815260040160206040518083038186803b15801561343357600080fd5b505afa158015613447573d6000803e3d6000fd5b505050506040513d601f19601f8201168201806040525081019061346b91906149bd565b602f60003373ffffffffffffffffffffffffffffffffffffffff1673ffffffffffffffffffffffffffffffffffffffff16815260200190815260200160002054146134eb576040517f08c379a00000000000000000000000000000000000000000000000000000000081526004016134e2906151dd565b60405180910390fd5b6000603160003373ffffffffffffffffffffffffffffffffffffffff1673ffffffffffffffffffffffffffffffffffffffff16815260200190815260200160002060009054906101000a900473ffffffffffffffffffffffffffffffffffffffff1673ffffffffffffffffffffffffffffffffffffffff1663dd62ed3e30336040518363ffffffff1660e01b8152600401613587929190614f13565b60206040518083038186803b15801561359f57600080fd5b505afa1580156135b3573d6000803e3d6000fd5b505050506040513d601f19601f820116820180604052508101906135d791906149bd565b14613617576040517f08c379a000000000000000000000000000000000000000000000000000000000815260040161360e906151fd565b60405180910390fd5b6000603160003373ffffffffffffffffffffffffffffffffffffffff1673ffffffffffffffffffffffffffffffffffffffff16815260200190815260200160002060009054906101000a900473ffffffffffffffffffffffffffffffffffffffff1673ffffffffffffffffffffffffffffffffffffffff166370a08231306040518263ffffffff1660e01b81526004016136b19190614ef8565b60206040518083038186803b1580156136c957600080fd5b505afa1580156136dd573d6000803e3d6000fd5b505050506040513d601f19601f8201168201806040525081019061370191906149bd565b14613741576040517f08c379a00000000000000000000000000000000000000000000000000000000081526004016137389061519d565b60405180910390fd5b603160003373ffffffffffffffffffffffffffffffffffffffff1673ffffffffffffffffffffffffffffffffffffffff16815260200190815260200160002060009054906101000a900473ffffffffffffffffffffffffffffffffffffffff1673ffffffffffffffffffffffffffffffffffffffff1663095ea7b333600a6040518363ffffffff1660e01b81526004016137dc929190614f3c565b602060405180830381600087803b1580156137f657600080fd5b505af115801561380a573d6000803e3d6000fd5b505050506040513d601f19601f8201168201806040525081019061382e9190614889565b61386d576040517f08c379a0000000000000000000000000000000000000000000000000000000008152600401613864906150fd565b60405180910390fd5b603060003373ffffffffffffffffffffffffffffffffffffffff1673ffffffffffffffffffffffffffffffffffffffff16815260200190815260200160002060006006815260200190815260200160002060009054906101000a900460ff166139cb576001603060003373ffffffffffffffffffffffffffffffffffffffff1673ffffffffffffffffffffffffffffffffffffffff16815260200190815260200160002060006006815260200190815260200160002060006101000a81548160ff021916908315150217905550600160009054906101000a900473ffffffffffffffffffffffffffffffffffffffff1673ffffffffffffffffffffffffffffffffffffffff1663158a49883360026040518363ffffffff1660e01b8152600401613998929190614f8e565b600060405180830381600087803b1580156139b257600080fd5b505af11580156139c6573d6000803e3d6000fd5b505050505b565b600160009054906101000a900473ffffffffffffffffffffffffffffffffffffffff1681565b600160009054906101000a900473ffffffffffffffffffffffffffffffffffffffff1673ffffffffffffffffffffffffffffffffffffffff1663f0a47f78336040518263ffffffff1660e01b8152600401613a4e9190614ef8565b60206040518083038186803b158015613a6657600080fd5b505afa158015613a7a573d6000803e3d6000fd5b505050506040513d601f19601f82011682018060405250810190613a9e9190614889565b613aa757600080fd5b816005906014613ab89291906143b6565b50806019906014613aca9291906143f6565b506000602d8190555060005b6014811015613b40577fcc783cf5d663570e7c7576cec91f24975b35b957c8dd67766710be25c48cf60260198260148110613b0d57fe5b0160058360148110613b1b57fe5b0154604051613b2b9291906150cd565b60405180910390a18080600101915050613ad6565b505050565b6060602e60008373ffffffffffffffffffffffffffffffffffffffff1673ffffffffffffffffffffffffffffffffffffffff1681526020019081526020016000208054600181600116156101000203166002900480601f016020809104026020016040519081016040528092919081815260200182805460018160011615610100020316600290048015613c1a5780601f10613bef57610100808354040283529160200191613c1a565b820191906000526020600020905b815481529060010190602001808311613bfd57829003601f168201915b50505050509050919050565b60316020528060005260406000206000915054906101000a900473ffffffffffffffffffffffffffffffffffffffff1681565b600080600460009054906101000a900473ffffffffffffffffffffffffffffffffffffffff1673ffffffffffffffffffffffffffffffffffffffff16603160003373ffffffffffffffffffffffffffffffffffffffff1673ffffffffffffffffffffffffffffffffffffffff16815260200190815260200160002060009054906101000a900473ffffffffffffffffffffffffffffffffffffffff1673ffffffffffffffffffffffffffffffffffffffff1610613d9857600460009054906101000a900473ffffffffffffffffffffffffffffffffffffffff16603160003373ffffffffffffffffffffffffffffffffffffffff1673ffffffffffffffffffffffffffffffffffffffff16815260200190815260200160002060009054906101000a900473ffffffffffffffffffffffffffffffffffffffff16613e1c565b603160003373ffffffffffffffffffffffffffffffffffffffff1673ffffffffffffffffffffffffffffffffffffffff16815260200190815260200160002060009054906101000a900473ffffffffffffffffffffffffffffffffffffffff16600460009054906101000a900473ffffffffffffffffffffffffffffffffffffffff165b915091506000600360009054906101000a900473ffffffffffffffffffffffffffffffffffffffff1673ffffffffffffffffffffffffffffffffffffffff1663e6a4390584846040518363ffffffff1660e01b8152600401613e7f929190614fe0565b60206040518083038186803b158015613e9757600080fd5b505afa158015613eab573d6000803e3d6000fd5b505050506040513d601f19601f82011682018060405250810190613ecf91906147ce565b905060008190506000808273ffffffffffffffffffffffffffffffffffffffff16630902f1ac6040518163ffffffff1660e01b815260040160606040518083038186803b158015613f1f57600080fd5b505afa158015613f33573d6000803e3d6000fd5b505050506040513d601f19601f82011682018060405250810190613f57919061496e565b5091509150603260003373ffffffffffffffffffffffffffffffffffffffff1673ffffffffffffffffffffffffffffffffffffffff16815260200190815260200160002060009054906101000a900473ffffffffffffffffffffffffffffffffffffffff1673ffffffffffffffffffffffffffffffffffffffff1663e8078d946040518163ffffffff1660e01b8152600401600060405180830381600087803b15801561400357600080fd5b505af1158015614017573d6000803e3d6000fd5b505050506000808473ffffffffffffffffffffffffffffffffffffffff16630902f1ac6040518163ffffffff1660e01b815260040160606040518083038186803b15801561406457600080fd5b505afa158015614078573d6000803e3d6000fd5b505050506040513d601f19601f8201168201806040525081019061409c919061496e565b5091509150816dffffffffffffffffffffffffffff16846dffffffffffffffffffffffffffff161080156140ef5750806dffffffffffffffffffffffffffff16836dffffffffffffffffffffffffffff16105b61412e576040517f08c379a0000000000000000000000000000000000000000000000000000000008152600401614125906151bd565b60405180910390fd5b603060003373ffffffffffffffffffffffffffffffffffffffff1673ffffffffffffffffffffffffffffffffffffffff1681526020019081526020016000206000600a815260200190815260200160002060009054906101000a900460ff1661428c576001603060003373ffffffffffffffffffffffffffffffffffffffff1673ffffffffffffffffffffffffffffffffffffffff1681526020019081526020016000206000600a815260200190815260200160002060006101000a81548160ff021916908315150217905550600160009054906101000a900473ffffffffffffffffffffffffffffffffffffffff1673ffffffffffffffffffffffffffffffffffffffff1663158a49883360026040518363ffffffff1660e01b8152600401614259929190614f8e565b600060405180830381600087803b15801561427357600080fd5b505af1158015614287573d6000803e3d6000fd5b505050505b5050505050505050565b60006020528060005260406000206000915054906101000a900460ff1681565b60336020528060005260406000206000915054906101000a900460ff1681565b6000816040516020016142e99190614ec6565b60405160208183030381529060405280519060200120836040516020016143109190614ec6565b6040516020818303038152906040528051906020012014905092915050565b828054600181600116156101000203166002900490600052602060002090601f016020900481019282601f1061436857805485556143a5565b828001600101855582156143a557600052602060002091601f016020900482015b828111156143a4578254825591600101919060010190614389565b5b5090506143b29190614449565b5090565b82601481019282156143e5579160200282015b828111156143e45782518255916020019190600101906143c9565b5b5090506143f29190614449565b5090565b8260148101928215614438579160200282015b82811115614437578251829080519060200190614427929190614466565b5091602001919060010190614409565b5b50905061444591906144e6565b5090565b5b8082111561446257600081600090555060010161444a565b5090565b828054600181600116156101000203166002900490600052602060002090601f016020900481019282601f106144a757805160ff19168380011785556144d5565b828001600101855582156144d5579182015b828111156144d45782518255916020019190600101906144b9565b5b5090506144e29190614449565b5090565b5b8082111561450657600081816144fd919061450a565b506001016144e7565b5090565b50805460018160011615610100020316600290046000825580601f10614530575061454f565b601f01602090049060005260206000209081019061454e9190614449565b5b50565b60008135905061456181615536565b92915050565b60008151905061457681615536565b92915050565b600082601f83011261458d57600080fd5b60146145a061459b82615265565b615238565b9150818360005b838110156145d757813586016145bd88826146a9565b8452602084019350602083019250506001810190506145a7565b5050505092915050565b600082601f8301126145f257600080fd5b601461460561460082615287565b615238565b9150818385602084028201111561461b57600080fd5b60005b8381101561464b57816146318882614766565b84526020840193506020830192505060018101905061461e565b5050505092915050565b6000815190506146648161554d565b92915050565b60008135905061467981615564565b92915050565b60008135905061468e8161557b565b92915050565b6000813590506146a381615592565b92915050565b600082601f8301126146ba57600080fd5b81356146cd6146c8826152a9565b615238565b915080825260208301602083018583830111156146e957600080fd5b6146f48382846154e3565b50505092915050565b600082601f83011261470e57600080fd5b815161472161471c826152a9565b615238565b9150808252602083016020830185838301111561473d57600080fd5b6147488382846154f2565b50505092915050565b600081519050614760816155a9565b92915050565b600081359050614775816155c0565b92915050565b60008151905061478a816155c0565b92915050565b60008151905061479f816155d7565b92915050565b6000602082840312156147b757600080fd5b60006147c584828501614552565b91505092915050565b6000602082840312156147e057600080fd5b60006147ee84828501614567565b91505092915050565b6000806040838503121561480a57600080fd5b600061481885828601614552565b925050602061482985828601614766565b9150509250929050565b6000806102a0838503121561484757600080fd5b6000614855858286016145e1565b92505061028083013567ffffffffffffffff81111561487357600080fd5b61487f8582860161457c565b9150509250929050565b60006020828403121561489b57600080fd5b60006148a984828501614655565b91505092915050565b6000602082840312156148c457600080fd5b60006148d28482850161466a565b91505092915050565b6000602082840312156148ed57600080fd5b60006148fb8482850161467f565b91505092915050565b60006020828403121561491657600080fd5b600061492484828501614694565b91505092915050565b60006020828403121561493f57600080fd5b600082015167ffffffffffffffff81111561495957600080fd5b614965848285016146fd565b91505092915050565b60008060006060848603121561498357600080fd5b600061499186828701614751565b93505060206149a286828701614751565b92505060406149b386828701614790565b9150509250925092565b6000602082840312156149cf57600080fd5b60006149dd8482850161477b565b91505092915050565b6149ef816153b1565b82525050565b6149fe81615311565b82525050565b614a0d81615323565b82525050565b614a1c816153c3565b82525050565b614a2b816153e7565b82525050565b614a3a8161540b565b82525050565b614a498161542f565b82525050565b614a5881615453565b82525050565b614a6781615477565b82525050565b614a7681615489565b82525050565b614a858161549b565b82525050565b614a94816154ad565b82525050565b6000614aa5826152ea565b614aaf81856152f5565b9350614abf8185602086016154f2565b614ac881615525565b840191505092915050565b6000614ade826152ea565b614ae88185615306565b9350614af88185602086016154f2565b80840191505092915050565b600081546001811660008114614b215760018114614b4757614b8b565b607f6002830416614b3281876152f5565b955060ff198316865260208601935050614b8b565b60028204614b5581876152f5565b9550614b60856152d5565b60005b82811015614b8257815481890152600182019150602081019050614b63565b80880195505050505b505092915050565b6000614ba06017836152f5565b91507f417070726f7665206e6f7420696d706c656d656e7465640000000000000000006000830152602082019050919050565b6000614be06027836152f5565b91507f596f75207374696c6c2068617665207468652073616d6520616d6f6e74206f6660008301527f20746f6b656e73000000000000000000000000000000000000000000000000006020830152604082019050919050565b6000614c466010836152f5565b91507f496e636f7272656374207469636b6572000000000000000000000000000000006000830152602082019050919050565b6000614c866030836152f5565b91507f596f7520646f206e6f7420686f6c642064756d6d79546f6b656e732e2042757960008301527f207468656d206f6e20556e6973776170000000000000000000000000000000006020830152604082019050919050565b6000614cec602e836152f5565b91507f596f7520646f206e6f7420686f6c64206c697175696469747920696e2074686560008301527f20726571756972656420706f6f6c0000000000000000000000000000000000006020830152604082019050919050565b6000614d52602c836152f5565b91507f42616c616e63654f66206e6f7420696d706c656d656e746564206f7220696e6360008301527f6f72726563746c792073657400000000000000000000000000000000000000006020830152604082019050919050565b6000614db86028836152f5565b91507f4e6f206c6971756964697479206368616e676520696e20796f757220746f6b6560008301527f6e277320706f6f6c0000000000000000000000000000000000000000000000006020830152604082019050919050565b6000614e1e6010836152f5565b91507f496e636f727265637420737570706c79000000000000000000000000000000006000830152602082019050919050565b6000614e5e602c836152f5565b91507f416c6c6f77616e6365206e6f7420696d706c656d656e746564206f7220696e6360008301527f6f72726563746c792073657400000000000000000000000000000000000000006020830152604082019050919050565b614ec081615397565b82525050565b6000614ed28284614ad3565b915081905092915050565b6000602082019050614ef260008301846149f5565b92915050565b6000602082019050614f0d60008301846149e6565b92915050565b6000604082019050614f2860008301856149e6565b614f3560208301846149e6565b9392505050565b6000604082019050614f5160008301856149e6565b614f5e6020830184614a5e565b9392505050565b6000604082019050614f7a60008301856149e6565b614f876020830184614a6d565b9392505050565b6000604082019050614fa360008301856149e6565b614fb06020830184614a7c565b9392505050565b6000604082019050614fcc60008301856149e6565b614fd96020830184614a8b565b9392505050565b6000604082019050614ff560008301856149f5565b61500260208301846149f5565b9392505050565b600060208201905061501e6000830184614a04565b92915050565b60006020820190506150396000830184614a13565b92915050565b60006020820190506150546000830184614a22565b92915050565b600060208201905061506f6000830184614a31565b92915050565b600060208201905061508a6000830184614a40565b92915050565b60006020820190506150a56000830184614a4f565b92915050565b600060208201905081810360008301526150c58184614a9a565b905092915050565b600060408201905081810360008301526150e78185614b04565b90506150f66020830184614eb7565b9392505050565b6000602082019050818103600083015261511681614b93565b9050919050565b6000602082019050818103600083015261513681614bd3565b9050919050565b6000602082019050818103600083015261515681614c39565b9050919050565b6000602082019050818103600083015261517681614c79565b9050919050565b6000602082019050818103600083015261519681614cdf565b9050919050565b600060208201905081810360008301526151b681614d45565b9050919050565b600060208201905081810360008301526151d681614dab565b9050919050565b600060208201905081810360008301526151f681614e11565b9050919050565b6000602082019050818103600083015261521681614e51565b9050919050565b60006020820190506152326000830184614eb7565b92915050565b6000604051905081810181811067ffffffffffffffff8211171561525b57600080fd5b8060405250919050565b600067ffffffffffffffff82111561527c57600080fd5b602082029050919050565b600067ffffffffffffffff82111561529e57600080fd5b602082029050919050565b600067ffffffffffffffff8211156152c057600080fd5b601f19601f8301169050602081019050919050565b60008190508160005260206000209050919050565b600081519050919050565b600082825260208201905092915050565b600081905092915050565b600061531c82615377565b9050919050565b60008115159050919050565b6000819050919050565b600061534482615311565b9050919050565b600061535682615311565b9050919050565b60006dffffffffffffffffffffffffffff82169050919050565b600073ffffffffffffffffffffffffffffffffffffffff82169050919050565b6000819050919050565b600063ffffffff82169050919050565b60006153bc826154bf565b9050919050565b60006153ce826153d5565b9050919050565b60006153e082615377565b9050919050565b60006153f2826153f9565b9050919050565b600061540482615377565b9050919050565b60006154168261541d565b9050919050565b600061542882615377565b9050919050565b600061543a82615441565b9050919050565b600061544c82615377565b9050919050565b600061545e82615465565b9050919050565b600061547082615377565b9050919050565b600061548282615397565b9050919050565b600061549482615397565b9050919050565b60006154a682615397565b9050919050565b60006154b882615397565b9050919050565b60006154ca826154d1565b9050919050565b60006154dc82615377565b9050919050565b82818337600083830152505050565b60005b838110156155105780820151818401526020810190506154f5565b8381111561551f576000848401525b50505050565b6000601f19601f8301169050919050565b61553f81615311565b811461554a57600080fd5b50565b61555681615323565b811461556157600080fd5b50565b61556d8161532f565b811461557857600080fd5b50565b61558481615339565b811461558f57600080fd5b50565b61559b8161534b565b81146155a657600080fd5b50565b6155b28161535d565b81146155bd57600080fd5b50565b6155c981615397565b81146155d457600080fd5b50565b6155e0816153a1565b81146155eb57600080fd5b5056fea264697066735822122070113ed24c5e199811af26e3a169e125b6403559efa25fa9507d75a4f3867e8464736f6c634300060c0033",
  "immutableReferences": {},
  "source": "pragma solidity ^0.6.0;\npragma experimental ABIEncoderV2;\n\nimport \"./ERC20TD.sol\";\nimport \"./IExerciceSolution.sol\";\nimport \"./IRichERC20.sol\";\nimport \"./utils/IUniswapV2Factory.sol\";\nimport \"./utils/IUniswapV2Pair.sol\";\n\ncontract Evaluator \n{\n\n\tmapping(address => bool) public teachers;\n\tERC20TD public TDAMM;\n\n\tERC20 public dummyToken;\n\tIUniswapV2Factory public uniswapV2Factory;\n\taddress public WETH;\n\n\tuint256[20] private randomSupplies;\n\tstring[20] private randomTickers;\n \tuint public nextValueStoreRank;\n\n \tmapping(address => string) public assignedTicker;\n \tmapping(address => uint256) public assignedSupply;\n \tmapping(address => mapping(uint256 => bool)) public exerciceProgression;\n \tmapping(address => IRichERC20) public studentErc20;\n \tmapping(address => IExerciceSolution) public studentExercice;\n \tmapping(address => bool) public hasBeenPaired;\n\n \tevent newRandomTickerAndSupply(string ticker, uint256 supply);\n \tevent constructedCorrectly(address erc20Address, address dummyTokenAddress, address uniFactoryAddress, address wethAddress);\n\tconstructor(ERC20TD _TDAMM, ERC20 _dummyToken, IUniswapV2Factory _uniswapV2Factory, address _WETH) \n\tpublic \n\t{\n\t\tTDAMM = _TDAMM;\n\t\tdummyToken = _dummyToken;\n\t\tuniswapV2Factory = _uniswapV2Factory;\n\t\tWETH = _WETH;\n\t\temit constructedCorrectly(address(TDAMM), address(_dummyToken), address(_uniswapV2Factory), _WETH);\n\n\t}\n\n\tfallback () external payable \n\t{}\n\n\treceive () external payable \n\t{}\n\n\tfunction ex1_showIHaveTokens()\n\tpublic\n\t{\n\t\trequire(dummyToken.balanceOf(msg.sender) > 0, \"You do not hold dummyTokens. Buy them on Uniswap\");\n\n\t\tif (!exerciceProgression[msg.sender][1])\n\t\t{\n\t\t\texerciceProgression[msg.sender][1] = true;\n\t\t\tTDAMM.distributeTokens(msg.sender, 2);\n\t\t}\n\n\t}\n\n\tfunction ex2_showIProvidedLiquidity()\n\tpublic\n\t{\n\t\t// Getting address from factory for pair dummyToken / WETH\n\t\t(address token0, address token1) = address(dummyToken) < WETH ? (address(dummyToken), WETH) : (WETH, address(dummyToken));\n\t\taddress dummyTokenAndWethPair = uniswapV2Factory.getPair(token0, token1);\n\n\t\t// Checking if caller holds LP token\n\t\tERC20 dummyTokenAndWethPairAsERC20 = ERC20(dummyTokenAndWethPair);\n\t\trequire(dummyTokenAndWethPairAsERC20.balanceOf(msg.sender) > 0, \"You do not hold liquidity in the required pool\");\n\t\tif (!exerciceProgression[msg.sender][2])\n\t\t{\n\t\t\texerciceProgression[msg.sender][2] = true;\n\t\t\tTDAMM.distributeTokens(msg.sender, 2);\n\t\t}\n\t}\n\n\tfunction ex6a_getTickerAndSupply()\n\tpublic\n\t{\n\t\tassignedSupply[msg.sender] = randomSupplies[nextValueStoreRank]*1000000000000000000;\n\t\t// assignedTicker[msg.sender] = bytes32ToString(randomTickers[nextValueStoreRank]);\n\t\tassignedTicker[msg.sender] = randomTickers[nextValueStoreRank];\n\n\t\tnextValueStoreRank += 1;\n\t\tif (nextValueStoreRank >= 20)\n\t\t{\n\t\t\tnextValueStoreRank = 0;\n\t\t}\n\n\t\t// Crediting points\n\t\tif (!exerciceProgression[msg.sender][5])\n\t\t{\n\t\t\texerciceProgression[msg.sender][5] = true;\n\t\t\tTDAMM.distributeTokens(msg.sender, 2);\n\t\t}\n\t}\n\n\tfunction ex6b_testErc20TickerAndSupply()\n\tpublic\n\t{\n\t\t// Checking ticker and supply were received\n\t\trequire(exerciceProgression[msg.sender][5]);\n\n\t\t// Checking ticker was set properly\n\t\trequire(_compareStrings(assignedTicker[msg.sender], studentErc20[msg.sender].symbol()), \"Incorrect ticker\");\n\t\t// Checking supply was set properly\n\t\trequire(assignedSupply[msg.sender] == studentErc20[msg.sender].totalSupply(), \"Incorrect supply\");\n\t\t// Checking some ERC20 functions were created\n\t\trequire(studentErc20[msg.sender].allowance(address(this), msg.sender) == 0, \"Allowance not implemented or incorrectly set\");\n\t\trequire(studentErc20[msg.sender].balanceOf(address(this)) == 0, \"BalanceOf not implemented or incorrectly set\");\n\t\trequire(studentErc20[msg.sender].approve(msg.sender, 10), \"Approve not implemented\");\n\n\t\t// Crediting points\n\t\tif (!exerciceProgression[msg.sender][6])\n\t\t{\n\t\t\texerciceProgression[msg.sender][6] = true;\n\t\t\t// Creating ERC20\n\t\t\tTDAMM.distributeTokens(msg.sender, 2);\n\t\t}\n\n\t}\n\n\tfunction ex7_tokenIsTradableOnUniswap()\n\tpublic\n\t{\n\t\t// Retrieving address of pair from library\n\t\t(address token0, address token1) = address(studentErc20[msg.sender]) < WETH ? (address(studentErc20[msg.sender]), WETH) : (WETH, address(studentErc20[msg.sender]));\n\t\taddress studentTokenAndWethPair = uniswapV2Factory.getPair(token0, token1);\n\n\t\trequire(studentTokenAndWethPair != address(0));\n\n\t\t// Crediting points\n\t\tif (!exerciceProgression[msg.sender][7])\n\t\t{\n\t\t\texerciceProgression[msg.sender][7] = true;\n\t\t\t// Creating ERC20\n\t\t\tTDAMM.distributeTokens(msg.sender, 5);\n\t\t}\n\n\t}\n\n\tfunction ex8_contractCanSwapVsEth()\n\tpublic\n\t{\n\t\t// Retrieving address of pair from library\n\t\t(address token0, address token1) = address(studentErc20[msg.sender]) < WETH ? (address(studentErc20[msg.sender]), WETH) : (WETH, address(studentErc20[msg.sender]));\n\t\taddress studentTokenAndWethPair = uniswapV2Factory.getPair(token0, token1);\n\n\t\t// Checking pair balance before calling exercice contract\n\t\tIUniswapV2Pair studentTokenAndWethPairInstance = IUniswapV2Pair(studentTokenAndWethPair);\n\t\t(uint112 reserve0, uint112 reserve1, ) = studentTokenAndWethPairInstance.getReserves();\n\n\t\t// Checking caller balance before executing contract\n\t\tuint initBalance = studentErc20[msg.sender].balanceOf(msg.sender);\n\n\t\t// Calling student contract to tell him to provide liquidity\n\t\tstudentExercice[msg.sender].swapYourTokenForEth();\n\n\t\t// Checking pair balance after calling exercice contract\n\t\t(uint112 reserve3, uint112 reserve4,) = studentTokenAndWethPairInstance.getReserves();\n\t\trequire((reserve0 != reserve3) && (reserve1 != reserve4), \"No liquidity change in your token's pool\");\n\n\t\t// Checking your token balance after calling the exercice\n\t\tuint endBalance = studentErc20[msg.sender].balanceOf(msg.sender);\n\t\trequire(initBalance != endBalance, \"You still have the same amont of tokens\");\n\n\t\t// Crediting points\n\t\tif (!exerciceProgression[msg.sender][8])\n\t\t{\n\t\t\texerciceProgression[msg.sender][8] = true;\n\t\t\t// Creating ERC20\n\t\t\tTDAMM.distributeTokens(msg.sender, 1);\n\t\t}\n\n\t}\n\n\tfunction ex9_contractCanSwapVsDummyToken()\n\tpublic\n\t{\n\t\t// Retrieving address of pair from library\n\t\t(address token0, address token1) = address(studentErc20[msg.sender]) < address(dummyToken) ? (address(studentErc20[msg.sender]), address(dummyToken)) : (address(dummyToken), address(studentErc20[msg.sender]));\n\t\taddress studentTokenAndWethPair = uniswapV2Factory.getPair(token0, token1);\n\n\t\t// Checking pair balance before calling exercice contract\n\t\tIUniswapV2Pair studentTokenAndWethPairInstance = IUniswapV2Pair(studentTokenAndWethPair);\n\t\t(uint112 reserve0, uint112 reserve1, ) = studentTokenAndWethPairInstance.getReserves();\n\t\t\n\t\t// Checking caller balance before executing contract\n\t\tuint initTokenBalance = studentErc20[msg.sender].balanceOf(msg.sender);\n\t\tuint initDummyBalance = dummyToken.balanceOf(msg.sender);\n\n\t\t// Calling student contract to tell him to provide liquidity\n\t\tstudentExercice[msg.sender].swapYourTokenForDummyToken();\n\n\t\t// Checking pair balance after calling exercice contract\n\t\t(uint112 reserve3, uint112 reserve4,) = studentTokenAndWethPairInstance.getReserves();\n\t\trequire((reserve0 < reserve3) && (reserve1 < reserve4), \"No liquidity change in your token's pool\");\n\n\t\t// Checking your token balance after calling the exercice\n\t\tuint endTokenBalance = studentErc20[msg.sender].balanceOf(msg.sender);\n\t\trequire(initTokenBalance != endTokenBalance, \"You still have the same amont of tokens\");\n\t\tuint endDummyBalance = dummyToken.balanceOf(msg.sender);\n\t\trequire(initDummyBalance != endDummyBalance, \"You still have the same amont of tokens\");\n\n\t\t// Crediting points\n\t\tif (!exerciceProgression[msg.sender][9])\n\t\t{\n\t\t\texerciceProgression[msg.sender][9] = true;\n\t\t\t// Creating ERC20\n\t\t\tTDAMM.distributeTokens(msg.sender, 2);\n\t\t}\n\n\t}\n\tfunction ex10_contractCanProvideLiquidity()\n\tpublic\n\t{\n\t\t// Retrieving address of pair from library\n\t\t(address token0, address token1) = address(studentErc20[msg.sender]) < WETH ? (address(studentErc20[msg.sender]), WETH) : (WETH, address(studentErc20[msg.sender]));\n\t\taddress studentTokenAndWethPair = uniswapV2Factory.getPair(token0, token1);\n\n\t\t// Checking pair balance before calling exercice contract\n\t\tIUniswapV2Pair studentTokenAndWethPairInstance = IUniswapV2Pair(studentTokenAndWethPair);\n\t\t(uint112 reserve0, uint112 reserve1, ) = studentTokenAndWethPairInstance.getReserves();\n\n\t\t// Calling student contract to tell him to provide liquidity\n\t\tstudentExercice[msg.sender].addLiquidity();\n\n\t\t// Checking pair balance after calling exercice contract\n\t\t(uint112 reserve3, uint112 reserve4,) = studentTokenAndWethPairInstance.getReserves();\n\n\t\trequire((reserve0 < reserve3) && (reserve1 < reserve4), \"No liquidity change in your token's pool\");\n\n\t\t// Crediting points\n\t\tif (!exerciceProgression[msg.sender][10])\n\t\t{\n\t\t\texerciceProgression[msg.sender][10] = true;\n\t\t\t// Creating ERC20\n\t\t\tTDAMM.distributeTokens(msg.sender, 2);\n\t\t}\n\n\t}\n\n\tfunction ex11_contractCanWithdrawLiquidity()\n\tpublic\n\t{\n\t\t// Retrieving address of pair from library\n\t\t(address token0, address token1) = address(studentErc20[msg.sender]) < WETH ? (address(studentErc20[msg.sender]), WETH) : (WETH, address(studentErc20[msg.sender]));\n\t\taddress studentTokenAndWethPair = uniswapV2Factory.getPair(token0, token1);\n\n\t\t// Checking pair balance before calling exercice contract\n\t\tIUniswapV2Pair studentTokenAndWethPairInstance = IUniswapV2Pair(studentTokenAndWethPair);\n\t\t(uint112 reserve0, uint112 reserve1, ) = studentTokenAndWethPairInstance.getReserves();\n\n\t\t// Calling student contract to tell him to provide liquidity\n\t\tstudentExercice[msg.sender].withdrawLiquidity();\n\n\t\t// Checking pair balance after calling exercice contract\n\t\t(uint112 reserve3, uint112 reserve4,) = studentTokenAndWethPairInstance.getReserves();\n\n\t\trequire((reserve0 > reserve3) && (reserve1 > reserve4), \"No liquidity change in your token's pool\");\n\n\t\t// Crediting points\n\t\tif (!exerciceProgression[msg.sender][11])\n\t\t{\n\t\t\texerciceProgression[msg.sender][11] = true;\n\t\t\t// Creating ERC20\n\t\t\tTDAMM.distributeTokens(msg.sender, 2);\n\t\t}\n\n\t}\n\n\n\tmodifier onlyTeachers() \n\t{\n\n\t    require(TDAMM.teachers(msg.sender));\n\t    _;\n\t}\n\n\tfunction submitExercice(IExerciceSolution studentExercice_)\n\tpublic\n\t{\n\t\t// Checking this contract was not used by another group before\n\t\trequire(!hasBeenPaired[address(studentExercice_)]);\n\n\t\t// Assigning passed ERC20 as student ERC20\n\t\tstudentExercice[msg.sender] = studentExercice_;\n\t\thasBeenPaired[address(studentExercice_)] = true;\n\t\t\t\n\t}\n\n\tfunction submitErc20(IRichERC20 studentErc20_)\n\tpublic\n\t{\n\t\t// Checking this contract was not used by another group before\n\t\trequire(!hasBeenPaired[address(studentErc20_)]);\n\t\t// Assigning passed ERC20 as student ERC20\n\t\tstudentErc20[msg.sender] = studentErc20_;\n\t\thasBeenPaired[address(studentErc20_)] = true;\n\t\t\t\n\t}\n\n\tfunction _compareStrings(string memory a, string memory b) \n\tinternal \n\tpure \n\treturns (bool) \n\t{\n    \treturn (keccak256(abi.encodePacked((a))) == keccak256(abi.encodePacked((b))));\n\t}\n\n\tfunction bytes32ToString(bytes32 _bytes32) \n\tpublic \n\tpure returns (string memory) \n\t{\n        uint8 i = 0;\n        while(i < 32 && _bytes32[i] != 0) {\n            i++;\n        }\n        bytes memory bytesArray = new bytes(i);\n        for (i = 0; i < 32 && _bytes32[i] != 0; i++) {\n            bytesArray[i] = _bytes32[i];\n        }\n        return string(bytesArray);\n    }\n\n\tfunction readTicker(address studentAddres)\n\tpublic\n\tview\n\treturns(string memory)\n\t{\n\t\treturn assignedTicker[studentAddres];\n\t}\n\n\tfunction readSupply(address studentAddres)\n\tpublic\n\tview\n\treturns(uint256)\n\t{\n\t\treturn assignedSupply[studentAddres];\n\t}\n\n\tfunction setRandomTickersAndSupply(uint256[20] memory _randomSupplies, string[20] memory _randomTickers) \n\tpublic \n\tonlyTeachers\n\t{\n\t\trandomSupplies = _randomSupplies;\n\t\trandomTickers = _randomTickers;\n\t\tnextValueStoreRank = 0;\n\t\tfor (uint i = 0; i < 20; i++)\n\t\t{\n\t\t\temit newRandomTickerAndSupply(randomTickers[i], randomSupplies[i]);\n\t\t}\n\t}\n\n\n\n\n}\n",
  "sourcePath": "/home/lucas/TD_Blockchain/TD7/contracts/Evaluator.sol",
  "compiler": {
    "name": "solc",
    "version": "0.6.12+commit.27d51765.Emscripten.clang"
  },
  "schemaVersion": "3.4.3",
  "updatedAt": "2021-12-04T17:32:31.640Z",
  "devdoc": {
    "kind": "dev",
    "methods": {},
    "version": 1
  },
  "userdoc": {
    "kind": "user",
    "methods": {},
    "version": 1
  }
}