{
  "contractName": "SwapContract",
  "abi": [
    {
      "inputs": [
        {
          "internalType": "contract IUniswapV2Router02",
          "name": "uniswapV2Router_",
          "type": "address"
        },
        {
          "internalType": "contract MockERC20",
          "name": "mockERC20_",
          "type": "address"
        },
        {
          "internalType": "contract DummyToken",
          "name": "dummyToken_",
          "type": "address"
        },
        {
          "internalType": "contract ERC20",
          "name": "WETH_",
          "type": "address"
        },
        {
          "internalType": "contract ERC20",
          "name": "pair_",
          "type": "address"
        }
      ],
      "stateMutability": "nonpayable",
      "type": "constructor"
    },
    {
      "inputs": [],
      "name": "WETH",
      "outputs": [
        {
          "internalType": "contract ERC20",
          "name": "",
          "type": "address"
        }
      ],
      "stateMutability": "view",
      "type": "function",
      "constant": true
    },
    {
      "inputs": [],
      "name": "dummyToken",
      "outputs": [
        {
          "internalType": "contract DummyToken",
          "name": "",
          "type": "address"
        }
      ],
      "stateMutability": "view",
      "type": "function",
      "constant": true
    },
    {
      "inputs": [],
      "name": "mockERC20",
      "outputs": [
        {
          "internalType": "contract MockERC20",
          "name": "",
          "type": "address"
        }
      ],
      "stateMutability": "view",
      "type": "function",
      "constant": true
    },
    {
      "inputs": [],
      "name": "pair",
      "outputs": [
        {
          "internalType": "contract ERC20",
          "name": "",
          "type": "address"
        }
      ],
      "stateMutability": "view",
      "type": "function",
      "constant": true
    },
    {
      "inputs": [],
      "name": "uniswapV2Router",
      "outputs": [
        {
          "internalType": "contract IUniswapV2Router02",
          "name": "",
          "type": "address"
        }
      ],
      "stateMutability": "view",
      "type": "function",
      "constant": true
    },
    {
      "stateMutability": "payable",
      "type": "receive",
      "payable": true
    },
    {
      "inputs": [],
      "name": "swapYourTokenForEth",
      "outputs": [],
      "stateMutability": "nonpayable",
      "type": "function"
    },
    {
      "inputs": [],
      "name": "swapYourTokenForDummyToken",
      "outputs": [],
      "stateMutability": "nonpayable",
      "type": "function"
    },
    {
      "inputs": [],
      "name": "addLiquidity",
      "outputs": [],
      "stateMutability": "nonpayable",
      "type": "function"
    },
    {
      "inputs": [],
      "name": "withdrawLiquidity",
      "outputs": [],
      "stateMutability": "nonpayable",
      "type": "function"
    }
  ],
  "bytecode": "0x608060405234801561001057600080fd5b50604051611304380380611304833981810160405260a081101561003357600080fd5b810190808051906020019092919080519060200190929190805190602001909291908051906020019092919080519060200190929190505050846000806101000a81548173ffffffffffffffffffffffffffffffffffffffff021916908373ffffffffffffffffffffffffffffffffffffffff16021790555083600160006101000a81548173ffffffffffffffffffffffffffffffffffffffff021916908373ffffffffffffffffffffffffffffffffffffffff16021790555082600260006101000a81548173ffffffffffffffffffffffffffffffffffffffff021916908373ffffffffffffffffffffffffffffffffffffffff16021790555081600360006101000a81548173ffffffffffffffffffffffffffffffffffffffff021916908373ffffffffffffffffffffffffffffffffffffffff16021790555080600460006101000a81548173ffffffffffffffffffffffffffffffffffffffff021916908373ffffffffffffffffffffffffffffffffffffffff1602179055505050505050611140806101c46000396000f3fe60806040526004361061008a5760003560e01c80637ea382c1116100595780637ea382c114610170578063a8aa1b3114610187578063ad5c4648146101c8578063c4a8599314610209578063e8078d941461022057610091565b80631694505e146100965780635a744d91146100d757806367479ec5146101185780637c587b221461015957610091565b3661009157005b600080fd5b3480156100a257600080fd5b506100ab610237565b604051808273ffffffffffffffffffffffffffffffffffffffff16815260200191505060405180910390f35b3480156100e357600080fd5b506100ec61025b565b604051808273ffffffffffffffffffffffffffffffffffffffff16815260200191505060405180910390f35b34801561012457600080fd5b5061012d610281565b604051808273ffffffffffffffffffffffffffffffffffffffff16815260200191505060405180910390f35b34801561016557600080fd5b5061016e6102a7565b005b34801561017c57600080fd5b50610185610592565b005b34801561019357600080fd5b5061019c6108b3565b604051808273ffffffffffffffffffffffffffffffffffffffff16815260200191505060405180910390f35b3480156101d457600080fd5b506101dd6108d9565b604051808273ffffffffffffffffffffffffffffffffffffffff16815260200191505060405180910390f35b34801561021557600080fd5b5061021e6108ff565b005b34801561022c57600080fd5b50610235610dd6565b005b60008054906101000a900473ffffffffffffffffffffffffffffffffffffffff1681565b600160009054906101000a900473ffffffffffffffffffffffffffffffffffffffff1681565b600260009054906101000a900473ffffffffffffffffffffffffffffffffffffffff1681565b6102af6108ff565b6000600267ffffffffffffffff811180156102c957600080fd5b506040519080825280602002602001820160405280156102f85781602001602082028036833780820191505090505b509050600360009054906101000a900473ffffffffffffffffffffffffffffffffffffffff168160008151811061032b57fe5b602002602001019073ffffffffffffffffffffffffffffffffffffffff16908173ffffffffffffffffffffffffffffffffffffffff1681525050600260009054906101000a900473ffffffffffffffffffffffffffffffffffffffff168160018151811061039557fe5b602002602001019073ffffffffffffffffffffffffffffffffffffffff16908173ffffffffffffffffffffffffffffffffffffffff168152505060008054906101000a900473ffffffffffffffffffffffffffffffffffffffff1673ffffffffffffffffffffffffffffffffffffffff1663fb3bdb41606461271084306361b96e956040518663ffffffff1660e01b815260040180858152602001806020018473ffffffffffffffffffffffffffffffffffffffff168152602001838152602001828103825285818151815260200191508051906020019060200280838360005b83811015610491578082015181840152602081019050610476565b50505050905001955050505050506000604051808303818588803b1580156104b857600080fd5b505af11580156104cc573d6000803e3d6000fd5b50505050506040513d6000823e3d601f19601f8201168201806040525060208110156104f757600080fd5b810190808051604051939291908464010000000082111561051757600080fd5b8382019150602082018581111561052d57600080fd5b825186602082028301116401000000008211171561054a57600080fd5b8083526020830192505050908051906020019060200280838360005b83811015610581578082015181840152602081019050610566565b505050509050016040525050505050565b600460009054906101000a900473ffffffffffffffffffffffffffffffffffffffff1673ffffffffffffffffffffffffffffffffffffffff1663095ea7b360008054906101000a900473ffffffffffffffffffffffffffffffffffffffff16670de0b6b3a76400006040518363ffffffff1660e01b8152600401808373ffffffffffffffffffffffffffffffffffffffff16815260200182815260200192505050602060405180830381600087803b15801561064d57600080fd5b505af1158015610661573d6000803e3d6000fd5b505050506040513d602081101561067757600080fd5b81019080805190602001909291905050505060008054906101000a900473ffffffffffffffffffffffffffffffffffffffff1673ffffffffffffffffffffffffffffffffffffffff166302751cec600160009054906101000a900473ffffffffffffffffffffffffffffffffffffffff16620f42406001803062278d0042016040518763ffffffff1660e01b8152600401808773ffffffffffffffffffffffffffffffffffffffff1681526020018681526020018581526020018481526020018373ffffffffffffffffffffffffffffffffffffffff16815260200182815260200196505050505050506040805180830381600087803b15801561077a57600080fd5b505af115801561078e573d6000803e3d6000fd5b505050506040513d60408110156107a457600080fd5b8101908080519060200190929190805190602001909291905050505050600460009054906101000a900473ffffffffffffffffffffffffffffffffffffffff1673ffffffffffffffffffffffffffffffffffffffff1663095ea7b360008054906101000a900473ffffffffffffffffffffffffffffffffffffffff1660006040518363ffffffff1660e01b8152600401808373ffffffffffffffffffffffffffffffffffffffff16815260200182815260200192505050602060405180830381600087803b15801561087557600080fd5b505af1158015610889573d6000803e3d6000fd5b505050506040513d602081101561089f57600080fd5b810190808051906020019092919050505050565b600460009054906101000a900473ffffffffffffffffffffffffffffffffffffffff1681565b600360009054906101000a900473ffffffffffffffffffffffffffffffffffffffff1681565b600160009054906101000a900473ffffffffffffffffffffffffffffffffffffffff1673ffffffffffffffffffffffffffffffffffffffff1663095ea7b360008054906101000a900473ffffffffffffffffffffffffffffffffffffffff16670de0b6b3a76400006040518363ffffffff1660e01b8152600401808373ffffffffffffffffffffffffffffffffffffffff16815260200182815260200192505050602060405180830381600087803b1580156109ba57600080fd5b505af11580156109ce573d6000803e3d6000fd5b505050506040513d60208110156109e457600080fd5b8101908080519060200190929190505050506000600267ffffffffffffffff81118015610a1057600080fd5b50604051908082528060200260200182016040528015610a3f5781602001602082028036833780820191505090505b509050600160009054906101000a900473ffffffffffffffffffffffffffffffffffffffff1681600081518110610a7257fe5b602002602001019073ffffffffffffffffffffffffffffffffffffffff16908173ffffffffffffffffffffffffffffffffffffffff1681525050600360009054906101000a900473ffffffffffffffffffffffffffffffffffffffff1681600181518110610adc57fe5b602002602001019073ffffffffffffffffffffffffffffffffffffffff16908173ffffffffffffffffffffffffffffffffffffffff168152505060008054906101000a900473ffffffffffffffffffffffffffffffffffffffff1673ffffffffffffffffffffffffffffffffffffffff166318cbafe5670de0b6b3a7640000606484306361b96e956040518663ffffffff1660e01b815260040180868152602001858152602001806020018473ffffffffffffffffffffffffffffffffffffffff168152602001838152602001828103825285818151815260200191508051906020019060200280838360005b83811015610be4578082015181840152602081019050610bc9565b505050509050019650505050505050600060405180830381600087803b158015610c0d57600080fd5b505af1158015610c21573d6000803e3d6000fd5b505050506040513d6000823e3d601f19601f820116820180604052506020811015610c4b57600080fd5b8101908080516040519392919084640100000000821115610c6b57600080fd5b83820191506020820185811115610c8157600080fd5b8251866020820283011164010000000082111715610c9e57600080fd5b8083526020830192505050908051906020019060200280838360005b83811015610cd5578082015181840152602081019050610cba565b5050505090500160405250505050600160009054906101000a900473ffffffffffffffffffffffffffffffffffffffff1673ffffffffffffffffffffffffffffffffffffffff1663095ea7b360008054906101000a900473ffffffffffffffffffffffffffffffffffffffff1660006040518363ffffffff1660e01b8152600401808373ffffffffffffffffffffffffffffffffffffffff16815260200182815260200192505050602060405180830381600087803b158015610d9757600080fd5b505af1158015610dab573d6000803e3d6000fd5b505050506040513d6020811015610dc157600080fd5b81019080805190602001909291905050505050565b600160009054906101000a900473ffffffffffffffffffffffffffffffffffffffff1673ffffffffffffffffffffffffffffffffffffffff1663095ea7b360008054906101000a900473ffffffffffffffffffffffffffffffffffffffff16670de0b6b3a76400006040518363ffffffff1660e01b8152600401808373ffffffffffffffffffffffffffffffffffffffff16815260200182815260200192505050602060405180830381600087803b158015610e9157600080fd5b505af1158015610ea5573d6000803e3d6000fd5b505050506040513d6020811015610ebb57600080fd5b81019080805190602001909291905050505060008054906101000a900473ffffffffffffffffffffffffffffffffffffffff1673ffffffffffffffffffffffffffffffffffffffff1663f305d7196402540be400600160009054906101000a900473ffffffffffffffffffffffffffffffffffffffff16633b9aca006001803062278d0042016040518863ffffffff1660e01b8152600401808773ffffffffffffffffffffffffffffffffffffffff1681526020018681526020018581526020018481526020018373ffffffffffffffffffffffffffffffffffffffff16815260200182815260200196505050505050506060604051808303818588803b158015610fc557600080fd5b505af1158015610fd9573d6000803e3d6000fd5b50505050506040513d6060811015610ff057600080fd5b81019080805190602001909291908051906020019092919080519060200190929190505050505050600160009054906101000a900473ffffffffffffffffffffffffffffffffffffffff1673ffffffffffffffffffffffffffffffffffffffff1663095ea7b360008054906101000a900473ffffffffffffffffffffffffffffffffffffffff1660006040518363ffffffff1660e01b8152600401808373ffffffffffffffffffffffffffffffffffffffff16815260200182815260200192505050602060405180830381600087803b1580156110cc57600080fd5b505af11580156110e0573d6000803e3d6000fd5b505050506040513d60208110156110f657600080fd5b81019080805190602001909291905050505056fea264697066735822122041c16a7160b72b9e97710deb0f2b88f2e26ce5c7155da51cb27ef38ee28f9a4664736f6c63430007060033",
  "immutableReferences": {},
  "source": "// SPDX-License-Identifier: MIT\n\npragma solidity ^0.7.6;\n\nimport \"./IUniswapV2Router02.sol\";\nimport \"./MockERC20.sol\";\nimport \"@openzeppelin/contracts/token/ERC20/SafeERC20.sol\";\nimport \"@openzeppelin/contracts/token/ERC20/ERC20.sol\";\nimport \"./DummyToken.sol\";\n\ncontract SwapContract {\n    using SafeERC20 for MockERC20;\n    using SafeERC20 for DummyToken;\n    IUniswapV2Router02 public uniswapV2Router;\n    MockERC20 public mockERC20;\n    DummyToken public dummyToken;\n    ERC20 public WETH;\n    ERC20 public pair;\n\n    constructor(\n        IUniswapV2Router02 uniswapV2Router_,\n        MockERC20 mockERC20_,\n        DummyToken dummyToken_,\n        ERC20 WETH_,\n        ERC20 pair_\n    ) public {\n        uniswapV2Router = uniswapV2Router_;\n        mockERC20 = mockERC20_;\n        dummyToken = dummyToken_;\n        WETH = WETH_;\n        pair = pair_;\n    }\n\n    function swapYourTokenForEth() public {\n        mockERC20.approve(address(uniswapV2Router), 1000000000000000000);\n        address[] memory path = new address[](2);\n        path[0] = address(mockERC20);\n        path[1] = address(WETH);\n        uniswapV2Router.swapExactTokensForETH(\n            1000000000000000000,\n            100,\n            path,\n            address(this),\n            1639542421\n        );\n        mockERC20.approve(address(uniswapV2Router), 0);\n    }\n\n    function swapYourTokenForDummyToken() external {\n        swapYourTokenForEth();\n        // WETH.approve(address(uniswapV2Router), 1000000000000000000);\n        address[] memory path = new address[](2);\n        path[0] = address(WETH);\n        path[1] = address(dummyToken);\n        uniswapV2Router.swapETHForExactTokens{value: 100}(\n            10000,\n            path,\n            address(this),\n            1639542421\n        );\n        // WETH.approve(address(uniswapV2Router), 0);\n    }\n\n    function addLiquidity() external {\n        mockERC20.approve(address(uniswapV2Router), 1000000000000000000);\n        uniswapV2Router.addLiquidityETH{value: 10000000000}(\n            address(mockERC20),\n            1000000000,\n            1,\n            1,\n            address(this),\n            block.timestamp + 30 days\n        );\n        mockERC20.approve(address(uniswapV2Router), 0);\n    }\n\n    function withdrawLiquidity() external {\n        pair.approve(address(uniswapV2Router), 1000000000000000000);\n        uniswapV2Router.removeLiquidityETH(\n            address(mockERC20),\n            1000000,\n            1,\n            1,\n            address(this),\n            block.timestamp + 30 days\n        );\n        pair.approve(address(uniswapV2Router), 0);\n    }\n\n    receive() external payable {}\n}\n",
  "sourcePath": "/home/lucas/TD_Blockchain/TD7/contracts/SwapContract.sol",
  "compiler": {
    "name": "solc",
    "version": "0.7.6+commit.7338295f.Emscripten.clang"
  },
  "schemaVersion": "3.4.3",
  "updatedAt": "2021-12-06T18:42:32.208Z",
  "networkType": "ethereum",
  "devdoc": {
    "kind": "dev",
    "methods": {},
    "version": 1
  },
  "userdoc": {
    "kind": "user",
    "methods": {},
    "version": 1
  }
}